:020000022000DC
:10B000000000042061B20200B9B20200BBB202002B
:10B01000BDB20200BFB20200C1B2020000000000D7
:10B02000000000000000000000000000C3B20200A9
:10B03000C5B2020000000000C7B20200C9B202009F
:10B0400015100300CFB2020025100300D3B2020096
:10B05000D5B20200D7B202001D0D0300DBB2020020
:10B06000DDB20200DFB20200E1B20200E3B2020090
:10B07000E5B20200E7B20200E9B20200EBB2020060
:10B08000EDB2020085D80200F1B20200F3B2020074
:10B0900021D90200F7B20200FD2A0300FBB2020030
:10B0A000FDB20200FFB2020001B3020003B30200CE
:10B0B00005B3020007B30200CBB20200CBB202001C
:10B0C00009B302000BB302000DB302000FB302007C
:10B0D00011B3020013B3020015B30200FD07030011
:10B0E00019B302001BB302001DB30200CBB2020071
:10B0F000CBB2020021B30200CBB202001FB30200A8
:10B10000364937480A1A02D0072291438D463549FD
:10B1100035480A1A06D00722914381F30988022292
:10B1200082F3148831483249324A00F045F83248F7
:10B130003249334A00F040F832483349334A00F08C
:10B140003BF833483349344A00F036F83348344941
:10B15000344A00F031F834483449354A00F02CF8CC
:10B1600034483549354A00F027F83548354900223A
:10B1700000F02DF834483549002200F028F8344812
:10B180003449091A082903DB0022026004300160F7
:10B19000314A90471F482049884205D00268043050
:10B1A00003B4904703BCF7E700208646EC46002036
:10B1B00000212A4A9047FEE7884207D0521A05D05C
:10B1C000037801300B700131013AF9D170478842A0
:10B1D00002D002700130FAE770470000000004203E
:10B1E00000E003200000042000000420684E03005B
:10B1F000042B0020A42B002024B3020024B302005F
:10B20000F4360300684E0300042B0020042B0020BA
:10B21000F4380300F4380300F4380300F438030072
:10B22000F4380300F4380300F4380300F438030062
:10B23000684E0300084F0300A42B0020A42B00201D
:10B24000A42B00200C3E00200C3E00200C3E0020D1
:10B250000C3E00200C5E002085B202004914030061
:10B260000F484FF00701884385460E4880470E4837
:10B27000016841F470010160BFF34F8FBFF36F8F1E
:10B28000FFF73EBF09480A490A4A884207D0521AC6
:10B2900005D0037801300B700131013AF9D17047C4
:10B2A00000000420A1F2020088ED00E088380300CD
:10B2B000982A0020042B0020FEE7FEE7FEE7FEE7C9
:10B2C000FEE7FEE7FEE7FEE7FEE7FEE7FEE7FEE756
:10B2D000FEE7FEE7FEE7FEE7FEE7FEE7FEE7FEE746
:10B2E000FEE7FEE7FEE7FEE7FEE7FEE7FEE7FEE736
:10B2F000FEE7FEE7FEE7FEE7FEE7FEE7FEE7FEE726
:10B30000FEE7FEE7FEE7FEE7FEE7FEE7FEE7FEE715
:10B31000FEE7FEE7FEE7FEE7FEE7FEE7FEE7FEE705
:04B32000FEE700BF85
:10B324007047000007B5044B0093044A402300F023
:10B3340032F803B05DF804FB45B30200A52B0020EE
:10B344002DE9F84389461446E2B10F4B0F4E03250D
:10B35400002743F00108224609EB0701002006F00C
:10B364005FFD0744241A48B933785BB14FF47A403F
:10B37400C047013D02D13570BDE8F8830123337025
:10B38400002CE8D1BDE8F88300390300A42B002089
:10B39400704706F079BDF0B595B01C4608460D46D9
:10B3A400164602F05EF91A9B099400240D930822B4
:10B3B400234605A9284608960A948DF82C400C9437
:10B3C40002F08DF9079B0293BDF81830ADF80C30EC
:10B3D400BDF81A30ADF80E309DF814308DF81140D8
:10B3E40003F00302012A1DD1BDF81440059EC3F3E6
:10B3F400C203C4F383148DF81030A20008230EA9ED
:10B40400284602F06CF9C6F3952608AB0093224651
:10B4140002AB0EA9304600F06BFB284602F025F97A
:10B4240015B0F0BD022AF8D1BDF81640C3F3C2032B
:10B43400C4F389148DF810300827082C264628BF39
:10B4440008263B4632460EA9284602F048F9A41BBA
:10B4540008AB02AA31460EA8374400F0ADFB002C1D
:10B46400EBD1DAE710B5054CFFF793FF0421204632
:10B4740000F0AEFA0123637210BD00BF042B00205C
:10B48400037813F0030F10B503F0040402D004F0A2
:10B49400FF02F4B1B4B103F00303012B03D0022B78
:10B4A40009D0012010BD0A6800880232C0F383105D
:10B4B40002440A60F5E70B684288023303EB9213F7
:10B4C4000B60EEE70B684288013303EB92130288AA
:10B4D400F4E7104610BD00002DE9F04F89B0064690
:10B4E400851C08A8494C019200230F4600F8113D21
:10B4F40001F00AFC23683B606268A3681344226875
:10B5040001339B1A04F21C4704F5836A04F21448BD
:10B51400AB421AD3019A0023002A6FD0012262F3AE
:10B52400010343F0040366F389132168A2689DF8BC
:10B534000F000A4003320D4444F82230256001F024
:10B5440007FC012009B0BDE8F08F0121384601F065
:10B55400ECFC504601F012FD404601F00FFD0DF1E8
:10B5640020096068D4F808B049F8100D00EA0B000F
:10B57400033004EB80004946FFF782FF049BB8B90F
:10B584000BEA030204EB8202D16805919A1C013391
:10B5940003EA0B0B04EB8B0E0492DEF80C300693DB
:10B5A40001F00303012B21D0022B04D083460CE0CD
:10B5B4000BEA0300DCE7BDF81630BDF81AB0C3F39C
:10B5C4008913033302EB93030493404601F0D9FC3F
:10B5D40008B1049B63605946384601F0A6FC6268D2
:10B5E400A3681344226801339B1A91E7BDF8143011
:10B5F400BDF81AB0C3F383131344E5E7022262F3E0
:10B60400010343F0040366F39F538EE7B82C002034
:10B6140008B50E4B0E48FF229A600022C3F8182486
:10B624001A605A60C3F8142483F8202401F0D0FF70
:10B6340038B9084A084B09499B1ADB0802469A4262
:10B6440000D108BD21F822200132F8E7B82C0020EF
:10B65400FC3703004C370300FC370300982A002012
:10B6640030B50B4C79B10B4A0B49121BD20800239D
:10B674009A4201D1002030BD01EB83056D888542DB
:10B6840002D00133F4E7034654F8330030BD00BF61
:10B694004C370300FC370300982A0020094B01397A
:10B6A40003EBC000032909D8DFE801F00A0204060D
:10B6B4000420704700797047407970470020704734
:10B6C400022070474C370300034B58681B68C31AA9
:10B6D40058425841704700BFB82C00202DE9F04370
:10B6E40087B0FFF7F1FF0746002840F0E6807B4D66
:10B6F400C5F81804BFF34F8F6868AC680DF11808DB
:10B7040048F8100D2040033005EB80004146FFF758
:10B71400B7FE029B064600285AD104EA0302991C8C
:10B72400013305EB8202234005EB8303D268DB6817
:10B73400049302F00303022B039202915AD1BDF841
:10B744000E306748C3F389194F46502FA8BF5027BE
:10B7540067F38F1307F10801ADF80E3001F050FFC5
:10B764008046002800F0B08001F07BFF082203A986
:10B774003346404601F088FF029924EA010201326F
:10B78400920097422FD9002A00F099802140D6B226
:10B794000331BF1B534C05EB8101FFB20823324632
:10B7A400404601F071FF34B106F108033A462146E0
:10B7B400404601F069FF029B09F1030903EB990379
:10B7C4000293D5F81834002B47D1D5F8104450E033
:10B7D4002A689A4204D86A60384607B0BDE8F08304
:10B7E40004EA03008FE70C40E11C08233A4605EB0A
:10B7F4008101DDE7012B67D1BDF80C303848C3F374
:10B804008311062928BF062161F3891302318900B7
:10B81400ADF80C3001F0F4FE8046002854D001F05D
:10B8240020FF3346082203A9404601F02DFFBDF84E
:10B834000C20C2F38312B31C96424FEA8303C0D296
:10B8440002994A1C21400331029205EB8101042232
:10B85400404601F019FF0136E9E7404601F005FFD3
:10B86400FFF732FF80F00100C7B2B5E7637A73BB1C
:10B874006468002CFAD1404601F0F7FE06A800F8EF
:10B88400114D01F041FAD5F818340BB9029B6B60E5
:10B894009DF8070001F05CFAE2E7236820469B6804
:10B8A40098476468002CF8D10F4B1049188800049D
:10B8B40040F0020000F074F8D2E700278CE7FEB2F3
:10B8C40014460849174669E7D5F81044EAE723689F
:10B8D40041461B6820469847CAE700BFB82C0020A1
:10B8E400FC370300C42C0020B02A002014390300C4
:10B8F4002DE9F74F284C80460F46924601A90122B4
:10B9040018469B46A568FFF7E7FD88B3DDF8049069
:10B91400002609F102025E4534D100211F4801F0DE
:10B92400D1FA80F3100009F101022A4004EB8202EB
:10B93400000405EA0903033340EA1840D06014F810
:10B94400232068F3C50204F8232034F8232066F387
:10B95400891224F8232054F82320012167F39F221D
:10B9640044F8232061F301026FF3820204F82320D8
:10B9740094F820341BB1FFF7B1FE0028FBD103B0CB
:10B98400BDE8F08F02EA050104EB81015AF8263084
:10B99400CB6001360132BEE7B82C0020D430002041
:10B9A40000231A46FFF7A4BF13B502AC012344F8E1
:10B9B400042D2246FFF79CFF02B010BD07B58DE8A9
:10B9C4000C0002236A46FFF793FF03B05DF804FB03
:10B9D4000F4A30B5D2F810440023214641B903720E
:10B9E400D2F810444CB9C2F810044160184630BD76
:10B9F4000D7A9D4205D04968F0E762684260606054
:10BA0400F4E701330A2BE8D14FF0FF33EEE700BF30
:10BA1400B82C0020084A38B50123D2F8104482F823
:10BA240020341D4604B938BD2368657220465B681E
:10BA340098476468F6E700BFB82C0020C38873B544
:10BA440004460D4633B1144A00921449144A284658
:10BA540001F0F8FA217A05291CD0637A4BB1A08849
:10BA6400FFF71CFE0F4B104953F82020284601F025
:10BA7400E9FA227A0D4BA08853F822600021FFF7DF
:10BA8400EFFD0B4903463246284602B0BDE870403C
:10BA940001F0D8BA02B070BD8F39030077390300C2
:10BAA4006F3903003C390300E8440300A039030064
:10BAB40094390300037A052B10B50C460FD0437A52
:10BAC40023B1084A0849204601F0BCFA0749204638
:10BAD40001F0B8FA2046BDE8104001F0A8BA002AE7
:10BAE400F8D0F3E78F390300E84403006941030009
:10BAF4002DE9F04385B01F460C9D002306460C46F5
:10BB0400904695F80C902B7329463846FFF796FF1C
:10BB1400B8F1060F09D8DFE808F00412181F28331B
:10BB240040003146284601F08DFA00222946384665
:10BB3400FFF7C0FF85F80C9005B0BDE8F0832268DC
:10BB44003146284601F07EFAEFE794E80C003146CE
:10BB5400284601F077FAE8E7A3680093314694E8B1
:10BB64000C00284601F06EFADFE7E3680193A3684E
:10BB74000093314694E80C00284601F063FAD4E7B8
:10BB840023690293E3680193A3680093314694E820
:10BB94000C00284601F056FAC7E76369039323694A
:10BBA4000293E3680193A3680093314694E80C0080
:10BBB400284601F047FAB8E708292DE9F84F8046EE
:10BBC4000E4617461C4636D8002593F80C901D7374
:10BBD40019461046FFF732FFDFF87CA0DFF87CB08F
:10BBE400AE422AD918F805205946204601F02AFA0F
:10BBF4000135082DF4D11649DFF864B0204601F070
:10BC040021FA0025AE421DD918F805A0504607F0C8
:10BC1400C0F8002814BF52462E225946204601F08F
:10BC240011FA0135082DEDD1012221463846FFF7DE
:10BC340041FF84F80C90BDE8F88F5146204601F08E
:10BC440001FAD5E70349204601F0FCF9E9E700BF12
:10BC54006A39030068390300663903006039030058
:10BC64006C3903001FB50021039001AA44F20100BE
:10BC74000191029100F004F805B05DF804FB0000A6
:10BC840010B572B6FFF7C6FEFFF728FD0028FBD1FA
:10BC9400104C11492088000440F00100FFF780FE99
:10BCA4000E4B1B68DB0700D500BE20880C4900043E
:10BCB40040F00200FFF774FEBFF34F8F09490A4BAF
:10BCC400CA6802F4E0621343CB60BFF34F8F00BF36
:10BCD400FDE700BFB02A0020FF390300F0ED00E0CB
:10BCE4000B3A030000ED00E00400FA0543681B680A
:10BCF40018470000024B5B6803B11847704700BF48
:10BD0400E030002010F0800F14BF034B034B00F011
:10BD14000F0003EBC0007047EC30002034310020EA
:10BD240008B5FFF7EFFF016009B9416008BD4B6832
:10BD34001B68436008BD0000024B01465A6818683E
:10BD4400104700BF3431002038B5831EDBB2062B08
:10BD540098BF194A194C98BFD25C2378A3F1020307
:10BD6400DBB288BF0022062B9ABF1349CB5C0023A9
:10BD74009342054603D0A2B1114803F06FFC022D93
:10BD840012D0082D10D000232278022A01D0082ACC
:10BD94000CD101229A4202D053B104F089FA2570E1
:10BDA40038BD03F095FCEAE70123EDE70022F1E753
:10BDB40004F074FAF3E700BF183A03009832002045
:10BDC400102B002073B5054601A9144800F0E9FFC3
:10BDD400044600B32B68036002A8002600F8056D32
:10BDE40000F092FF0E4B0F481B88026801339B1A28
:10BDF400E380314601F066F8A0809DF8030000F06E
:10BE0400A7FF01A9054800F0F6FF074B1B68014690
:10BE14000BB12846984702B070BD00BF182B002014
:10BE24007C31002094320020E030002037B50378C4
:10BE34000546DBB902A80F4C00F8013D00F064FF91
:10BE4400226812B90C4B6A881A800121094801F052
:10BE54006CF89DF8070000F07BFF084B1B6813B1DA
:10BE6400012128469847236803B030BDFFF7AAFF95
:10BE7400FAE700BF943200207C310020E03000203B
:10BE8400FFF7D4BF012806D002D3022805D070479B
:10BE94000348FFF7CBBF0348FBE70348F9E700BFBC
:10BEA400243A0300283A03002C3A03000148FFF720
:10BEB400BDBF00BF303A03002DE9F04F87B006AC98
:10BEC400002644F8106D05468946924698466B68EC
:10BED40000225F68294601232046B84740B98DF8FF
:10BEE4000600049004460746BE4203D805202AE013
:10BEF4000136ECE76B680DF10602D3F804B029466D
:10BF0400012304A8D8476B680DF10702D3F804B0E5
:10BF14002946012304A8D8479DF807304B459DF8CE
:10BF2400063015D1544511D1109A136088F80030A9
:10BF340088F801906A68023B5468294608F10202B5
:10BF440004A8A047002007B0BDE8F08F0134E4B294
:10BF54006A68023BD2F804B02946002204A8D847F4
:10BF64009DF806301F44BFE72DE9F3410823054639
:10BF74004FF484723049314800F000FF002858D152
:10BF84002F4804F0A5F9044600284ED12D4B187013
:10BF94002D4B18602D4B0146186048222C4806F0A2
:10BFA4006BFF482221462B4806F066FF2A4BDDB979
:10BFB4001D605D601D72002003F01CFC18B1852813
:10BFC40001D0FFF74FFE254D2F7A002205F1090617
:10BFD400541C9742E4B21DD912B202EB42029219E8
:10BFE40018D04FF0000808E095E8070083E8070040
:10BFF400E1E72946D05CFFF793FE53785FFA88F1B6
:10C004008B4205D993780B44DA4208F10108F0D148
:10C014002246DDE702A90B2301F8043D0F48FFF790
:10C0240065FE044608B104F00BF8204602B0BDE8F2
:10C03400F0810324F9E700BF7E310020182B002093
:10C0440085BE020098320020883200208C32002005
:10C05400EC30002034310020E03000205C3A030052
:10C0640010B504F0D9F808B9082010BD04F0DCF8C4
:10C0740004460028F8D1044803F0EAFB18B1FFF79E
:10C08400F1FD204610BD10BD203A030003F0E8BFC7
:10C0940004F0B0BC4FF08043D3F83824920702D5A3
:10C0A4000348FFF7C3BED3F83824D107F4D470474C
:10C0B400313A030007B502A8822300F8043DFFF7D4
:10C0C40081FE03B05DF804FB13B5012000F0FEFD12
:10C0D400044628B102A8842300F8043DFFF772FE49
:10C0E400204602B010BD0000F7B5017A032300F129
:10C0F400090203FB010104460931154691421FD090
:10C104009AB9237A571C9342FFB22BD912B202EB8D
:10C114004202AA1826D0002618E0D05CFFF7F2FDF0
:10C12400036801361BB1112027E057780026F3B2CB
:10C134009F4203D993783344DA42EED10332DDE7E8
:10C144000022DEE72146D05CFFF7EAFD5178F3B226
:10C15400994205D991780B44DA4206F10106F1D1EE
:10C164003A46CEE7074B1A684AB902A91C600B236A
:10C1740001F8043D2046FFF7B9FD03B0F0BD136894
:10C18400F1E700BF88320020044B1A6812B9186026
:10C194001046704713680433F7E700BF8C32002061
:10C1A400074B1A680AB905207047824205D1026814
:10C1B4000020516819605060704713680433F0E739
:10C1C4008C320020024A1378013313700020704728
:10C1D40090320020024A1378013B1370002070470C
:10C1E40090320020024B1878003018BF01207047AD
:10C1F4009032002000F00F03072B10B5044604D83A
:10C2040004F098F9204604F071F92046BDE8104086
:10C2140004F078BC014B1868704700BF88320020D6
:10C2240070B50A4B1B687BB11E7A0022D5B2B542A9
:10C2340001D31B68F6E7013202EB42041C44A479E3
:10C244008442F3D101B10D70184670BD88320020CC
:10C254001146FFF74BBD08B500F00F03082B07D8B4
:10C26400FFF750FD006818B1BDE80840FFF73EBD78
:10C27400102008BD38B5054B05461C6804B938BD07
:10C2840029462046FFF732FD2368F6E7883200206E
:10C2940038B5074B05461C680CB9062038BD29463D
:10C2A4002046FFF723FD0628F8D12368F3E700BFF3
:10C2B4008832002038B504460D4604F04CF848B1E5
:10C2C400054B1B78022B05D129462046BDE8384092
:10C2D40004F044B8082038BD9832002038B504462C
:10C2E4000D4604F038F848B1054B1B78022B05D1F4
:10C2F40029462046BDE8384004F0A4B8082038BDDB
:10C3040098320020F8B543689B6805460C461646EB
:10C314006BB9D6B92B7AA34219D9093504EB440475
:10C324002C446778F3B29F4205D80020F8BD9847A3
:10C334000628EED0F8BD62789A420AD9A219A378E9
:10C34400D05CFFF757FF0136ECE70720F8BD7378A0
:10C35400FFDE00231B78FBE74368DB6870B5054606
:10C364000C4603B198472B7AA34213D9093504EB41
:10C3740044042C4400256678EBB29E4200D870BD7C
:10C3840062789A4209D96219A378D05C04F088FBD8
:10C394000135F1E700235B78FFDE00231B78FBE720
:10C3A40043681B6903B118471846704770B5084BBA
:10C3B4001C6804B970BD267A0025E9B2B14201D3E4
:10C3C4002368F5E700222046FFF79CFF0135F4E7D8
:10C3D4008832002070B5084B1C6804B970BD267AF9
:10C3E4000025E9B2B14201D32368F5E72046FFF7FF
:10C3F400B3FF0135F5E700BF8832002038B5047873
:10C40400082C054600F0D6801ED8032C00F0AB8023
:10C4140012D8012C00F0978040F287800320FFF7A8
:10C4240093FC0220FFF766FC2846FFF723FF28460B
:10C43400BDE83840FFF780BC052CF9D0C0F09580EA
:10C44400062C00F0A18038BD802C48D008D80A2CD6
:10C4540000F0B080C0F0AA800F2C00F0AB8038BD93
:10C46400822C1ED004D3832C45D0842C4DD038BDCF
:10C474005248FFF761FC5148FFF7FCFE0D20FFF71F
:10C4840039FC4F4B1B6853B94E4B187A03F098FE96
:10C49400FFF7A0FF0120BDE83840FFF755BC01209D
:10C4A400F4E7FFF797FF04F089FA0020FFF74CFC4C
:10C4B4004548FFF7DFFE4448FFF73EFC0E20FFF738
:10C4C40019FC424B1B78023BDBB2062B74D8404A62
:10C4D400D35C002B70D0BDE8384003F0F9B83B4B77
:10C4E4001B78062B05D0072B01D0052B64D1022025
:10C4F400D1E70820CFE7354B1B78032B5CD104F040
:10C5040093FA002858D00420C5E7304B1B78032B3E
:10C5140005D104F089FA10B10420FFF715FC03F0EB
:10C524008DFE002848D00620B5E70020FFF7E2FB87
:10C53400234B1C6804B938BD20462946FFF7D6FBB7
:10C5440023685C68F6E7FFF745FF0220FFF7FCFB72
:10C554002046FFF7CFFB2846FFF7EEFB2846BDE851
:10C564003840FFF787BE0520F0E70320FFF7C2FB42
:10C574001848FFF7E1FB1748FFF77CFE134B1B78C5
:10C58400062BB4D1072086E78078FFF7BBFB29464A
:10C5940043680068984778B1A87800F00F03013B1E
:10C5A400062B09D8BDE8384003F094BF0920FFF7F3
:10C5B400A1FBD3E72046FAE738BD00BF323A0300B7
:10C5C4008C320020E0300020333A030098320020FF
:10C5D400183A0300343A030073B5234D0023019342
:10C5E4002B6823B92149224800F015FC28602C68E7
:10C5F400ECB1A68886B1E388B3F5006F24BF0023AD
:10C60400E380E388ADF806305A1C013EE280A68040
:10C6140001A8FFF7F3FE07E02046FFF7EFFE1349FA
:10C62400134800F023FC2E60012002B070BD114BB2
:10C6340018680028F9D002A800F8054D00F064FB42
:10C644000D4B0C481A88B2F5006F28BF1C801A885D
:10C65400ADF80620511C1980012100F080FC9DF8E2
:10C66400030000F075FBD3E79C320020DC3000208F
:10C67400182B0020943200207C31002000207047C9
:10C684002DE9F04F4B6887B081460C4602925BB9A6
:10C694000B681B681B683BB98D682DB90560456044
:10C6A400284607B0BDE8F08F03F010FFE768029B4F
:10C6B4009F4228BF1F464FF0000804F11003834631
:10C6C4000197464601250393019B63B3A368DDF8F4
:10C6D40004A061689A4528BF9A4649B352460BEBB9
:10C6E400060006F09FFB00236360A268E3680199DB
:10C6F400A2EB0A02A3EB0A03A1EB0A01A260E36026
:10C704000191564412BBB8F1000F03D0226812689D
:10C7140012682260E3B12368E3B963601EB1029B2F
:10C72400B34288BF0025C9F800B0C9F80460B7E770
:10C73400002BDAD0216803984B680BEB0602D3F880
:10C7440004805346C0474FF00108CEE7002BBBD10D
:10C754000025B9E70DF1180A00234AF8083D2168BD
:10C764004B685B6800221F4650460123B84708B94E
:10C774002061A9E7A3680133A360F0E7084B1A78A6
:10C7840082420CD0052818BF064A187018BF1378C7
:10C7940005481CBF23F002031370FFF72FBE704738
:10C7A400A8320020C43200206C3A030038B5054694
:10C7B4000C4603F03BFFA84201BF94E80300034B7F
:10C7C40083E80300002018BF102038BDC8320020C1
:10C7D4007FB5C38893421D4628BF154693420E4633
:10C7E400144624D9802003F0B1FDB4FBF0F303FB1D
:10C7F4001040B0FA80F04009039004A8002300F828
:10C804000D3D0196029500F07FFA01A98020FFF703
:10C8140051FD044620B907498020FFF7C7FF0446AD
:10C824009DF8030000F094FA204604B070BD002087
:10C83400E2E700BFA03A03002DE9F04F0B78013B7B
:10C8440087B00E460D2B12D8DFE813F00E00170048
:10C85400130011002400FA0111001100110011004D
:10C864001700E701EB01F8010320FFF787FF062417
:10C8740004E0B84800F085FB20B90024204607B046
:10C88400BDE8F08FB44B01221A60BFF36F8FBFF382
:10C894004F8FF2E705230DF10D00B04D8DF80C30EC
:10C8A40003F058FE00232B609DF80D3003F01F02A7
:10C8B400032A00F27981DFE812F004000601630123
:10C8C4007300C3F34116002E6AD1DB099DF80E10E4
:10C8D40000F09980062917D0082900F087800029E4
:10C8E4005ED19F4C0222204606F0C6FA237843F01C
:10C8F400010222709B4A1278900744BF43F003035D
:10C9040023700222964909E09DF81030022B0BD0C7
:10C91400032B60D0012B43D1934912220DF10D005A
:10C92400FFF756FF044638E0BDF81370092F28BFFF
:10C934000927FFF76FFC4FF009080446B1469CBB7A
:10C94400874C8A493A46204606F06CFA2671A4F8C8
:10C954000280FFF747FC18B1E37943F02003E37149
:10C96400FFF758FC824B83E89100BDF81320DA608E
:10C9740001A800238DF8043000F0C6F97D49802019
:10C98400FFF7ACFC044620B97B498020FFF70EFF7B
:10C9940004469DF8040000F0DBF9062C40F00C81FD
:10C9A40003A8FFF775FCD0E0CDF804904FF0000A1F
:10C9B40063680022D3F804B02146012301A8D847B4
:10C9C40030B9237A1E442368D044F6B21C68B6E713
:10C9D4000AF1010AECE7BDF811109DF80F0000F010
:10C9E4007FF901460028DBD0027897E7634A127882
:10C9F400052A03D15A4A1370012283E7042ACFD1AE
:10CA0400574B1E70F8E701390829C9D801A353F818
:10CA140021F000BF8FCA0200A5C9020055CA020056
:10CA2400A5C902003DCA0200A5C90200A5C90200A9
:10CA3400A5C90200A9CA0200504B1B78033B022B74
:10CA440000F2E980FFF7C6FC0420FFF797FE0FE031
:10CA5400BDF80F30012BA3D1FFF7C4FB18B90F2485
:10CA640003F0E1FD0AE73F4A137843F00203137031
:10CA74002C68002C00F00D8103F0D8FD044600283A
:10CA84007FF4FBAE03F08CFDF8E6BDF80F30012B0C
:10CA940086D1FFF7A7FB0028E1D0324A137823F0B0
:10CAA4000203E4E7354B1B78043B012B00F2B3800F
:10CAB4009DF80F30002BC5D0012B40F0EF80FFF71D
:10CAC40075FC0520C1E701A99DF81100FFF7A8FB3B
:10CAD400074600283BD003AA9DF80410FFF7B8FBD3
:10CAE4000628044668D19DF80D2012F0600FB7D1D6
:10CAF400224B9DF8041018789DF80E30D60916D0F4
:10CB04007BB10A2BACD1052840F085803846FFF76D
:10CB140047FC1349324608700DF10D00FFF758FE2B
:10CB240013E0052877D10E490B800222F4E70B2B82
:10CB340096D105286FD1BDF80F30FF2B00F2AE80DF
:10CB44009DF80F203846FFF7DDFB044634E010243F
:10CB540086E700BFD03200205C700240C83200205B
:10CB6400D4320020C43200208C3A03006D3A030012
:10CB7400AC320020B83A0300A03A0300A8320020E7
:10CB84009DF81100010711D19DF80D3013F0600FCD
:10CB94000AD19DF80E20424B9DF811401B78012AC2
:10CBA40027D00DD3032A15D0062459E703A9FFF78C
:10CBB40052FB06280446E7D0002C3FF459AF4FE758
:10CBC400052B01D0220726D1204603F099FC3549D4
:10CBD4000880AAE704F00F02072AE5D8BDF80F1071
:10CBE4000029E1D1052B00D0AAB9204603F072FC3C
:10CBF4003EE704F00F02072AD6D8BDF80F1000292B
:10CC0400D2D1052B00D032B9204603F093FC204644
:10CC140003F06CFC2CE7082422E70020FFF7AEFDAC
:10CC24002BE64FF08043D3F8384414F0010401D0CC
:10CC34000220F3E70120FFF7A1FD1FE60120EDE745
:10CC4400C87803283FF413AE174D2B6823B3002292
:10CC54002A6069689847044600287FF401AF2B686E
:10CC640023B1B378002B7FF408AE0BE70F4B1B788E
:10CC7400082B0ED10E4B1B681B070AD10D4B1B68EA
:10CC840013F0F00F05D10C4B1B6813F0F00F3FF4B9
:10CC9400F4AD03F0C5FCF1E50E24E1E60724DFE67C
:10CCA400A8320020D4320020C8320020E00F00F067
:10CCB400E40F00F0E80F00F0EC0F00F008B140239F
:10CCC40003600148704700BFD4320020034B1B7837
:10CCD40043FA00F000F00100704700BFC4320020A6
:10CCE40040B1042808D8054B185C30B1044B53F804
:10CCF400200070470348704700207047303B030012
:10CD04001C3B0300C03A030070B5EFF3108672B603
:10CD14000C4A946801239CB993600B4B0B4DD3F8D8
:10CD2400801029401160C3F88050D3F884105160FA
:10CD34004FF0FF32C3F88420047006B962B670BDA8
:10CD44000370FAE73033002000E100E0FC06FFBD89
:10CD5400084B9A6810B55AB150B9EFF3108272B605
:10CD640005491C680C605C684C60986002B962B646
:10CD740010BD00BF3033002000E100E010B561B108
:10CD8400B2FBF3F403FB1424A4B244B980E8120008
:10CD940084608281C381204610BD0E2010BD09200D
:10CDA40010BD37B550E8013F9DB2C489254484893C
:10CDB400A54228BF2D1B0489A54202BFBFF32F8FB4
:10CDC400002207E0C5EA030540E80154002CE9D13C
:10CDD4004FF001028DF803200193019B9DF803207D
:10CDE4000B6002F0FF0322B10B880068184403B003
:10CDF40030BD1846FBE70A884B889A4209D150E8AF
:10CE0400012FC2EA024240E80123002BF7D101209E
:10CE140070470020704737B550E8023F1FFAA3F56A
:10CE2400C488A54202BFBFF32F8F00220DE0C4893E
:10CE340025448489A54228BF2D1BC3EA054540E843
:10CE44000254002CE8D14FF001028DF80320019325
:10CE5400019B9DF803200B6002F0FF0322B14B8875
:10CE64000068184403B030BD1846FBE70A884B88B5
:10CE74009A4209D150E8022FC2EA224240E8022332
:10CE8400002BF7D1012070470020704701F01F02EA
:10CE94004B090121914000EB830000F01FB801F021
:10CEA4001F0301229A404B0900EB8300D14300F099
:10CEB4002FB84B0901F01F0150F82300C84000F0BF
:10CEC4000100704700B550E8002F0B4640E8003ED3
:10CED4009EF0000FF7D110465DF804FB00B550E852
:10CEE400003F43EA010240E8002E9EF0000FF6D115
:10CEF40010465DF804FB00B550E8002F02EA010378
:10CF040040E8003E9EF0000FF6D110465DF804FBA9
:10CF140000B550E8003F03EA010240E8002E9EF00D
:10CF2400000FF6D110465DF804FB00B550E8003F51
:10CF340003EB010240E8002E9EF0000FF6D11046EC
:10CF44005DF804FB00B550E8003FA3EB010240E8A4
:10CF5400002E9EF0000FF6D110465DF804FB00B5DC
:10CF640050E8003F8B422CBF5A1A1A4640E8002E64
:10CF74009EF0000FF4D110465DF804FB0121FFF789
:10CF8400ADBF0021FFF7B7BF10B590B14268836809
:10CF940001689B1ADBB20A60013BDBB2FF2B02681B
:10CFA40002D10020107110BD11684C1C14600B706C
:10CFB400F2E70E2010BD37B5054602A8002400F89C
:10CFC400014DFFF7A1FE2A686B68116899420ED9DA
:10CFD400481E106011F8014CEB68A98A01FB043467
:10CFE400AB6811791B1ADBB2994238BF13719DF8F3
:10CFF4000700FFF7ADFE204603B030BD37B5054648
:10D0040002A8002300F8013D0C46FFF77DFE2A68C4
:10D014001368591C1160E968641AA98AB4FBF1F415
:10D024001C709DF80700FFF793FE03B030BD8268C3
:10D0340010B504462AB14369016800699847002382
:10D04400A36010BD0EB403B5039929B102AA04ABC1
:10D0540042F8043D00F06CF802B05DF804EB03B054
:10D064007047826830B40468551C8560A154826896
:10D0740043689A4202D330BCFFF7D9BF30BC704733
:10D084002DE9F84F0A9C99460B9B17468246884621
:10D094000A460126BA420FD24E4538BF4E4613F017
:10D0A400010B01D164B900240125B9F1010F1AD98A
:10D0B40009F1FF397D43F8E7B2FBF7F20136E9E7FE
:10D0C4009B070ED5B9F1000F0CBF30252025A642D1
:10D0D400EAD2013C29465046FFF7C3FF002CF6D1A3
:10D0E400E1E72025F3E7B8FBF5F39F42E2D9DFF847
:10D0F4003C90B8FBF5F3504619F8031005FB138870
:10D10400FFF7AFFFB5FBF7F5002DF2D1BBF1000F30
:10D114000AD03CB9BDE8F88F013C20215046FFF706
:10D12400A0FF0CB1A642F7D3BDE8F88F353B03004E
:10D134002DE9F74F054617460C46002900F03581C6
:10D1440014F8011B49B92B7B002B00F02E812846D3
:10D1540003B0BDE8F04FFFF76ABF252940F02181F5
:10D1640023460026194611F8012B2D2A24D0302AF3
:10D1740026D02B2A27D000242A2A994603F101011C
:10D1840024D13B681A1D1B683A601C44894699F8EF
:10D1940000302E2B25D109F101014FF000088946FA
:10D1A40011F8012BA2F1300009281CD80A2303FB33
:10D1B4000823A3F13008F2E746F001060B46D1E755
:10D1C40046F00206FAE746F00406F7E71A780B463B
:10D1D400A2F130010929DAD80A2101FB0424303CE8
:10D1E400CAE74FF0000899F8001001F0FB02682A22
:10D1F40002D119F8011FF8E769290FD04BD8582933
:10D2040065D007D825296ED009F101042378002BB5
:10D2140096D198E7632962D06429F5D13A68D2F8A7
:10D2240000A0111D8AEAEA723960A2EBEA724FF09B
:10D23400010B092A5BDCC34538BFC3462CB1BAF1E4
:10D24400000F01DB710700D5013CB20702D5B8F12C
:10D25400000F04D0F30702D4002C4ED10024BAF1FD
:10D26400000F52DACAF1000A2D212846FFF7F9FE11
:10D2740006F00302022A05D1B8F1000F02D1002CF6
:10D2840047D100248DE8500043460A2251462846DF
:10D29400FFF7F6FEB8E773294CD014D87029B3D140
:10D2A4003B681A1D3A60302128461C68FFF7D9FEF6
:10D2B40078212846FFF7D5FE002301930823009325
:10D2C40010222146E3E775292BD078299CD13968AF
:10D2D4000A1D3A6043468DE85000102228E03B685E
:10D2E4001A1D19783A602846FFF7BBFE8CE70A231B
:10D2F4000BF1010B92FBF3F29BE7A345AFD2202184
:10D304002846013CFFF7ADFEA6E77007B0D52B21F8
:10D31400ABE7A345B6D230212846013CFFF7A1FE76
:10D32400ADE739680A1D3A608DE8500043460A2289
:10D334000968ACE73B681A1D3A60F107D3F800A00E
:10D3440012D55646A6EB0A0B16F8011B41B95C45EB
:10D354007FF65AAF20212846013CFFF782FEF6E70C
:10D364002846FFF77EFEEDE7BAF1000F11D05046D4
:10D3740005F000FE0646B44200D964B90AF1FF3A4A
:10D384001AF8011F00293FF43FAF2846FFF769FE52
:10D39400F6E75646EFE720212846013CFFF761FEF9
:10D3A400E9E72846FFF75DFE30E703B0BDE8F08FFC
:10D3B40070B508B10368B3B90D4D0E4B14225B1B55
:10D3C4000024B3FBF2F302FB03F6A64201D10020D2
:10D3D40070BD2B5928190BB91434F6E7DB6998474B
:10D3E4000028F9D070BDDB69BDE87040184700BF64
:10D3F400F02A0020F02A002029DF704728DF704738
:10D4040070B503689D6886B004460E466DB1182257
:10D414000021684605F030FDA36805932379019641
:10D424002BB1012B0DD06846A84706B070BD01236F
:10D434008DF8003023690293E368039363690493CE
:10D44400F1E702238DF80030E3681B030293F5E74C
:10D45400034B187A0122B0FA80F05A7440097047DD
:10D464003C33002070B5244D244E2B7A2C463BB916
:10D4740023492448FFF7CFFC306008B9686070BDC9
:10D484000223237233681A7972B1012A24D0184610
:10D494000321FFF7B5FF002323726360184919487D
:10D4A400BDE87040FFF7E2BC98695A69D9681D6904
:10D4B400121AB2F5805F28BF4FF480529208012AF5
:10D4C400014438BF01222844FFF796FF50B11128C8
:10D4D400DDD10123237270BDD8681A691044FFF7A7
:10D4E4008DFFF3E7237C2BB90146BDE87040022091
:10D4F40000F00AB870BD00BF3C3300205433002054
:10D50400503300202C2B002038B5831E012B45D826
:10D51400234C237A002B41D0022B09D1032830D08D
:10D52400204B1B680022E2601A793AB1012A22D00A
:10D53400637C7BBBBDE83840FFF794BF9A695969A7
:10D544008D1AB5F5805F94BF521902F580529A6125
:10D554009142EDD102284FF0000308BF194623720F
:10D56400104B18BF0D211868FFF74AFF0E490F48EA
:10D57400FFF77CFCDCE71A6901321A615B699A42A5
:10D58400E7E7E3680133082B01D8E360D0E7002321
:10D59400E360DFE7BDE8384005F084BA38BD00BF7A
:10D5A4003C33002054330020503300202C2B002027
:10D5B40000F0FD03012B08D1044B00225A74421ED3
:10D5C400504250411874FFF74DBF70473C33002060
:10D5D400FFF7DABCF8B546790446721E002393427D
:10D5E400246804D301460025B54202D3F8BD0133B3
:10D5F400F5E70F682046FFF701FD01353946F3E7EB
:10D604002DE9F843878ACD1C8046FFF7D4FC043FFC
:10D614003D440446B5FBF7F5002650B10123EDB2B5
:10D6240006714371C780013DC0F800808146AE4257
:10D6340002D32046BDE8F8834046FFF7BCFC07460A
:10D6440048B16379013363710136C9F80000C0F849
:10D6540000808146EBE72046FFF7BCFF3846BDE873
:10D66400F88301210430FFF760BC10B501210446A2
:10D674000430FFF767FC10F0FF0F04D12046BDE82B
:10D684001040FFF7A7BF10BD2DE9F843C688043347
:10D694000F46B3FBF6F4154606FB143380463CB93B
:10D6A400A6EB0309A94528BFA9462DB9BDE8F8830F
:10D6B400D8F80080013CF2E7043308EB0300A5EB43
:10D6C40009054A46391905F0ADFBAE424C44D8F879
:10D6D4000080B1464FF0000328BFA946E5E72DE9D5
:10D6E400F843C6880F46191D1546B1FBF6F480466B
:10D6F40006FB14113CB9A6EB0109A94528BFA946AC
:10D704002DB9BDE8F883D8F80080013CF2E7043174
:10D714004144A5EB09054A46381905F083FBAE429E
:10D724004C44D8F80080B1464FF0000128BFA94608
:10D73400E6E70B684A684360934208BF0023016030
:10D7440008BF43607047436843B1026891685268F8
:10D754000B449342436004BF0023436070470000BE
:10D764000D4930B5A1F594720225914201D80020EB
:10D7740030BD8B1ADB1093FBF5F302EBC30452F8B4
:10D784003330834205D802D204F10802EDE7606821
:10D7940030BD2146E9E700BFA43C030008B5FFF70C
:10D7A400DFFF024B002808BF184608BD693B030091
:10D7B400094A537891780133DBB2994208BF0023B8
:10D7C400117899421FBF03705078182303FB00207F
:10D7D40014BF0430002070475833002073B5054649
:10D7E40002A8002400F8014D0E46FFF78DFA0DF152
:10D7F4000600FFF7DDFF90B106700A4B9DF8062086
:10D8040045605A709DF80700FFF7A2FA24B9064B49
:10D814004FF48012C3F80021204602B070BD0424E6
:10D82400F0E700BF5833002000E100E0024B4FF462
:10D834003C6043F0010318476040030038B50C4BCB
:10D844000C4C4FF40032C3F8802001254FF4803390
:10D85400C4F84833C4F808336560FFF7E7FF064BA4
:10D86400A56000241C60FFF7E1FF044B1C7038BD69
:10D8740000E100E000100140743400206534002011
:10D88400F8B51F4B1F491B680025C1F84051C1F86A
:10D894004451C1F84851C1F84C51C1F80051C1F884
:10D8A40004514BB3D1F8044517490968641A24F0AC
:10D8B4007F442F461A68A24209D8A41A15441A7C38
:10D8C400DE691AB11F745A6998699047AEB90F4B53
:10D8D4000F4A197813788B4205D10133DBB2022B3E
:10D8E40008BF0023137012780A4B43F822500A4BE6
:10D8F4004FF48012C3F80021F8BD3346DAE700BFC5
:10D90400783400200010014074340020703400206A
:10D91400713400206834002000E100E02DE9F74F65
:10D924009C4A9D49137809789C4E994257D00133FB
:10D93400DBB2022B08BF0023137099491278994B6C
:10D944000F6853F822003B1823F07F4300220B603A
:10D95400336815461446964613B942B1336006E05F
:10D964001968814229D902B13360091A19604FF04C
:10D97400010833688C4FDFF83CB200934FF0000984
:10D98400002D61D02C46ED69854B60681A68831AB6
:10D9940023F07F41854B9942A36800F2B7800B4482
:10D9A400236000236360A360E3613368012222746F
:10D9B400002B40F0B3803460E2E7401A0C44D9688D
:10D9C400C3F800E0D3F81CC031B13A1922F07F4209
:10D9D400DD615A6099601D4663460122BCE700255B
:10D9E400A846C6E7531CB978DBB299423B704FF0A6
:10D9F400180303FB027208BF3D7013799468022B6D
:10DA04001BD0032B11D0012B1ED1217CE1B9D3688B
:10DA140063601369A3605369E3609369A361644B12
:10DA24001B78002BB0D06160AEE7002335681A463E
:10DA3400002D67D143B1356006E032681346924643
:10DA4400002B5AD1002323743A787B789342C9D1AE
:10DA5400B9F1000F06D13368009A9A4202D1B8F1A5
:10DA6400000F44D03368002B73D0D3F800A0514D7D
:10DA74004B4BD5F804751C68DFF840813E1B98F8C1
:10DA8400003026F07F4603369BB94FF48033C5F847
:10DA94004433C5F80433484B4FF400324FF00109C6
:10DAA400C3F880211A60C5F80090FFF7BFFE88F81C
:10DAB4000090B2452CBF5444A41924F07F44C5F807
:10DAC4004045D5F80435DB1B23F07F43E41B0333C7
:10DAD40024F07F44A3420AD9D5F80435C5F840356B
:10DAE400FFF7A4FE344B4FF40032C3F80021304B4F
:10DAF40000221A7003B0BDE8F08F9C422CD09A46E5
:10DB0400DB699DE72A740123ED6991E7121A22F07B
:10DB14007F429A4234BF9B1A002341E72268196866
:10DB24008A420BD88A1A1A60E36144E7521AD96907
:10DB3400184661B92260E161DC6121E71846196881
:10DB44009142F3D3891A196019460346F2E70B464A
:10DB5400F5E7FFF773FECAE754450DD1D369336087
:10DB640053B90F4801920121CBF808100360104B00
:10DB74001970FFF75BFE019AE1692368CAF81C106B
:10DB840011B1086803440B6033689A4218BF4FF020
:10DB9400010957E7703400207134002078340020E4
:10DBA400743400206834002058330020FEFF7F00C6
:10DBB400643400200010014000E100E065340020DE
:10DBC4002DE9F7431E4FBB7805460E469046ABB38E
:10DBD400A0B3042930D9436983B3437C02A8002449
:10DBE400012B00F8014D0CBF8946A146FFF78CF8C4
:10DBF4000DF10600FFF7DCFDE0B101230370114BCA
:10DC04004560D3F8043583609DF80630C660C0F8DB
:10DC14001090C0F814807B709DF80700FFF798F807
:10DC240024B9094B4FF48012C3F80021204603B0F5
:10DC3400BDE8F0830424EFE70724F7E70824F5E7B9
:10DC4400583300200010014000E100E0064A9278B9
:10DC54003AB130B1426922B1002202740221FFF7C5
:10DC6400BDBD0820704700BF583300202DE9F047A0
:10DC74001C461B7886B00646884615460E2B3FD8B0
:10DC8400DFE813F00F001E00D800DD003E00340072
:10DC9400B8003E003E003E003E00E300F5000801EF
:10DCA4000A012A7A0AB9002415E061889200B1FBBE
:10DCB400F2F302FB13139BB2002BF4D16C682CB16A
:10DCC4006FF008012846FFF723F9ECE72B685A07A1
:10DCD40005D5FEF7F9F9204606B0BDE8F0872B68B4
:10DCE4001B07E0D4D8F814309B68A0E06378DA0905
:10DCF4004FEA53175BD017F0030703D0012F3DD031
:10DD04000624E8E703F01F03012BF9D1A378062BBF
:10DD1400F6D103A80297FEF7D1FF02ABE27821798E
:10DD24000093054603463046FEF7C6F8052806D09C
:10DD3400029A2946601CFEF74BFD0446CBE70DF121
:10DD4400180949F8087DD8F81430E2780092D3F81D
:10DD540010A00022012331464846D04760B9D8F8C4
:10DD64001430E2780092D3F810802A463B463146BC
:10DD74004846C0473A46DCE70137E4E7A378022B7C
:10DD84000DD0032B0FD0012BBAD12379013B012BEA
:10DD9400B6D84B691B68214630469847CDE73A46CA
:10DDA40005F10801C6E73A4605F10901C2E7012F6A
:10DDB400A6D1A3780A2B0CD00B2B0DD0092B9FD105
:10DDC4002379022B9CD14B691A68002A98D05B688E
:10DDD400E1E723792B7266E7B4F80310C9B26972DC
:10DDE400D8F81830003118BF0121002B3FF45BAF85
:10DDF400984758E794F90230002B0ADAE3781BB904
:10DE04008B690BB1032198476B68002B3FF46AAF11
:10DE140056E74B69DB68002B3FF472AFE3781BB91C
:10DE24008B690BB102219847D8F81430DB6830466F
:10DE3400984782E704212846FFF750F833E76FF04C
:10DE440004012846FFF764F84CE7FEF79DF9044601
:10DE540000287FF440AF3046FEF7B4F904460028AA
:10DE64007FF439AF01212846FFF738F833E7FEF78E
:10DE740097F9044600287FF42EAF3046FEF7AAF93E
:10DE8400044600287FF427AF6FF001012846FFF70E
:10DE94003FF820E70221CEE76FF0020112E7C068E5
:10DEA40070470000F0B5BE4D0C7A2C700468B4F5D0
:10DEB400D47F00F09B8165D840F29F16B44200F0F5
:10DEC4004881B4F5D07F2CD240F29716B44200F0CA
:10DED4000881B4F5CC7F0AD2002C00F0E380B4F5BD
:10DEE400CB7F00F0F280002303601846F0BD40F2BF
:10DEF4009D16B44200F01381B4F5CF7F80F01D81EC
:10DF040040F29B16B442EED100240AB106791655AC
:10DF140001340026A342067100F2028140F29D13EF
:10DF2400D0E0B4F5D17F00F02D8114D8B4F5D07FC2
:10DF340000F01B8140F2A116B442D4D100240AB1EE
:10DF44000679165501340026A342067100F21B819E
:10DF54004FF4D173B6E0B4F5D37F00F02F8100F213
:10DF6400398140F2A516B442BDD100240AB1067924
:10DF7400165501342126A342067100F220814FF484
:10DF8400D3739FE040F2C116B44200F08381B4F52C
:10DF9400E17F54D240F2B316B44200F04A81B4F5A2
:10DFA400DA7F30D240F2A916B44200F02B81B4F5E6
:10DFB400D57F98D100240AB106791655794E4F6958
:10DFC4003770794E002701343770774EDFF8D4E18B
:10DFD40037789EF800E0BE4500F22181734F3F6818
:10DFE40097F801E0724F87F800E0002737706E4E13
:10DFF40037786F4E3678B742C0F039816D4F3E782E
:10E0040001363E7050E040F2B716B44200F025816C
:10E01400B4F5E07F00F03281B4F5DB7F7FF463AFC9
:10E0240000240AB106791655634E36880134360A3F
:10E03400A342067100F2128140F2B71342E0B4F534
:10E04400E57F08D013D8B4F5E37F00F04081B4F540
:10E05400E47F7FF448AF00240AB1067916550134F1
:10E064004026A342067111D840F2CD132AE0B4F53C
:10E07400E77F00F0478140F2CF16B44200F04E81B2
:10E0840040F2CD16B4427FF42EAF00240AB10679D3
:10E09400165501340026A342067100F234814FF470
:10E0A400E7730FE0434E3470424E37782E78B74210
:10E0B40002D340F2E51305E00926A342067105D810
:10E0C4004FF4CB7303600120F0BD00240AB106793C
:10E0D400165501340426A342067103D840F297135F
:10E0E400F0E700240AB106791655324E0F7A3678D5
:10E0F400DFF8B8E0B74204F1010440F2198101F1FC
:10E10400090706EB460607EB060CA342BE5DCEF8F4
:10E1140000C006713FF6F9AE40F29B13D2E700242B
:10E124000AB106791655214E36680134767806719F
:10E13400A34203D84FF4CF73C4E700240AB106798D
:10E14400165501340326A342067103D840F29F13E7
:10E15400B8E700240AB10679165501340E7E06711B
:10E16400A34203D84FF4D073ACE700240AB1067974
:10E17400165501344E7E0671A3423FF6E0AE40F2DE
:10E18400A1139FE700240AB1067916550134092624
:10E19400A34206713FF6EAAE40F2A51392E700BF30
:10E1A400863400207C340020873400208C34002006
:10E1B40084340020853400207E34002000240AB1F9
:10E1C4000679165501341126A342067103D840F28C
:10E1D400A71377E700240AB10679165501340126FE
:10E1E400A342067103D84FF4D4736BE700240AB139
:10E1F4000679165501340026A342067103D840F26D
:10E20400A9135FE700240AB10679165501344E6953
:10E214000671A3423FF6CFAE4FF4D57352E70E69B1
:10E2240056F82760A3423679067103D840F2B31337
:10E2340048E700240AB106791655404E37780E692E
:10E2440056F827603E4F36683E800134A34206717B
:10E254003FF6E7AE4FF4DB7334E700240AB10679E6
:10E264001655364F3E78013601343E70ADE607262A
:10E27400A342067103D84FF4E07323E700240AB1E4
:10E284000679165501340526A342067103D840F2D7
:10E29400C11317E700240AB106791655294EDFF891
:10E2A400A8E03768254E96F800C07E78664504F1EC
:10E2B40001043DD9BE78664407EB060CA342BE5D5B
:10E2C400CEF800C0067103D84FF4E373FAE60024D5
:10E2D4000AB1067916551C4E36683678802E04F13C
:10E2E400010407D90326A34206713FF6B5AE4FF4E5
:10E2F400E473E7E60026A34206713FF6ADAE4FF4A1
:10E30400E573DFE600240AB10679165501340126C7
:10E31400A342067103D840F2CF13D3E600240AB116
:10E3240006791655054F3E78013601343E705EE697
:10E334000023CEF800301B78FFDE00BF87340020B6
:10E344007E3400208C3400208834002030B5036AE9
:10E35400C9781A6887B011701A685B68054606A800
:10E3640000240132013B00F8154D039204930594F7
:10E37400FEF7CAFC204603A9FDF79CFF044630B90A
:10E38400064B019301A90295FEF710FA04469DF885
:10E394000300FEF7DDFC204607B030BDD9E30200E0
:10E3A4000A79012A0B4604D1C16906C9581CFEF733
:10E3B4000FBA022A01D1016AF7E70620704710B4A8
:10E3C40004460B4654F8102B214608325DF8044BE2
:10E3D400FFF74CBC10B50B46044628B98A6A1846A8
:10E3E40002219047204610BD032010BD1FB5027ABC
:10E3F4000346A2B1817A012900F1090211D9C17A37
:10E404001B6A0A4401A950781A685B6802930023C6
:10E4140001920393FDF74EFF05B05DF804FB5378BA
:10E42400FFDE00231B78FBE72DE9FF41037A056833
:10E434000446002B3AD0837A00F10902002B37D02E
:10E44400C37A08356FF00801284612F80380FEF7F6
:10E454005FFDE06A00F082F9064628BB04F1100073
:10E46400FFF71DFD324601460746E06A00F07DF9DC
:10E4740004A83B68019300F80D6D7B680293039632
:10E48400FEF742FC01A94046FDF714FF044618B903
:10E4940008212846FEF722FD9DF80300FEF758FCEC
:10E4A400204604B0BDE8F0810024F9E75B78FFDE84
:10E4B4001B78FCE738B504460568C06A00F04EF9DD
:10E4C40020B92046BDE83840FFF7AEBF6FF0080121
:10E4D40005F10800FEF71CFD002038BDF0B5046806
:10E4E4009DF814603CB1B4F5FE7F4FF0000420D0D9
:10E4F40004602046F0BD0D6955F826502F68114D73
:10E504002F60114D2C60104D0E4F2D683F68BD4299
:10E5140002D340F2FF1309E00F6957F82670BF6871
:10E52400A3427D5D057104D84FF4FE73036001209E
:10E53400F0BD0AB105791555034F3D680135013425
:10E544003D60E0E7903400208034002073B5054638
:10E554000668C06A8DE80600694600F031F8044692
:10E5640078B9B3685A0704D5FDF7AEFD204602B06A
:10E5740070BDB3681B07F9D42846FFF755FF04465E
:10E58400F4E71124F2E7036A5A680A6018687047CE
:10E59400026813685268934291BFD01A80680130B0
:10E5A400801888BFC01A7047036881681A685B685E
:10E5B4008B4234BF01330023D31A58425841704769
:10E5C400F7B5044602A8002300F8013D0D46FEF706
:10E5D4009BFB2046FFF7E8FF10B1237C002B3CD1C6
:10E5E4002268A66853685168B14234BF01310021E2
:10E5F400516030B11168A068814234BF01310021FB
:10E604001160E2686068511E072920D8DFE801F034
:10E6140004101F141F1F1F182A78C2542046FFF726
:10E62400B7FF23689A68904200D99860002415E0E7
:10E634002A8820F81320F1E72A6840F82320EDE720
:10E64400D5E9006700EBC300C0E90067E6E72946A7
:10E6540002FB030004F0E6FBE0E704249DF8070056
:10E66400FEF776FB204603B0F0BD13B5044602A8BE
:10E67400002300F8013DFEF747FB2046FFF788FF23
:10E6840004469DF80700FEF763FB204602B010BD68
:10E694002DE9F04F8368D3F83C319B078BB00646D5
:10E6A40006D5002211460BB0BDE8F04F00F0D8BAF1
:10E6B400012906D9234A02210BB0BDE8F04F00F02E
:10E6C40099BA214C214D224FDFF88880DFF88890D9
:10E6D4001C232D1BB5FBF3F503FB0545AC4202D10E
:10E6E4000BB0BDE8F08FE36809932368D4F808A061
:10E6F400D3F808B02046FFF7B8FF94F810E0029072
:10E70400642303FB00F1BEF1000F0CBF3A464246FE
:10E7140003FB0BF3B3FBFAF30493099BB1FBFAF18C
:10E72400079201910093CDF818A06369CDF814B055
:10E73400CDF80CA04A460821304600F05BFA1C34A0
:10E74400CCE700BFDD400300443803006038030019
:10E75400C8400300D1400300F04003000368186878
:10E764005B68C31A58425841704773B5054602A8FE
:10E77400002300F8013D0C461646FEF7C5FA28466C
:10E78400FFF7ECFF002832D129680B682EB90A681C
:10E79400A868824238BF561C0E60EA686968501E39
:10E7A40007281ED8DFE800F0040E1D121D1D1D16DB
:10E7B400CB5C237000249DF80700FEF7C9FA2046BD
:10E7C40002B070BD31F813302380F3E751F82330E1
:10E7D4002360EFE701EBC301D1E90023C4E900237F
:10E7E400E8E702FB0311204604F01CFBE2E70524E2
:10E7F400E1E7036898687047036800229A607047ED
:10E8040008B104F0B7BB70472DE9F843089C1E46D5
:10E814000F46E1B9194C1A4D2D1BED08954204D948
:10E82400184800EB8208AF4201D100230AE0636874
:10E83400D8F80000196804F075FBA146083420B923
:10E84400D9F804303360BDE8F8830137EBE70028DA
:10E85400EBD003784BB143682146104698472368B0
:10E86400002BE2D03460BDE8F883120143689918A4
:10E874009B58002BD9D03160BDE8F8836038030081
:10E8840088380300F02A002007B5836821B3DA7BB7
:10E894008A421ED01B228DF800205B228DF80120B5
:10E8A40031228DF802203B228DF8032033228DF88B
:10E8B400042001F12F028DF805206D228DF8062029
:10E8C40000228DF80720D9736A4605490069FEF7CE
:10E8D400B9FB03B05DF804FBD973024AF5E700BF46
:10E8E400E8440300B6410300836807B51A7C8A42F2
:10E8F40018D01B228DF800205B228DF801203422D1
:10E904008DF8022001F12F028DF803206D228DF87D
:10E91400042000228DF8052019746A460349006911
:10E92400FEF790FB03B05DF804FB00BFE84403006E
:10E93400014A0249FEF786BBB3410300E8440300E1
:10E944000A4600680149FEF77DBB00BFDE410300B3
:10E9540009B1FFF7F5BF70472DE9F34106460F46AD
:10E964001446002514B902B0BDE8F081706803684C
:10E974002246D3F80C80791901ABC047019B1D4492
:10E98400E41A002BEED1B3681A78032AEAD0D3F83C
:10E994003C219206FBD593F83C216FF3451283F892
:10E9A4003C21DFE72DE9F04F054685B017460E46BA
:10E9B400002979D00C46A4EB060A14F8010B04F0E4
:10E9C400E3F90028F7D1BB1B01935FFA87F83046BF
:10E9D400FFF716FFAB685C7BA0EB0A00E41BA042C8
:10E9E40006EB0A0928D80024A04218D019F80430EC
:10E9F4000A2B0AEB04081DD12869FEF718FB2246EE
:10EA04002C4649462846FFF7A7FF54F8100FFFF796
:10EA14008FFFF9B2204608F1010AFFF799FF286930
:10EA240006EB0A01FEF70EFB286905B0BDE8F04FBE
:10EA3400FFF77EBF0134D7E7019BCB46A3EB0A0265
:10EA4400ABEB09039BF800000392029304F09CF9DA
:10EA5400039A28B19BF80000029B0A281C4607D0A1
:10EA6400A868407B02EB0B0398420BF1010BE7D83B
:10EA74002869FEF7DCFA224649462846FFF76CFF70
:10EA840054443444A4EB060A14F8010B04F07CF952
:10EA94000028F7D12C4654F8100FFFF749FF4146E0
:10EAA4002046FFF755FF92E705B0BDE8F08F000060
:10EAB4002DE9F34106468068424F00248022214616
:10EAC40094308DF8034004F0D7F93F493069FEF7DC
:10EAD400B9FA3069FEF7ABFA4FF47A7547F00107DB
:10EAE400706803680122D3F810800DF1030101ABB3
:10EAF400C047019B5BB94FF6C010B847019B002B80
:10EB0400EED1013DADB2002DEAD10D2035E09DF8E6
:10EB14000330B2681B2B48D092F894101B29EDD116
:10EB2400522B42D11444002184F8941092F8953069
:10EB34005B2B1FD102F19604022314F8010B01335D
:10EB44003B28DBB21CD11D0622D40020D41894F833
:10EB54009440FCB9FA2886BFFA2313721072FA297A
:10EB640088BFFA234FF000008CBF9372917282F831
:10EB7400940002E082F894100B2002B0BDE8F0810A
:10EB840001EB810100EB41013039802B89B2D4D1F2
:10EB94000C20F2E7013300EB800004EB4000DBB211
:10EBA40030381C0680B2F3D4D0E711190134E4B232
:10EBB400092C81F89430A1D9002382F894300420E0
:10EBC400DBE700BFF0410300C94103000A4619B165
:10EBD40002490068FEF736BA704700BFE4410300FB
:10EBE4000A4619B102490068FEF72CBA704700BF03
:10EBF400D84103000CB4F7B508AB02AD53F8046B6D
:10EC040045F8043D0F468168D1F83C315B07044662
:10EC140020D5CB7BBB421DD002220F31684604F0C5
:10EC240001F939462046FFF72FFE2A46314620696E
:10EC3400FEF77EFA9DF800102046FFF725FE9DF8AA
:10EC4400011011B12046FFF74FFE03B0BDE8F040BC
:10EC540002B070472A4631462069FEF769FAF4E7A4
:10EC64002DE9F04F04468BB08148DFF82892904696
:10EC74000E4604F07FF905467E4804F07BF9A3684C
:10EC84007D4A5B68CDF8009008212D1A1B68204648
:10EC9400FFF7B0FFA3685B681868FFF7B1FD07468C
:10ECA400484604F067F9A3685B683A1892B2596859
:10ECB4002046FFF777FE714A08212046ADB2FFF7E0
:10ECC40099FFB8F1000F1ED0EEB1B1460027D9F874
:10ECD4000400FFF795FD8246D9F80000FFF790FD88
:10ECE4005044A8420AD9D9F80400FFF789FD054623
:10ECF400D9F80000FFF784FD0544ADB20137B845EB
:10ED040009F10C09E3D15B4804F034F902300544FD
:10ED1400ADB2574B0093EF1C594A082120462B46AD
:10ED2400BFB2FFF767FF3A4656492046FFF73AFE5F
:10ED34004EB9A3685B68D3F80890B9F1000F49D1C4
:10ED44000BB0BDE8F08FDFF838A14FF00009C145E2
:10ED5400EFD096E80C00002B34D05AB30192454A08
:10ED640000920821484A2046FFF744FF7068FFF7E5
:10ED740047FD03903068FFF743FD83463D4804F0A8
:10ED8400F9F8039BEB1AA3EB0B031B1AD9B204F19A
:10ED94001000FFF7DDFD3A223C492069FEF752F9E5
:10EDA400B16899B13A462046FFF7FCFD09F1010923
:10EDB4000C36CCE700932B46524608212046FFF739
:10EDC40019FFEDE7002AEBD00092F4E72069FFF782
:10EDD400AFFDEBE70DF12808002248F8142D164684
:10EDE40006AF009743460121484602F1010AFFF7A6
:10EDF4000BFD059D5DB12868FFF702FDB04204D903
:10EE0400059B1868FFF7FCFC86B25246E9E7BAF1A5
:10EE1400010F95D01E4A08212046FFF7EBFE06F1AC
:10EE2400020A2A46164D1FFA8AFA43460097012120
:10EE3400484602F1010BFFF7E7FC059B002B3FF46A
:10EE44007FAF1B6800932A46534608212046FFF7EC
:10EE5400D1FE059B5968721D92B221B12046FFF77D
:10EE6400A1FD5A46E1E72069FFF762FDF9E700BF1B
:10EE7400F6410300FC440300E14403000F44030093
:10EE84001A44030022440300354403006C39030090
:10EE94003E440300CE41030000221146FFF7E0BECA
:10EEA400012906D0022906D18368D3F83C319B0797
:10EEB40001D5FFF7F1BF024A0221FFF79BBE00BF55
:10EEC40093440300022910B5044608D18368D3F89B
:10EED4003C319B0703D5BDE81040FFF7DDBF206937
:10EEE400054A0649FEF7AEF82069054A0349BDE81C
:10EEF4001040FEF7A7B800BFBA410300E84403007E
:10EF0400BE41030010B58368D3F83C2192070C4638
:10EF140006D500221146FFF7A3FE0124204610BDAA
:10EF24000029FBD05B68034A1B680221FFF762FEDD
:10EF3400F4E700BF1C430300012937B50546144616
:10EF440004D103B0BDE83040FFF7A6BF023918BFB3
:10EF54000121FFF7D7FF48B963680193044B00937D
:10EF6400044A236802212846FFF744FE03B030BD5B
:10EF74009B4303009143030011F1FF3110B518BF07
:10EF840001210446FFF7BEFF48B9054A0549206937
:10EF9400FEF758F8A36850225A7318221A7310BD4A
:10EFA400C3410300E844030001292DE9F341044669
:10EFB40015462CD18668FFF77BFD00283BD1A3685A
:10EFC40004F11005FA21284693F808809F7AFFF788
:10EFD400B7FC20691E49FA22FEF734F82046FFF7F1
:10EFE40067FD40BBA368197A7173A368A1EB08019C
:10EFF4009B7A33732846C9B2FFF7F2FD317BC91BF4
:10F00400C9B2284602B0BDE8F041FFF7DFBD0229CE
:10F0140094BF00210121FFF775FF48B96B68019384
:10F024000C4B00932B680C4A02212046FFF7E2FDAB
:10F0340002B0BDE8F081A36850225A7318221A73F3
:10F04400064A0421204602B0BDE8F041FFF7D2BDD4
:10F05400D24103009B43030091430300D4430300C4
:10F064002DE9F04111F1FF3186B018BF01210546A9
:10F07400FFF748FF40BBAB68DFF85480D3F8346136
:10F084000446EEB1082C1BD030460023092203A904
:10F09400FEF725FB9DF81420A968304609230132A8
:10F0A4009431FEF71CFBAB68049E94330093671CF9
:10F0B4002346424608212846FFF79CFD3C46E0E7EC
:10F0C400AB68002283F8942006B0BDE8F08100BF4D
:10F0D400C943030011F1FF3110B518BF01210446E3
:10F0E400FFF710FF30B9A26892F83C3160F3820355
:10F0F40082F83C3110BD11F1FF3110B518BF012168
:10F104000446FFF7FFFE30B9A26892F83C3143F0A1
:10F11400040382F83C3110BD11F1FF3110B518BF62
:10F1240001210446FFF7EEFE30B9A26892F83C31A3
:10F1340060F3C30382F83C3110BD11F1FF3110B507
:10F1440018BF01210446FFF7DDFE30B9A26892F82A
:10F154003C3143F0080382F83C3110BD022973B5F9
:10F164000D4694BF0021012104461646FFF7CAFE4E
:10F1740058B9022D0BD1736801930D4B00930D4ABE
:10F18400336829462046FFF735FD02B070BDA368F9
:10F19400094AD3F83C3113F0080F084B18BF134643
:10F1A400074A0821204602B0BDE87040FFF722BD9F
:10F1B4009B43030091430300B0430300B3430300A4
:10F1C400B743030011F1FF3110B518BF0121044604
:10F1D400FFF798FE40B9A368C3F82C01E368BDE8C3
:10F1E4001040D868FFF708BB10BD00001FB511F12F
:10F1F400FF3118BF01210446FFF784FEB8B9E36864
:10F20400D868FFF7F6FAE368A168DB68C2B2642045
:10F214009B6802935043B0FBF3F0C0B2019200909C
:10F22400D1F82C31034A08212046FFF7E3FC04B04F
:10F2340010BD00BF58430300012907B504D103B032
:10F244005DF804EBFFF728BE02290AD15368019345
:10F25400084B00931368084AFFF7CCFC03B05DF831
:10F2640004FB8CBF0121002103B05DF804EBFFF720
:10F2740049BE00BF9B43030091430300054B1B6839
:10F28400082B01BF044B1868B0FA80F0400918BF7E
:10F2940000207047300100103401001008B54FF011
:10F2A40080430022C3F80C21C3F81021C3F8382589
:10F2B4004FF0805203F54043D2F80414C3F82015EC
:10F2C400D2F80814C3F82415D2F80C14C3F828157E
:10F2D400D2F81014C3F82C15D2F81414C3F830154E
:10F2E400D2F81814C3F83415D2F81C14C3F8401516
:10F2F400D2F82014C3F84415D2F82414C3F84815DE
:10F30400D2F82814C3F84C15D2F82C14C3F85015AD
:10F31400D2F83014C3F85415D2F83414C3F8601575
:10F32400D2F83814C3F86415D2F83C14C3F868153D
:10F33400D2F84014C3F86C15D2F84424C3F87025ED
:10F34400FFF79CFF10B1384B384A1A60FFF796FF5D
:10F3540018B1374BFB22C3F81825FFF78FFF48B1CC
:10F364003449354B0A681B6822F00F0203F00F037F
:10F3740013430B60FFF782FF18B1304B4FF4007258
:10F384001A604FF08043D3F80024D20744BF6FF0D3
:10F394000102C3F800242A4AD2F8883043F47003E7
:10F3A400C2F88830BFF34F8FBFF36F8F4FF0102335
:10F3B400D3F80022002A03DBD3F80432002B2FDA1F
:10F3C400204B0122C3F80425D3F80024002AFBD0E3
:10F3D4004FF010221221C2F80012D3F80024002AA0
:10F3E400FBD04FF010231222C3F80422154B1A4607
:10F3F400D3F800140029FBD00021C3F80415D2F877
:10F404000034002BFBD0BFF34F8F0D490E4BCA685D
:10F4140002F4E0621343CB60BFF34F8F00BFFDE7FC
:10F424000A4B0B4A1A6008BD8C5600404881030001
:10F4340000F00040E40E00405802001040960240E4
:10F4440000ED00E000E001400400FA05402B00203C
:10F454000090D003074B1B5C1F2B8ABF064A4FF05A
:10F46400A04203F01F03D2F80405D840C04300F0C3
:10F47400010070478847030000030050074B1B5CE2
:10F484001F2B86BF03F01F0305494FF0A041012243
:10F4940002FA03F3C1F80C35704700BF8847030034
:10F4A40000030050074B1B5C1F2B86BF03F01F0398
:10F4B40005494FF0A041012202FA03F3C1F80835CF
:10F4C400704700BF884703000003005008B50020C0
:10F4D400FFF7E8FF0120FFF7E5FF0220FFF7E2FF57
:10F4E4000320BDE80840FFF7DDBF08B50020FFF7A3
:10F4F400C5FF0120FFF7C2FF0220FFF7BFFF032073
:10F50400BDE80840FFF7BABF0A4B185C1F288ABF42
:10F51400094B4FF0A04300F01F00D3F8042501214C
:10F52400814021EA02000A40C3F80805C3F80C250B
:10F53400704700BF884703000003005042DF704754
:10F5440043DF704738B5084C04F10803054600282A
:10F5540018BF1C4623682BB11A6822605B682846D2
:10F564009847F7E738BD00BF9C34002020B9054B0D
:10F5740001225A70FFF7E6BF012802D1014A9070B8
:10F58400F8E770479434002020B9034B01225A70E5
:10F59400FFF7D8BF704700BF9434002038B50B4C38
:10F5A400237883B90A486360A3602361E36001F0B0
:10F5B40003FB054603F086FA08B901F00BFB0123AF
:10F5C4002370284638BD8525FBE700BF943400200E
:10F5D40071F5020037B502A80023094C00F8013D7B
:10F5E400FDF792FBE368013BE360E56815B901F0C0
:10F5F40009FBA5709DF80700FDF7AAFB03B030BD19
:10F6040094340020012813B509D003D303281BD058
:10F6140002B010BD0F4B0122C3F88020F8E702A806
:10F6240000230D4C00F8013DFDF76EFB23780BB968
:10F63400FFF7B4FFE3689DF807000133E36001239B
:10F64400A370FDF785FBE3E701F0C4FAFFF7C2FFFF
:10F65400DEE700BF00E100E09434002037B51B4C26
:10F664006378054603F0FF029BB110B143680020A4
:10F67400984700230DF107008DF80730FDF744FB90
:10F6840063689DF8070001336360FDF761FB03B015
:10F6940030BD0DF107008DF80720FDF735FB25B1CE
:10F6A400A268134653B92A60A5606368002BE7D1AA
:10F6B40003F008FA30B1FFF741FFE1E79D42F4D0CF
:10F6C4001B68EFE701F0AAFADAE700BF94340020E0
:10F6D40073B502A800230D4C00F8013DFDF714FB9F
:10F6E4006368013B6360666836B903F0EBF905466D
:10F6F40040B1FFF725FF66709DF80700FDF728FB72
:10F7040002B070BD01F096FA6570F5E794340020FC
:10F7140036DF70474DDF70474EDF70474FDF70476D
:10F7240050DF704708B50346FFF7F6FF40B91846A7
:10F73400FFF7F0FF20B91846BDE80840FFF7EEBF19
:10F7440008BD012810B5044602D101F0C3FB80476F
:10F7540001F0C6FB034668B10A2C07D00B2C07D076
:10F76400092C07D10220BDE8104018470020FAE711
:10F774000120F8E710BD0000012813B5044603D0AA
:10F78400032819D002B010BD02A8002300F8013DDF
:10F79400FDF7BAFA01F09EFB10B12046FFF7B8FF5F
:10F7A4009DF80700FDF7D4FA01F09AFB0028E9D090
:10F7B4000120FFF7B7FFE5E70D4BE02283F80023B4
:10F7C4000122C3F880211A6001F084FB20B14FF0BC
:10F7D40080430422C3F8042301F082FB0028D1D023
:10F7E4004FF080434FF46072C3F80423CAE700BFAC
:10F7F40000E100E010B5044603F064F950B906488E
:10F80400002C18BF204601F071FB20B9034B0122E4
:10F814001A7010BD082010BD92470300A8340020C0
:10F8240013B502A8002400F8014DFDF76DFA03F0AA
:10F8340049F950B12046FFF775FF9DF80700FDF721
:10F8440087FA01F08FFB02B010BD01F084FBF4E7EE
:10F8540037B54FF0A0454FF480330446C5F80C3556
:10F86400FFF7DEFF204601F065FB03F02BF90446A9
:10F87400A0B10120FFF756FF044660B901A8FFF7C5
:10F884004FFF044638B9019BDB0704D501F028FB80
:10F89400034620469847204603B030BD4FF48043CA
:10F8A400C5F80C3501F050FBF5E700F1804000F598
:10F8B4001C3001230360BFF36F8FBFF34F8F70477A
:10F8C400064A10F0800F00F00F0314BFD2F81005A1
:10F8D400D2F81405D84000F00100704700700240CF
:10F8E400064B1B78082B07D1054B1B6813F00F0F31
:10F8F4000CBF01200020704700207047E00F00F08B
:10F90400E40F00F008B5FFF7EBFF68B1074B1B6885
:10F9140013F0F00F07D1064B1B6813F0F00F0CBF68
:10F924000120002008BD002008BD00BFE80F00F042
:10F93400EC0F00F008B5FFF7D3FF70B1074B1B685D
:10F9440003F0F003102B07D1054B1B6813F0F00FE5
:10F954000CBF0120002008BD002008BDE80F00F006
:10F96400EC0F00F030B54C680D689C4208D20021C1
:10F974004160056093420BD1201C18BF012030BDAB
:10F98400436005600868E41A18444C600860F1E7B5
:10F99400002030BD4B689A4228BF1A4610B50C6847
:10F9A40004604260981A0B684860134400300B608E
:10F9B40018BF012010BD4B689A4228BF1A4610B5E3
:10F9C4005AB10C68046042609B1A4B600B68101CAF
:10F9D40013440B6018BF012010BD1446F2E7000069
:10F9E400054B10F0800FA3F1900208BF134600F0FE
:10F9F4000F0003EB001070471C36002010F0800F3E
:10FA040014BF0023102300F00F00184470470000B7
:10FA1400024A00231360024A137070471C7C0240A0
:10FA2400AA34002007B5084A00231370074A01933B
:10FA340002A81370012300F8043D054B1B68984786
:10FA440003B05DF804FB00BFA9340020B0360020E9
:10FA5400AC3600207047000007B500238DF8043051
:10FA6400084B094AD3F82035ADF80630136843F043
:10FA740001231360054B01A81B68984703B05DF888
:10FA840004FB00BF0070024088350020AC36002023
:10FA9400F8B54D680B4F954228BF154606460C46EF
:10FAA4002A460968384603F0BDF937607560606816
:10FAB4002368401B1D4460602560003018BF01208E
:10FAC400F8BD00BFB8360020F8B54C68944228BF92
:10FAD400144606460D468CB1094F0968224638463D
:10FAE40003F0A0F937606B6874601B1B6B602B68B4
:10FAF4002344201C2B6018BF0120F8BD0460F2E7EA
:10FB0400B836002013B5124C0122236802FA01F121
:10FB14000B4323600F4B10F0800F1B680ED019406D
:10FB24000AD106238DF804308DF806008DF80710ED
:10FB3400094B01A81B68984702B010BD1942FBD1BC
:10FB440006238DF804308DF806008DF80720EFE7C2
:10FB54008835002018350020AC36002008B5054B48
:10FB64001A781046FFF74AFFBDE8084001461046E0
:10FB7400FFF7C8BFB036002008B50146FFF748FFBD
:10FB8400FFF72EFF837B032B0AD10846FFF736FFCE
:10FB940001218140C9430448BDE80840FDF7B8B9D4
:10FBA4000368002BF1D008BD183500208720FFF72B
:10FBB400E3BF8620FFF7E0BF8520FFF7DDBF842089
:10FBC400FFF7DABF8320FFF7D7BF8220FFF7D4BF48
:10FBD4008120FFF7D1BF000013B5FFF719FF114BC8
:10FBE40093F81E21032A06D16FF480710E48FDF7A5
:10FBF4008FF902B010BDD3F81041002CF9D16FF485
:10FC040080710948FDF784F906238DF804308823B0
:10FC14008DF80630054B8DF807401B6801A89847FE
:10FC2400E7E700BF8C35002018350020AC360020F3
:10FC340008B5FFF7EDFE084B93F89E20032A06D182
:10FC44006FF001010548BDE80840FDF761B9D3F83C
:10FC54009030002BF4D008BD8C35002018350020DE
:10FC640013B5FFF7D5FE0D4B93F88E20032A13D05E
:10FC7400D3F8804084B96FF080710948FDF748F9E2
:10FC840006238DF8043008238DF80630054B8DF8D3
:10FC940007401B6801A8984702B010BD8C350020AE
:10FCA40018350020AC360020204B13B5D3F800449F
:10FCB400C3F80044BFF36F8FBFF34F8FBFF36F8F51
:10FCC400BFF34F8FE1050BD5194B01221A7002A81F
:10FCD40000230193022300F8043D164B1B68984748
:10FCE400A2050AD5124A002302A801931370032324
:10FCF40000F8043D0F4B1B689847630513D50C4B64
:10FD04001A7882B100221A70084B0121C3F8081531
:10FD14005820FFF7CAFD02A80423019200F8043D0D
:10FD2400044B1B68984702B010BD00BF007002402E
:10FD3400A9340020AC3600202DE9F04F754B87B074
:10FD44001A780193002A40F08680DFF8D0B1724B14
:10FD54001D68724B19680D407DD095FAA5F5B5FA6A
:10FD640085F5ECB20F2DC6BF103CE4B244F080041C
:10FD74002046FFF735FE4FFA84FABAF1000F064623
:10FD8400828904F00F0869DA0368416804A8984777
:10FD940000B93060624B82221A60019B059A0121EE
:10FDA4001970A940B368DBF80050134425EA010137
:10FDB40004F00F04BAF1000FCBF80010B3600499FB
:10FDC400584BE4B27CDA072C9BBF142000FB0434AC
:10FDD400C3F8A016C4F800168CBFC3F8A426C4F850
:10FDE4000426FFF78FFD504C504E002879D0BAF10D
:10FDF400000FB8BF22464E4C4E4F5FFA88F8AABF98
:10FE04003246042528254C4E05EB880544F00104B0
:10FE140002EB48084FF00009C6F80090BFF36F8F5B
:10FE2400BFF34F8F2846FFF740FD8020A04733687B
:10FE3400002BF1D04FF4F060A0473B689B064ED5F1
:10FE44004020A047B8F8003003F1804303F51C3389
:10FE54001B68002BDED007B0BDE8F08F5FFA88F393
:10FE6400072B304927D9D1F8C09419F4803F18BF23
:10FE74004FF000094B467168376804A8B847049BE3
:10FE8400002B85D0059B4B4582D201214FF00208FF
:10FE9400A94086F80E80C9431F48FDF739F80623A8
:10FEA4008DF80C30254B8DF80E408DF80F801B68B3
:10FEB40003A898474BE703F5947351F82390D9E7C7
:10FEC400072C9BBF142000FB0434C3F8A017C4F80C
:10FED40000178CBFC3F8A427C4F8042781E7802047
:10FEE400AAE7BAF1000FB4BF042028205FFA88F80B
:10FEF40014EA2A0A38BFB24600EB8800FFF7D5FCA3
:10FF04003AF8183003F1804303F51C331A68002AC9
:10FF1400FCD0A0E7AA340020183500208835002042
:10FF24001C7C024000700240B0470300CC47030031
:10FF3400A04703007474024004710240AC360020F0
:10FF440038B5194BD3F86C44C3F86C44BFF36F8FC6
:10FF5400BFF34F8FBFF36F8FBFF34F8FFFF7D2FC09
:10FF640038B1124A136823F0011103F001130C4352
:10FF7400136001251CB9BDE83840FFF7DDBE94FAD3
:10FF8400A4F3B3FA83F30F2BD9B2C8BFA1F11000C5
:10FF940005FA03F3CCBFC0B241F0800024EA0304A5
:10FFA400FFF7B0FDE6E700BF00700240B436002062
:10FFB40037B50446FFF72CFDFFF712FD837B032BB7
:10FFC4000CD12046FFF71AFD01218140C9430F4897
:10FFD400FCF79EFFFFF7B0FE03B030BD0568002DAF
:10FFE400F8D12046FFF70AFD01218140C9430748A3
:0CFFF400FCF78EFF06238DF80430054B4F
:020000023000CC
:100000008DF806408DF807501B6801A89847E3E774
:1000100018350020AC3600200720FFF7CBBF0620A4
:10002000FFF7C8BF0520FFF7C5BF0420FFF7C2BF19
:100030000320FFF7BFBF0220FFF7BCBF0120FFF77F
:10004000B9BF0000054B1A78012A01BF044A0020FD
:100050001060187018BF0820704700BFAB34002034
:10006000AC3600204E4B4FF4006273B5C3F8002449
:10007000BFF36F8FBFF34F8FFFF75EFC494CA0B10A
:1000800000230DF107008DF80730FCF73FFE2168D3
:10009000454B032200297AD149F2753121601A605B
:1000A00021609DF80700FCF755FE00230DF10700C5
:1000B0008DF80730FCF72AFE22683C4DC023002A49
:1000C00067D149F2753222602B6022609DF80700EB
:1000D000FCF740FE324B0122C3F80025BFF36F8FBF
:1000E000BFF34F8FD3F800241205FBD54FF4006205
:1000F000C3F80024BFF36F8FBFF34F8F00260DF1BD
:1001000007008DF80760FCF701FE2268002A42D143
:1001100049F2753323602A6023609DF80700FCF7DD
:1001200019FEFFF709FC90B100250DF107008DF8CD
:100130000750FCF7EBFD21681B4B71BB49F2753290
:100140002260196022609DF80700FCF703FE184B3F
:1001500040F2E3721A60043340221A60BFF36F8FDB
:10016000BFF34F8FA3F604038022C3F81C25114B65
:1001700040F2FF121A60104B00211960FFF74AFC91
:100180000E4B19700E4B02221A7002B070BD1A602D
:1001900087E72B609AE72E60BFE71D60D3E700BFBB
:1001A0000070024000EC064014ED064014EC0640DE
:1001B000007802408835002018350020B036002035
:1001C000AB34002008B5104B00221A70D0B9FFF7ED
:1001D0009BFB0E4A0E4B002814BF184610460D4BD1
:1001E0000D4AE021C2F8040383F827138021C3F8E5
:1001F000841159600123C2F80435BFF36F8FBFF338
:100200004F8F08BD0248EAE7A93400200714C00157
:100210000714E00100E100E000700240024B187892
:10022000003018BF01207047AB340020034B187812
:10023000012894BF00200120704700BFAB3400208C
:1002400037B502A8002500F8015DFCF75FFD114BF2
:100250001B7803F0FF0493B10F4AD2F82C35BBB1E1
:100260000E4BC2F82C55186802F58F2202F2144288
:10027000C02158B949F275301860116018609DF8B6
:100280000700FCF767FD204603B030BD1160F6E7BC
:100290001C46F4E7A93400200070024000EC064040
:1002A000024B034AC3F80823704700BF00700240A6
:1002B00004148001024B034AC3F80423704700BFB3
:1002C000007002400414800108B5FFF78BFB8181A8
:1002D00008BD000070B5002831D01B4B1C7884BBD2
:1002E0001A4A106001221A70264664F07F05082C15
:1002F000EDB20CBF4FF4007140212846FFF7E4FF38
:100300002846FFF76FFB0134092C86730660866070
:10031000EBD100242546082CE6B214BF40214FF44F
:1003200000713046FFF7D0FF3046FFF75BFB01342A
:10033000092C857305608560EDD1002070BD072014
:1003400070BD082070BD00BFAB340020AC3600206B
:1003500008B5FFF747FB808908BDFFF7B3BA000077
:100360002DE9F7430F468046FFF74AFB044602A8F3
:10037000002300F8013DFCF7C9FC18F00F0103D180
:10038000264B1B78434544D1254B264A1B681568EC
:10039000DB4301269BB2A6402B43334291463AD120
:1003A0004046FFF71FFB18F0800F03464FF00C0488
:1003B0002AD01D4A04FB01243A6802F06042B2F1DF
:1003C000005FBA681BD1D10754BF184A184A1A6097
:1003D00097E8070084E807005C6000249C609C7339
:1003E000144B35438022C9F80050C3F804219DF80E
:1003F0000700FCF7AFFC204603B0BDE8F083D2074E
:1004000054BF0D4A0D4AE2E70D4A04FB01240D4A90
:10041000DDE71024EBE71124E9E700BFB036002048
:1004200088350020183500201C35002099F902007D
:10043000BBF9020000E100E095FA0200CDFA0200EB
:10044000AC34002069F902002DE9F34207468946E1
:10045000FFF7D6FA044602A8002300F8013DFCF796
:1004600055FC3B0703D1164B1B78BB4224D1154BDF
:1004700015491B680E68DB4301259BB2A540334339
:1004800013EA05041AD13846FFF7ACFAD9F8003060
:100490000360D9F8043043600C4B846035438022FC
:1004A00084730D60C3F804219DF80700FCF752FC2B
:1004B000204602B0BDE8F0821024F5E71124F3E7EE
:1004C000B0360020883500201835002000E100E01B
:1004D00000487047B8360020044B40F48070C3F8E1
:1004E0001805BFF36F8FBFF34F8F70470070024046
:1004F000034BC3F81805BFF36F8FBFF34F8F7047DF
:100500000070024000F00F03072B11D810F0800F8D
:10051000084A0BBF03F5887303F5847302EB83036A
:1005200052F8230008BF5868431E5842584170478C
:100530000020704700700240064BC3F80C05BFF363
:100540004F8F40F48070C3F80C05BFF36F8FBFF37B
:100550004F8F70470070024010B5082200210446FA
:1005600002F08CFC0E4BD3F880242270D3F8842444
:100570006270D3F88824D3F88C1442EA0122628096
:10058000D3F89024D3F8941442EA0122A280D3F83D
:100590009824D3F89C3442EA0323E38010BD00BFC3
:1005A0000070024008B5FFF7AFF958B1EFF31082C1
:1005B00072B64C20FFF77BF94C20FFF778F982F3F5
:1005C000108808BD4C20BDE80840FFF770B9000056
:1005D00013B5FFF71FFA104B9A7B032A06D16FF46D
:1005E00080310E48FCF796FC02B010BD1C6884B93F
:1005F0006FF480310948FCF78DFC06238DF8043038
:10060000074B8DF806408DF807401B6801A89847F6
:10061000EAE7FFF7C7FFE7E78C3500201835002031
:10062000AC3600205020FFF742B95420FFF73FB905
:10063000014B1878704700BFB0360020F7B5074669
:10064000FFF762F91F4D064607F00F04E0B10026E0
:100650000DF107008DF80760FCF758FB3846FFF7EF
:10066000CFF9012303FA00F02B6823EA00032B6083
:100670006400154B04F2C5741C605E609DF80700B1
:10068000FCF768FB03B0F0BD8DF807000DF1070023
:10069000FCF73CFB3846FFF7B3F9012303FA00F0FF
:1006A0002B68E4B223EA0003072C2B60E6D804F59C
:1006B0009474064B43F82460BFF36F8FBFF34F8FE2
:1006C000DCE700BF8835002000780240007002405F
:1006D0002DE9F743044602A8002600F8056DFCF753
:1006E00015FB2046FFF77EF914F0800F05462349DD
:1006F0001ED120460A68FFF783F9012303FA00F0B0
:1007000030EA02030BD02046FFF798FF0323AB73B8
:100710009DF80300FCF71EFB03B0BDE8F083C04367
:1007200002402B600A60164A136818401060EDE71B
:10073000DFF84C800F68D8F80020204667EA0209ED
:10074000FFF75EF9012303FA00F019EA000FDFD08A
:100750000323AB738DF807300A4B8DF8064027EA68
:100760000007104306220F60C8F800002E608DF8C5
:1007700004201B6801A89847CAE700BF183500206D
:1007800088350020AC360020F7B5174B174CD3F84E
:1007900080542368164EDA43164B37781B6892B2A2
:1007A00038461A43FFF72CF9012303FA00F01042F0
:1007B00002D03846FFF78CFF6FF0011105F080057D
:1007C0000C483570FCF7A6FB236843F00103236057
:1007D00002A800230193052300F8043D064B1B6883
:1007E000984703B0F0BD00BF00700240883500207C
:1007F000B036002018350020AC360020554B2DE9CE
:10080000F041D3F80453002229461646012400295A
:100810007CD1FFF779F8002869D04F4B1B78002B6B
:1008200065D1960263D54D494C4E40F2A9730B60D9
:100830004B4B1C6814F0FF041CBF1868044040F2C6
:10084000AA700860186810F0FF001CBF1968084003
:1008500040F2AB713160196811F0FF01B6461CBF60
:100860001E68314040F2AC76CEF800601E6834401D
:100870003C4E08D037682743376040F2A977CEF85E
:1008800000701C601C68354F40F2AD743C601C6801
:10089000204008D0346844EA0044346040F2AA742E
:1008A0003C60186018682D4840F2AE740460186807
:1008B00001400DD0CC0748BF42F40002C8062748CB
:1008C00040F2AB74046019601B6848BF42F001023B
:1008D000336833F001111CBF05F08070024313F040
:1008E000011F04D06B0544BF316042F480621E4F8B
:1008F00002F4000622F400044FF00108E4B9FFF707
:100900001DFA2EB3BDE8F041FFF73EBF91FAA1F307
:100910001648B3FA83F39F00384407683FB1066076
:10092000BFF36F8FBFF34F8F04FA03F0024304FA53
:1009300003F321EA03016AE794FAA4F5B5FA85F511
:1009400057F8253008FA05F5984724EA0504D5E755
:10095000BDE8F08100700240AA3400200078024017
:1009600004780240B4360020E047030000710240E2
:10097000F8B5114E114A34681268240C240414434B
:1009800001271CB940F2FF133360F8BD94FAA4F5B7
:10099000B5FA85F5E8B20F2DC6BF1038C0B240F0E9
:1009A000800000F00F03072B01D8FFF791FE07FA34
:1009B00005F524EA0504E4E7883500201835002011
:1009C00010B50B4C63681B0610D5FFF7D1FF094B20
:1009D0000022C3F80425BFF36F8FBFF34F8F80222F
:1009E000C4F884204FF0FF32C3F8082310BD00BFC5
:1009F00000E100E00070024008B5FFF7E1FF094B9D
:100A0000D3F80423C3F808230022C3F80025BFF35A
:100A10006F8FBFF34F8FFEF7FDFF034B01221A705C
:100A200008BD00BF00700240AB34002013B502A81F
:100A3000002300F8013DFCF769F9164B1B7803F021
:100A4000FF043BB900249DF80700FCF783F920461A
:100A500002B010BDFFF78CFF0F49D1F8003413F43A
:100A60000073EFD10122C1F82C25D1F8002412F433
:100A7000007202D0C1F82C35E4E7084B0849186829
:100A800028B949F275321A6008601A60DBE70A601B
:100A9000D9E700BFA93400200070024000EC0640F6
:100AA00014EC064010B50446FFF712FE134A04F09A
:100AB0000F0164B2002C4FF00103B5BFD2F810054E
:100AC000D2F814058B408B40B5BF20EA030320EA1F
