:020000022000DC
:106000000000042061620200B9620200BB6202006B
:10601000BD620200BF620200C16202000000000017
:10602000000000000000000000000000C362020049
:10603000C562020000000000C7620200C9620200DF
:10604000CD620200CF620200D1620200D362020080
:10605000D5620200D7620200D9620200DB62020050
:10606000DD620200DF620200E1620200E362020020
:10607000E5620200E7620200E9620200EB620200F0
:10608000ED620200EF620200F1620200F3620200C0
:10609000F5620200F762020031820200FB62020038
:1060A000FD620200FF62020001630200036302005E
:1060B0000563020007630200CB620200CB620200AC
:1060C000096302000B6302000D6302000F6302000C
:1060D00011630200136302001563020017630200DC
:1060E000196302001B6302001D630200CB62020001
:1060F000CB62020021630200CB6202001F63020038
:10610000364937480A1A02D0072291438D4635494D
:1061100035480A1A06D00722914381F309880222E2
:1061200082F3148831483249324A00F045F8324847
:106130003249334A00F040F832483349334A00F0DC
:106140003BF833483349344A00F036F83348344991
:10615000344A00F031F834483449354A00F02CF81C
:1061600034483549354A00F027F83548354900228A
:1061700000F02DF834483549002200F028F8344862
:106180003449091A082903DB002202600430016047
:10619000314A90471F482049884205D002680430A0
:1061A00003B4904703BCF7E700208646EC46002086
:1061B00000212A4A9047FEE7884207D0521A05D0AC
:1061C000037801300B700131013AF9D170478842F0
:1061D00002D002700130FAE770470000000004208E
:1061E00000E00320000004200000042018940200B6
:1061F0006822002080220020246302002463020021
:106200002C850200189402006822002068220020D9
:10621000108602001086020010860200108602001E
:10622000108602001086020010860200108602000E
:106230001894020030940200802200208022002066
:10624000802200208127002084270020842700202E
:106250008427002084470020856202002563020015
:106260000F484FF00701884385460E4880470E4887
:10627000016841F470010160BFF34F8FBFF36F8F6E
:10628000FFF73EBF09480A490A4A884207D0521A16
:1062900005D0037801300B700131013AF9D1704714
:1062A000000004209977020088ED00E0B885020024
:1062B0001022002068220020FEE7FEE7FEE7FEE74E
:1062C000FEE7FEE7FEE7FEE7FEE7FEE7FEE7FEE7A6
:1062D000FEE7FEE7FEE7FEE7FEE7FEE7FEE7FEE796
:1062E000FEE7FEE7FEE7FEE7FEE7FEE7FEE7FEE786
:1062F000FEE7FEE7FEE7FEE7FEE7FEE7FEE7FEE776
:10630000FEE7FEE7FEE7FEE7FEE7FEE7FEE7FEE765
:10631000FEE7FEE7FEE7FEE7FEE7FEE7FEE7FEE755
:04632000FEE700BFD5
:1063240007B5114C114D052269464FF4283000F091
:1063340067F8204602F0C8F821460246684602F093
:106344001EF820B94FF42C3000F048F8EBE728464B
:1063540002F0BAF829460246684602F010F800280E
:10636400F0D14FF45830EFE7108602001686020091
:1063740013DF704730B589B0EFF30582002304685A
:10638400416883F3148883F3108883F3118883F3BB
:106394001388C2F308023AB984F308884FF0FF3334
:1063A4009E46084709B030BD203C009301930293F8
:1063B4000393049306914FF080734FF0FF3520222E
:1063C400694620460595079301F0F8FF84F3088891
:1063D400AE466FF006031847E4E7000008B5074B24
:1063E4004FF0FF32C3F88020C3F880210146FFF745
:1063F400BFFFBDE808400846FFF7BCBF00E100E06E
:1064040010B50A440B46934200D110BD5C1A245CBB
:1064140003F8014BF7E71FB50021039001AA44F2EA
:1064240001000191029100F003F805B05DF804FB4E
:1064340010B572B601F0D2FE01F048FD0028FBD180
:10644400124C636833B120881149000440F0010004
:1064540001F0C0FE0F4B1B68DB0700D500BE63686C
:10646400012B06D920880C49000440F0020001F0F9
:10647400B1FEBFF34F8F0949094BCA6802F4E062C9
:106484001343CB60BFF34F8F00BFFDE72C220020E6
:106494001C860200F0ED00E02886020000ED00E01A
:1064A4000400FA0570B5EFF3108672B60C4A9468CE
:1064B40001239CB993600B4B0B4DD3F880102940FA
:1064C4001160C3F88050D3F8841051604FF0FF324C
:1064D400C3F88420047006B962B670BD0370FAE78D
:1064E4008022002000E100E0FC06FFBD084B9A6812
:1064F40010B55AB150B9EFF3108272B605491C6851
:106504000C605C684C60986002B962B610BD00BF54
:106514008022002000E100E0026813685268934280
:1065240091BFD01A80680130801888BFC01A7047A4
:1065340013B5044602A8002300F8013DFFF7B2FF9B
:106544002046FFF7E9FF04469DF80700FFF7CEFF5A
:10655400204602B010BD00002DE9F04F8368D3F847
:106564003C319B078BB0064606D5002211460BB082
:10657400BDE8F04F00F02EBC012906D9234A0221C0
:106584000BB0BDE8F04F00F0EFBB214C214D224F82
:10659400DFF88880DFF888901C232D1BB5FBF3F50A
:1065A40003FB0545AC4202D10BB0BDE8F08FE368B4
:1065B40009932368D4F808A0D3F808B02046FFF75D
:1065C400B7FF94F810E00290642303FB00F1BEF1DE
:1065D400000F0CBF3A46424603FB0BF3B3FBFAF33E
:1065E4000493099BB1FBFAF1079201910093CDF852
:1065F40018A06369CDF814B0CDF80CA04A46082160
:10660400304600F0B1FB1C34CCE700BF85860200A5
:10661400A8850200A885020070860200798602001F
:1066240098860200036898687047036800229A609D
:106634007047F8B546790446721E002393422468D5
:1066440004D301460025B54202D3F8BD0133F5E772
:106654000F68204600F05FF901353946F3E72DE96C
:10666400F843078BCD1C804600F032F9043F3D44CB
:106674000446B5FBF7F5002650B10123EDB20671CF
:106684004371C780013DC0F800808146AE4202D309
:106694002046BDE8F883404600F01AF9074648B1A1
:1066A4006379013363710136C9F80000C0F80080D2
:1066B4008146EBE72046FFF7BCFF3846BDE8F88388
:1066C4000121043000F08AB810B5012104460430D9
:1066D40000F091F810F0FF0F04D12046BDE81040FF
:1066E400FFF7A7BF10BD2DE9F843C68804330F4652
:1066F400B3FBF6F4154606FB143380463CB9A6EB0F
:106704000309A94528BFA9462DB9BDE8F883D8F8DF
:106714000080013CF2E7043308EB0300A5EB090514
:106724004A46391901F04AFEAE424C44D8F800807A
:10673400B1464FF0000328BFA946E5E72DE9F84329
:10674400C6880F46191D1546B1FBF6F4804606FBB4
:1067540014113CB9A6EB0109A94528BFA9462DB9D6
:10676400BDE8F883D8F80080013CF2E704314144E5
:10677400A5EB09054A46381901F020FEAE424C4407
:10678400D8F80080B1464FF0000128BFA946E6E7DB
:1067940000B550E8002F0B4640E8003E9EF0000F85
:1067A400F7D110465DF804FB00B550E8003F43EA1A
:1067B400010240E8002E9EF0000FF6D110465DF86D
:1067C40004FB00B550E8002F02EA010340E8003E54
:1067D4009EF0000FF6D110465DF804FB00B550E8BA
:1067E400003F03EB010240E8002E9EF0000FF6D1BB
:1067F40010465DF804FB00B550E8003FA3EB01022E
:1068040040E8002E9EF0000FF6D110465DF804FB20
:106814000121FFF7C9BF0021FFF7D3BF2DE9F043E2
:106824008368D3F83C61C6F3400689B0074636B1A5
:106834000022114609B0BDE8F04300F0CBBA0129AB
:1068440006D91F4A022109B0BDE8F04300F08CBA12
:106854001C4C1D4BDFF874901C251B1BB3FBF5F37C
:1068640003FB055525444FF064081C34AC4202D1A7
:1068740009B0BDE8F08354F81C0C54F8143C0179B9
:1068840054F8182C006806919A1A1B1ADBB2039369
:1068940008FB03F3B3FBF2F3029334F8043C0792CE
:1068A40011FB08F10492B1FBF2F1009305910196FA
:1068B40054F8083C4A460821384600F055FAD4E713
:1068C400858602008C850200A88502008487020068
:1068D40037B5054602A8002400F8014DFFF7E2FD94
:1068E4002A686B68116899420ED9481E106011F825
:1068F400014CEB68298B01FB0434AB6811791B1A3A
:10690400DBB2994238BF13719DF80700FFF7EEFD23
:10691400204603B030BD37B5054602A8002300F871
:10692400013D0C46FFF7BEFD2A681368591C11602F
:10693400E968641A298BB4FBF1F41C709DF8070014
:10694400FFF7D4FD03B030BD0B684A68436093423F
:1069540008BF0023016008BF43607047436843B128
:106964000268916852680B449342436004BF002359
:106974004360704708B101F0A7BD70472DE9F843A3
:10698400089C1E460F46E1B9194C1A4D2D1BED0803
:10699400954204D9184800EB8208AF4201D1002384
:1069A4000AE06368D8F80000196801F065FDA146A3
:1069B400083420B9D9F804303360BDE8F8830137CE
:1069C400EBE70028EBD003784BB14368214610462F
:1069D40098472368002BE2D03460BDE8F8831201A5
:1069E400436899189B58002BD9D03160BDE8F883CF
:1069F4002C850200648502001022002007B58368FC
:106A040021B3DA7B8A421ED01B228DF800205B2240
:106A14008DF8012031228DF802203B228DF80320CD
:106A240033228DF8042001F12F028DF805206D2208
:106A34008DF8062000228DF80720D9736A4605498F
:106A4400006900F0E0FC03B05DF804FBD973024A6E
:106A5400F5E700BF8B8B020053880200836807B5FB
:106A64001A7C8A4218D01B228DF800205B228DF8F4
:106A7400012034228DF8022001F12F028DF8032029
:106A84006D228DF8042000228DF8052019746A46C1
:106A94000349006900F0B7FC03B05DF804FB00BFD4
:106AA4008B8B0200014A024900F0ADBC5088020001
:106AB4008B8B02000A460068014900F0A4BC00BFA9
:106AC4007B88020009B1FFF7F5BF70472DE9F34158
:106AD40006460F461446002514B902B0BDE8F081FD
:106AE400706803682246D3F80C80791901ABC0475B
:106AF400019B1D44E41A002BEED1B3681A78032AD3
:106B0400EAD0D3F83C219206FBD593F83C216FF3ED
:106B1400451283F83C21DFE72DE9F04F054685B0A7
:106B240017460E46002979D00C46A4EB060A14F841
:106B3400010B01F01FFC0028F7D1BB1B01935FFA86
:106B440087F83046FFF716FFAB685C7BA0EB0A00C2
:106B5400E41BA04206EB0A0928D80024A04218D05E
:106B640019F804300A2B0AEB04081DD1286900F037
:106B74003FFC22462C4649462846FFF7A7FF54F817
:106B8400100FFFF78FFFF9B2204608F1010AFFF753
:106B940099FF286906EB0A0100F035FC286905B065
:106BA400BDE8F04FFFF77EBF0134D7E7019BCB462A
:106BB400A3EB0A02ABEB09039BF8000003920293D8
:106BC40001F0D8FB039A28B19BF80000029B0A2825
:106BD4001C4607D0A868407B02EB0B0398420BF1DC
:106BE400010BE7D8286900F003FC224649462846F1
:106BF400FFF76CFF54443444A4EB060A14F8010B69
:106C040001F0B8FB0028F7D12C4654F8100FFFF719
:106C140049FF41462046FFF755FF92E705B0BDE81E
:106C2400F08F00002DE9F34106468068424F0024AE
:106C34008022214694308DF8034001F0E9FB3F495E
:106C4400306900F0E0FB306900F0D2FB4FF47A7554
:106C540047F00107706803680122D3F810800DF132
:106C6400030101ABC047019B5BB94FF6C010B847A5
:106C7400019B002BEED1013DADB2002DEAD10D20D8
:106C840035E09DF80330B2681B2B48D092F894107D
:106C94001B29EDD1522B42D11444002184F89410C5
:106CA40092F895305B2B1FD102F19604022314F85D
:106CB400010B01333B28DBB21CD11D0622D400207A
:106CC400D41894F89440FCB9FA2886BFFA231372B6
:106CD4001072FA2988BFFA234FF000008CBF937218
:106CE400917282F8940002E082F894100B2002B0B2
:106CF400BDE8F08101EB810100EB41013039802BCB
:106D040089B2D4D10C20F2E7013300EB800004EB0C
:106D14004000DBB230381C0680B2F3D4D0E711193E
:106D24000134E4B2092C81F89430A1D9002382F80B
:106D340094300420DBE700BF9088020066880200DC
:106D44000A4619B10249006800F05DBB704700BFF4
:106D5400818802000A4619B10249006800F053BB59
:106D6400704700BF758802000CB4F7B508AB02ADDC
:106D740053F8046B45F8043D0F468168D1F83C3163
:106D84005B07044620D5CB7BBB421DD002220F31CA
:106D9400684601F013FB39462046FFF72FFE2A46CA
:106DA4003146206900F0A6FB9DF800102046FFF74D
:106DB40025FE9DF8011011B12046FFF74FFE03B0E8
:106DC400BDE8F04002B070472A463146206900F021
:106DD40091FBF4E72DE9F04F04468BB08148DFF8CE
:106DE400289290460E4601F06FFB05467E4801F05E
:106DF4006BFBA3687D4A5B68CDF8009008212D1ACF
:106E04001B682046FFF7B0FFA3685B681868FFF7AC
:106E1400B1FD0746484601F057FBA3685B683A1882
:106E240092B259682046FFF777FE714A082120463E
:106E3400ADB2FFF799FFB8F1000F1ED0EEB1B14625
:106E44000027D9F80400FFF795FD8246D9F8000021
:106E5400FFF790FD5044A8420AD9D9F80400FFF77F
:106E640089FD0546D9F80000FFF784FD0544ADB25D
:106E74000137B84509F10C09E3D15B4801F024FB63
:106E840002300544ADB2574B0093EF1C594A082118
:106E940020462B46BFB2FFF767FF3A4656492046C5
:106EA400FFF73AFE4EB9A3685B68D3F80890B9F1CE
:106EB400000F49D10BB0BDE8F08FDFF838A14FF0D7
:106EC4000009C145EFD096E80C00002B34D05AB32A
:106ED4000192454A00920821484A2046FFF744FFA0
:106EE4007068FFF747FD03903068FFF743FD834662
:106EF4003D4801F0E9FA039BEB1AA3EB0B031B1AC1
:106F0400D9B204F11000FFF7DDFD3A223C492069B3
:106F140000F079FAB16899B13A462046FFF7FCFDD2
:106F240009F101090C36CCE700932B46524608219F
:106F34002046FFF719FFEDE7002AEBD00092F4E7B3
:106F44002069FFF7AFFDEBE70DF12808002248F8B0
:106F5400142D164606AF009743460121484602F118
:106F6400010AFFF70BFD059D5DB12868FFF702FDDF
:106F7400B04204D9059B1868FFF7FCFC86B2524660
:106F8400E9E7BAF1010F95D01E4A08212046FFF720
:106F9400EBFE06F1020A2A46164D1FFA8AFA434608
:106FA40000970121484602F1010BFFF7E7FC059B1E
:106FB400002B3FF47FAF1B6800932A4653460821F9
:106FC4002046FFF7D1FE059B5968721D92B221B18C
:106FD4002046FFF7A1FD5A46E1E72069FFF762FD6D
:106FE400F9E700BF96880200A08B0200848B0200A0
:106FF400AF8A0200BA8A0200C28A0200D58A02005D
:107004004D880200DE8A02006B88020000221146CD
:10701400FFF7E0BE012906D0022906D18368D3F820
:107024003C319B0701D5FFF7F1BF024A0221FFF76C
:107034009BBE00BF338B0200022910B5044608D161
:107044008368D3F83C319B0703D5BDE81040FFF7B4
:10705400DDBF2069054A064900F0D5F92069054AD3
:107064000349BDE8104000F0CEB900BF57880200C4
:107074008B8B02005B88020010B58368D3F83C2137
:1070840092070C4606D500221146FFF7A3FE012401
:10709400204610BD0029FBD05B68034A1B6802210F
:1070A400FFF762FEF4E700BFBC890200012937B58F
:1070B4000546144604D103B0BDE83040FFF7A6BF2F
:1070C400023918BF0121FFF7D7FF48B9636801935C
:1070D400044B0093044A236802212846FFF744FE28
:1070E40003B030BD3B8A0200318A020011F1FF3146
:1070F40010B518BF01210446FFF7BEFF48B9054A81
:107104000549206900F07FF9A36850225A731822B8
:107114001A7310BD608802008B8B020001292DE9CF
:10712400F341044615462CD18668FFF77BFD002801
:107134003BD1A36804F11005FA21284693F808808E
:107144009F7AFFF7B7FC20691E49FA2200F05BF929
:107154002046FFF767FD40BBA368197A7173A368E3
:10716400A1EB08019B7A33732846C9B2FFF7F2FDFD
:10717400317BC91BC9B2284602B0BDE8F041FFF714
:10718400DFBD022994BF00210121FFF775FF48B933
:107194006B6801930C4B00932B680C4A0221204628
:1071A400FFF7E2FD02B0BDE8F081A36850225A73F4
:1071B40018221A73064A0421204602B0BDE8F041A1
:1071C400FFF7D2BD6F8802003B8A0200318A0200B9
:1071D400748A02002DE9F04111F1FF3186B018BF25
:1071E40001210546FFF748FF40BBAB68DFF8548038
:1071F400D3F834610446EEB1082C1BD0304600238A
:10720400092203A9FFF79AFA9DF81420A9683046C9
:10721400092301329431FFF791FAAB68049E943349
:107224000093671C2346424608212846FFF79CFD2D
:107234003C46E0E7AB68002283F8942006B0BDE842
:10724400F08100BF698A020011F1FF3110B518BF47
:1072540001210446FFF710FF30B9A26892F83C31CF
:1072640060F3820382F83C3110BD11F1FF3110B597
:1072740018BF01210446FFF7FFFE30B9A26892F857
:107284003C3143F0040382F83C3110BD11F1FF316D
:1072940010B518BF01210446FFF7EEFE30B9A2680D
:1072A40092F83C3160F3C30382F83C3110BD11F114
:1072B400FF3110B518BF01210446FFF7DDFE30B9D8
:1072C400A26892F83C3143F0080382F83C3110BDC7
:1072D400022973B50D4694BF0021012104461646C8
:1072E400FFF7CAFE58B9022D0BD1736801930D4BF9
:1072F40000930D4A336829462046FFF735FD02B056
:1073040070BDA368094AD3F83C3113F0080F084B49
:1073140018BF1346074A0821204602B0BDE8704052
:10732400FFF722BD3B8A0200318A0200508A020024
:10733400538A0200578A020011F1FF3110B518BFB9
:1073440001210446FFF798FE40B9A368C3F82C0155
:10735400E368BDE81040D868FFF767B910BD0000C6
:107364001FB511F1FF3118BF01210446FFF784FE58
:10737400B8B9E368D868FFF755F9E368A168DB6832
:10738400C2B264209B6802935043B0FBF3F0C0B2D6
:1073940001920090D1F82C31034A08212046FFF7CE
:1073A400E3FC04B010BD00BFF8890200012907B551
:1073B40004D103B05DF804EBFFF728BE02290AD11B
:1073C40053680193084B00931368084AFFF7CCFCF9
:1073D40003B05DF804FB8CBF0121002103B05DF80C
:1073E40004EBFFF749BE00BF3B8A0200318A02006A
:1073F400826810B504462AB1436901680069984758
:107404000023A36010BD0EB403B5039929B102AAE9
:1074140004AB42F8043D00F06DF802B05DF804EBF3
:1074240003B07047826830B40468551C8560A15469
:10743400826843689A4202D330BCFFF7D9BF30BC9C
:10744400704700002DE9F84F0A9C99460B9B17469C
:10745400824688460A460126BA420FD24E4538BFB4
:107464004E4613F0010B01D164B900240125B9F192
:10747400010F1AD909F1FF397D43F8E7B2FBF7F29E
:107484000136E9E79B070ED5B9F1000F0CBF302593
:107494002025A642EAD2013C29465046FFF7C2FF06
:1074A400002CF6D1E1E72025F3E7B8FBF5F39F4282
:1074B400E2D9DFF83C90B8FBF5F3504619F8031015
:1074C40005FB1388FFF7AEFFB5FBF7F5002DF2D1EE
:1074D400BBF1000F0AD03CB9BDE8F88F013C202174
:1074E4005046FFF79FFF0CB1A642F7D3BDE8F88FD3
:1074F4002C8E02002DE9F74F054617460C4600294D
:1075040000F0358114F8011B49B92B7B002B00F0E6
:107514002E81284603B0BDE8F04FFFF769BF252947
:1075240040F0218123460026194611F8012B2D2A0B
:1075340024D0302A26D02B2A27D000242A2A994660
:1075440003F1010124D13B681A1D1B683A601C44F5
:10755400894699F800302E2B25D109F101014FF00D
:107564000008894611F8012BA2F1300009281CD823
:107574000A2303FB0823A3F13008F2E746F00106CF
:107584000B46D1E746F00206FAE746F00406F7E7B1
:107594001A780B46A2F130010929DAD80A2101FB35
:1075A4000424303CCAE74FF0000899F8001001F0B9
:1075B400FB02682A02D119F8011FF8E769290FD0E4
:1075C4004BD8582965D007D825296ED009F1010474
:1075D4002378002B96D198E7632962D06429F5D1EA
:1075E4003A68D2F800A0111D8AEAEA723960A2EB67
:1075F400EA724FF0010B092A5BDCC34538BFC3466E
:107604002CB1BAF1000F01DB710700D5013CB207C0
:1076140002D5B8F1000F04D0F30702D4002C4ED1E8
:107624000024BAF1000F52DACAF1000A2D212846CB
:10763400FFF7F8FE06F00302022A05D1B8F1000FA5
:1076440002D1002C47D100248DE8500043460A2281
:1076540051462846FFF7F6FEB8E773294CD014D8F4
:107664007029B3D13B681A1D3A60302128461C6842
:10767400FFF7D8FE78212846FFF7D4FE00230193B4
:107684000823009310222146E3E775292BD078299B
:107694009CD139680A1D3A6043468DE85000102297
:1076A40028E03B681A1D19783A602846FFF7BAFEAD
:1076B4008CE70A230BF1010B92FBF3F29BE7A34542
:1076C400AFD220212846013CFFF7ACFEA6E77007A5
:1076D400B0D52B21ABE7A345B6D230212846013CD7
:1076E400FFF7A0FEADE739680A1D3A608DE8500047
:1076F40043460A220968ACE73B681A1D3A60F10761
:10770400D3F800A012D55646A6EB0A0B16F8011BB7
:1077140041B95C457FF65AAF20212846013CFFF76A
:1077240081FEF6E72846FFF77DFEEDE7BAF1000F8C
:1077340011D0504600F0C8FE0646B44200D964B9E0
:107744000AF1FF3A1AF8011F00293FF43FAF284617
:10775400FFF768FEF6E75646EFE720212846013C8E
:10776400FFF760FEE9E72846FFF75CFE30E703B069
:10777400BDE8F08F054B1B68082B01BF044B18684C
:10778400B0FA80F0400918BF0020704730010010A3
:107794003401001008B54FF080430022C3F80C21D7
:1077A400C3F81021C3F838254FF0805203F5404345
:1077B400D2F80414C3F82015D2F80814C3F8241519
:1077C400D2F80C14C3F82815D2F81014C3F82C15E9
:1077D400D2F81414C3F83015D2F81814C3F83415B9
:1077E400D2F81C14C3F84015D2F82014C3F8441579
:1077F400D2F82414C3F84815D2F82814C3F84C1549
:10780400D2F82C14C3F85015D2F83014C3F8541518
:10781400D2F83414C3F86015D2F83814C3F86415D8
:10782400D2F83C14C3F86815D2F84014C3F86C15A8
:10783400D2F84424C3F87025FFF79CFF10B1384BED
:10784400384A1A60FFF796FF18B1374BFB22C3F88A
:107854001825FFF78FFF48B13449354B0A681B6878
:1078640022F00F0203F00F0313430B60FFF782FFB4
:1078740018B1304B4FF400721A604FF08043D3F8C4
:107884000024D20744BF6FF00102C3F800242A4A3F
:10789400D2F8883043F47003C2F88830BFF34F8FB6
:1078A400BFF36F8F4FF01023D3F80022002A03DBBD
:1078B400D3F80432002B2FDA204B0122C3F804251D
:1078C400D3F80024002AFBD04FF010221221C2F872
:1078D4000012D3F80024002AFBD04FF01023122208
:1078E400C3F80422154B1A46D3F800140029FBD020
:1078F4000021C3F80415D2F80034002BFBD0BFF3E9
:107904004F8F0D490E4BCA6802F4E0621343CB60FB
:10791400BFF34F8F00BFFDE70A4B0B4A1A6008BD47
:107924008C5600404881030000F00040E40E004003
:10793400580200104096024000ED00E000E00140D3
:107944000400FA05682200200090D00300230428D4
:10795400CB604B6098BF044B044A98BF53F8203067
:107964008A600B60704700BF848F0200608F020042
:10797400C36800225A727047C36801225A72704762
:10798400037813F0030F10B503F0040402D004F0DD
:10799400FF02F4B1B4B103F00303012B03D0022BB3
:1079A40009D0012010BD0A6800880232C0F3831098
:1079B40002440A60F5E70B684288023303EB921332
:1079C4000B60EEE70B684288013303EB92130288E5
:1079D400F4E7104610BD00002DE9F04F89B00646CB
:1079E400851C08A8494C019200230F4600F8113D5C
:1079F400FEF758FD23683B606268A368134422685D
:107A040001339B1A04F21C4704F5836A04F21448F8
:107A1400AB421AD3019A0023002A6FD0012262F3E9
:107A2400010343F0040366F389132168A2689DF8F7
:107A34000F000A4003320D4444F822302560FEF75B
:107A440055FD012009B0BDE8F08F01213846FEF74D
:107A5400C5FE5046FEF7DCFE4046FEF7D9FE0DF1AA
:107A640020096068D4F808B049F8100D00EA0B004A
:107A7400033004EB80004946FFF782FF049BB8B94A
:107A84000BEA030204EB8202D16805919A1C0133CC
:107A940003EA0B0B04EB8B0E0492DEF80C30069316
:107AA40001F00303012B21D0022B04D083460CE008
:107AB4000BEA0300DCE7BDF81630BDF81AB0C3F3D7
:107AC4008913033302EB930304934046FEF7A3FEAA
:107AD40008B1049B636059463846FEF77FFE62682E
:107AE400A3681344226801339B1A91E7BDF814304C
:107AF400BDF81AB0C3F383131344E5E7022262F31B
:107B0400010343F0040366F39F538EE75C230020D4
:107B1400012907B5034604D08168D1F83C118907CF
:107B240007D500221146184603B05DF804EBFFF7B1
:107B340051B953680193054B00931368044A022119
:107B4400FFF712F903B05DF804FB00BF3B8A0200A3
:107B5400318A02000B4B0C4A70B5D21A0B4CD20876
:107B640000230C219A4201D1052070BD01FB03457D
:107B74006E880568AE4202D10360002070BD0133F7
:107B8400F0E700BF648502008C8502002C220020EF
:107B940007B5019031B9074B019A53F8320003B08D
:107BA4005DF804FB01A8FFF7D5FF0028F3D00020FF
:107BB400F5E700BF64850200002310B5CB604B607D
:107BC400034B8B600C460121FFF7E2FF206010BDE0
:107BD400608F0200124B10B50C2404FB013100EB42
:107BE4004000072303FA00F48B6802F0070223EA3B
:107BF400040382401A43C2F3C20302F00700834223
:107C040038BF0346C2F3821083428A6038BF0346FA
:107C1400C2F342229A422CBF4A604B6010BD00BF9F
:107C24002C2200202DE9F74F0646154688460029E8
:107C340068D0C3684F49286893F80890072200F079
:107C44009EFBD0B9B8F1010F07D14B4A022130464F
:107C540003B0BDE8F04FFFF787B8484F04460A2247
:107C640057F82410686800F08AFB002866D00134B5
:107C7400052CF4D16B68424A33E008224149286854
:107C840000F07DFB58BBB8F1010F044630D001274A
:107C94003D4A3E4B01929B1A4FEAD30B05EB8705F5
:107CA40047452FD255F8043B00934FF0000AD345C3
:107CB40037D155F8043C364A02213046FFF754F8D0
:107CC4004FF0000A019B03EBCA029279A24246D309
:107CD400224651464846FFF77DFF0137E0E72B680F
:107CE4002C4A0221304603B0BDE8F04FFFF73CB800
:107CF400254B264FDFF8A0A0FF1AFF080025984661
:107D0400BD4202D103B0BDE8F08F08EBC5039B79F7
:107D1400A34219D3224629464846FFF75BFF0135A3
:107D2400EEE700215046FFF733FF2022009900F0D0
:107D340026FB0028C6D00AF1010AB8E7B8F1020F01
:107D4400E4B2D5D00227A3E700212846FFF720FF9D
:107D54005246034602213046FFF706F8DFE70021CA
:107D64005046FFF715FF0C4A034602213046FEF742
:107D7400FBFFB2E73C8E0200438E0200708F0200CC
:107D84008B8E02005A8E0200648502008C850200EC
:107D9400778E0200628E0200A88E020013B504469C
:107DA4000191A3B162B9104A019B0C2101FB032389
:107DB40004EB44049868E04000F0070002B010BDF2
:107DC40001A8FFF7C7FE0028EDD00020F6E72AB986
:107DD400064B019A03EBC2039879EFE701A8FFF77A
:107DE400B9FE0028F1D1F3E72C22002064850200BB
:107DF4002DE9F04F264B274DED1AC3681F7A5B7AA5
:107E040085B00646ED081BB9234A0221FEF7ACFFF4
:107E1400224B234ADFF89C8008213046FEF7A4FF5A
:107E2400204A08213046FEF79FFF0024AC4202D1CD
:107E340005B0BDE8F08F01231A4621463846FFF706
:107E4400ADFF00232146834601223846FFF7A6FFF3
:107E540003280246824628BF0322012120465FFAF6
:107E640082F9FFF795FE58F82B3000930E4A0F4B1A
:107E740058F829100191CA4598BF134602930C4A39
:107E8400034608213046FEF76FFF0134CEE700BFFA
:107E9400648502008C850200CD8E0200E08E020013
:107EA400EC8E02000A8F020011880200CB8E0200C1
:107EB400478F0200708F0200034B58681B68C31A77
:107EC40058425841704700BF5C2300202DE9F04719
:107ED40086B0FFF7F1FF0746002840F006818B4D7E
:107EE400C5F81804BFF34F8F6868AC680DF1180823
:107EF40048F8100D2040033005EB80004146FFF7A1
:107F04003FFD029B0646002864D104EA030205EB08
:107F14008202D76803979A1C0133234005EB83033D
:107F2400FFB2DB68049307F00303022B029263D1D0
:107F3400BDF80E307648C3F3891ABAF1500FD04613
:107F4400A8BF4FF0500868F38F1308F10801ADF88B
:107F54000E30FEF784FBC7F3C2078146002800F009
:107F6400CC80FEF7ADFB082203A933464846FEF752
:107F7400BAFB029924EA010201329200904534D9F5
:107F8400002A00F0B4802140D6B20331A8EB0608E1
:107F9400604C05EB81015FFA88F8082332464846B5
:107FA400FEF7A1FB34B106F10803424621464846D8
:107FB400FEF799FB029B0AF1030A03EB9A0302936F
:107FC400D5F81834002B4CD1D5F81044DFF8508183
:107FD4000C2663E02A689A4204D86A60384606B0E0
:107FE400BDE8F08704EA030085E70C40E11C0823A0
:107FF400424605EB8101DAE7012B7ED1BDF80C7016
:108004004348C7F38311062928BF062161F3891762
:1080140002318900ADF80C70FEF721FBC7F3C207EB
:108024008146002869D0FEF74BFB3346082203A99A
:108034004846FEF758FBBDF80C20C2F38312B31C6C
:1080440096424FEA8303BBD202994A1C2140033172
:10805400029205EB810104224846FEF744FB0136F7
:10806400E9E74846FEF730FBFFF726FF80F0010002
:10807400C7B2B3E7637A83B1BDF81010237A06FB65
:10808400018103EB43028B68052F23FA02F303F00B
:10809400070308BF0327BB4232D26468002CE9D12E
:1080A4004846FEF711FB06A800F8114DFEF7FAF951
:1080B400D5F818340BB9029B6B609DF80700FEF7E6
:1080C40015FAD1E7236820469B6898476468002C1A
:1080D400F8D1114B5A68012AC6D918880F490004EF
:1080E40040F0020000F076F8BEE7002776E75FFA7A
:1080F40088F61446074990464FE7D5F81044E6E75A
:10810400236849461B6820469847C6E75C2300203D
:108114008C850200682300202C220020109002008D
:108124002C2200202DE9F74F284C80460F4692461A
:1081340001A9012218469B46A568FFF74DFC88B3A8
:10814400DDF80490002609F102025E4534D10021D5
:108154001F48FEF71DFB80F3100009F101022A40BD
:1081640004EB8202000405EA0903033340EA1840E1
:10817400D06014F8232068F3C50204F8232034F8EF
:10818400232066F3891224F8232054F823200121A4
:1081940067F39F2244F8232061F301026FF3820204
:1081A40004F8232094F820341BB1FFF78FFE002835
:1081B400FBD103B0BDE8F08F02EA050104EB8101B5
:1081C4005AF82630CB6001360132BEE75C2300202A
:1081D4007827002000231A46FFF7A4BF084A38B5C1
:1081E4000123D2F8104482F820341D4604B938BD66
:1081F4002368657220465B6898476468F6E700BFA9
:108204005C23002007B508496846FEF79DFB019BE7
:1082140013B903B05DF804FB58681A6890476846C0
:10822400FEF79CFBF3E700BF94910200FFF7EABF5F
:1082340061DF704730B5114B1B7891B0E3B1104D3D
:1082440034240DF1020103A8ADF80240FFF7F0FF5A
:1082540070B9294601A8FEF777FB029B002BF0D0EA
:1082640003A81A685968904701A8FEF777FBF4E75A
:10827400052801D0FEF7CFF811B030BD80270020CB
:10828400A89102004BDF70471FB50D4C01A8FFF702
:10829400F9FF70B9214602A8FEF756FB039B002B99
:1082A400F4D001981A685968904702A8FEF756FB63
:1082B400F4E7052801D0FEF7AEF804B010BD00BF06
:1082C400C09102007F2805D8034B185C034B5B5C0C
:1082D4001840704700207047D8910200589202005D
:1082E400A0F16103192B98BF20387047A0F1410316
:1082F400192B98BF203070477F2805D8034B185C92
:10830400034B5B5C1840704700207047D891020013
:1083140058920200A0F16103192B98BF20387047CE
:10832400A0F14103192B98BF203070477F299ABFD1
:10833400017001206FF02E0070475AB10A787F2A2D
:108344000AD800B10260002119605960501A18BFA0
:1083540001207047002070476FF02E007047000026
:1083640008B5034B5B689B681B68984708BD00BF52
:108374006C22002008B50821FFF7F2FF08BDD2B136
:1083840070B4561E12D0037883B10A789A420DD184
:108394004C1C431C064418462146B34206D013F82D
:1083A400012B1AB101340D789542F4D000780B7882
:1083B400C01A70BC7047002070470000844640EA31
:1083C400010313F0030F18D18446202A0BD32DE99F
:1083D400F007B1E8F807A0E8F807A2F12002202A84
:1083E400F7D2BDE8F007042A07D351F8043B40F85C
:1083F400043BA2F10402042AF7D2002A05D011F8A2
:10840400013B00F8013B013AF9D16046704700BFD7
:108414008446002A2DD010F0030F04D000F8011B6D
:10842400013A26D0F7E7C9B241EA012141EA014104
:10843400202A12D3A2F120022DE9F0030B460C46A8
:108444000D460E460F4688468946A0E8FA03203AB0
:10845400FBD2BDE8F00320320BD0042A05D340F848
:10846400041B043A05D0042AF9D200F8011B013A8E
:10847400FBD16046704700BF10F0030F19D111F013
:10848400030F16D12DE970004FF001364FF0803301
:1084940050F8044B51F8045BAC4205D1A4EB06053B
:1084A40025EA04051D40F3D0A0F10400A1F1040164
:1084B40070BC10F8012B11F8013BD21A01D1002B2A
:1084C400F7D11046704700BF00F1010110F0030F0F
:1084D40011D010F8012B002A23D010F0030F0AD07A
:1084E40010F8012B002A1CD010F0030F03D010F851
:1084F400012B002A15D02DE970004FF001324FF006
:10850400803350F8044BA4EB020525EA04051D4012
:1085140000D1F6E7A0F1040070BC10F8012B002A8A
:08852400FBD1A0EB0100704740
:10852C0000000000388602000000000014880200E1
:10853C0000000000908B020000000000F08A020096
:10854C0000000000E889020000000000D889020049
:08855C00000000000090020085
:108564007B910200000003037F91020000000003DE
:10857400A091020000000303B49102000000030371
:08858400CC910200000003038A
:10858C008C220020542300205C2300209422002005
:0C859C0038220020869102001800000028
:1085A80039820200000000008D82020000000000F5
:1085B80000000000000000000000000000000000B3
:0C85C800000000000000000000000000A7
:1085D4000000000000000000000000000000000097
:1085E4000000000000000000000000000000000087
:1085F4000000000000000000000000000000000077
:0C8604000000000000000000000000006A
:10861000626F6F743000626F6F7431004661746115
:108620006C206572726F720053797374656D20727D
:108630006573657400000000148702001A87020049
:10864000488602005D6502000000000050860200BE
:108650005C91020039870200000000005D650200A5
:10866000000000000000000000000000000000000A
:108670004F766572666C6F77004E6F206F7665720D
:10868000666C6F770042616420617267756D656E1C
:108690007420636F756E740025730D0A092D2045D3
:1086A0006C656D656E742073697A653A0925640D91
:1086B0000A092D2055736167653A0925752525201E
:1086C000282575206F7574206F6620257520656CD0
:1086D000656D656E7473290D0A092D204D617869E9
:1086E0006D756D3A092575252520282575206F752E
:1086F00074206F6620257520656C656D656E7473DA
:10870000290D0A092D204D6F64653A090925730D5D
:108710000A0D0A00717565756500436F6D6D616EB8
:10872000647320666F722042414C4C4F43206D6150
:108730006E6167656D656E74005072696E7420734A
:108740007461747573206F66207175657565206935
:108750006E7374616E6365732E000000000000008C
:10876000648702005C9102002B8802000000000078
:10877000216802000000000000000000000000006E
:108780000000000025730D0A092D20456C656D65FC
:108790006E742073697A653A092564202B2025645C
:1087A000206279746573206F662064656275672046
:1087B000696E666F726D6174696F6E0D0A092D20A6
:1087C00055736167653A092575252520282575208B
:1087D0006F7574206F6620257520656C656D656EFC
:1087E0007473290D0A092D204D6178696D756D3AF4
:1087F000092575252520282575206F7574206F663D
:1088000020257520656C656D656E7473290D0A0DE4
:108810000A000000248802001A8702005C87020018
:108820002168020062616C6C6F63005072696E7443
:1088300020737461747573206F662062616C6C6F55
:108840006320696E7374616E6365732E0025630027
:108850001B45001B5B6D001B5B48001B5B324A0025
:108860001B5B3F336C001B5B366E00202D20001B12
:108870005B256442001B5B256444001B5B2564434D
:10888000001B5B25644100000000000000000000A8
:108890000338FDD870472D682C202D2D68656C702D
:1088A0000000000000000000AC880200EB8C020019
:1088B000F28C020024890200B1700200098D0200CE
:1088C0000E8D02005C890200D57202001F8D02002D
:1088D000258D0200EC880200B17302000000000048
:1088E0000000000000000000000000000000000088
:1088F000F48802002F860200358D0200000000007F
:108900003D730200618D0200668D020000000000D0
:10891000657302000000000000000000000000007D
:1089200000000000000000002C890200538A0200B1
:10893000FD8D0200000000004D720200508A02000E
:10894000158E0200000000006F720200000000009F
:108950000000000000000000000000000000000017
:1089600064890200538A0200908D0200000000001A
:1089700091720200508A0200EC8D0200000000009B
:10898000B3720200000000000000000000000000C0
:1089900000000000000000009C8902009F8C020083
:1089A000A78C020000000000F1700200000000002F
:1089B00000000000000000000000000025733A20C5
:1089C00077726F6E6720706172616D657465722079
:1089D000636F756E740D0A008B8C0200918C02001F
:1089E000000000003D700200638C0200678C0200F2
:1089F000A4880200197002004C6F7374206C6F67BA
:108A0000733A2025750D0A4D6178206C6F672071CF
:108A100075657565207574696C697A6174696F6EC6
:108A20003A2025752525205B25752F25755D0D0AB6
:108A30000025733A257325730D0A0020756E6B6E41
:108A40006F776E20706172616D657465723A200097
:108A50006F6E006F6666004563686F2073746174A3
:108A600075733A2025730D0A005B2533645D20255C
:108A7000730D0A004E6F20726573706F6E73652000
:108A800066726F6D20746865207465726D696E61C1
:108A90006C2C20617373756D6564203830783234C6
:108AA0002073637265656E2073697A650D0A004FE5
:108AB0007074696F6E733A0D0A002020252D2A7399
:108AC0003A0053686F7720636F6D6D616E64206844
:108AD000656C702E00202025732573257300537557
:108AE00062636F6D6D616E64733A0D0A0000000081
:108AF0004A8C0200528C020000000000D971020072
:108B00006E6F74207465726D696E617465643A206D
:108B100025630D0A003A20636F6D6D616E64206EEF
:108B20006F7420666F756E64002D68002D2D68656A
:108B30006C7000506C656173652073706563696665
:108B400079206120737562636F6D6D616E642E0DA7
:108B50000A005461622066756E6374696F6E3A2014
:108B6000636F6D6D616E647320636F756E74657293
:108B7000206F766572666C6F7765642E0D0A002033
:108B800020000D0A25732573000D0A2573000000CF
:108B9000A38B0200AA8B02009489020021710200BB
:108BA0002C2000726573697A6500436F6E736F6C79
:108BB000652067657473207465726D696E616C20E1
:108BC00073637265656E2073697A65206F722061C8
:108BD0007373756D657320383020696E206361731F
:108BE000652074686520726561646F7574206661C4
:108BF000696C732E204974206D7573742062652032
:108C00006578656375746564206166746572206556
:108C1000616368207465726D696E616C2077696448
:108C20007468206368616E676520746F20656E7379
:108C300075726520636F72726563742074657874F1
:108C400020646973706C61792E00686973746F7247
:108C50007900436F6D6D616E6420686973746F7223
:108C6000792E00636C690055736566756C2C206EF7
:108C70006F7420556E69782D6C696B6520434C4983
:108C800020636F6D6D616E64732E00636C6561723D
:108C900000436C6561722073637265656E2E0064BB
:108CA000656661756C7400417373756D652038304D
:108CB0002063686172732073637265656E207769E3
:108CC00064746820616E642073656E6420746869E2
:108CD000732073657474696E6720746F207468659F
:108CE000207465726D696E616C2E00636F6C6F72BB
:108CF0007300546F67676C6520636F6C6F72656497
:108D00002073796E7461782E006563686F00546F0C
:108D100067676C6520434C49206563686F2E00735C
:108D20007461747300434C49207374617469737483
:108D30006963732E00526573657420434C49207338
:108D400074617469737469637320666F72207468E8
:108D500065204C6F67676572206D6F64756C652E5A
:108D60000073686F770047657420434C4920737423
:108D7000617469737469637320666F7220746865C7
:108D8000204C6F67676572206D6F64756C652E008F
:108D900044697361626C6520434C49206563686F68
:108DA0002E204172726F777320616E642062757439
:108DB000746F6E733A204261636B73706163652CEC
:108DC0002044656C6574652C20456E642C20486FCA
:108DD0006D652C20496E7365727420617265206E1A
:108DE0006F742068616E646C65642E00456E61620C
:108DF0006C6520434C49206563686F2E004469739D
:108E000061626C6520636F6C6F7265642073796E4C
:108E10007461782E00456E61626C6520636F6C6FC3
:108E20007265642073796E7461782E00303132334C
:108E3000343536373839414243444546656E6162C0
:108E40006C650042616420706172616D6574657269
:108E500020636F756E742E0D0A0064697361626C15
:108E60006500556E6B6E6F776E206F7074696F6EF4
:108E70003A2025730D0A00556E6B6E6F776E206D6C
:108E80006F64756C653A25730D0A00556E6B6E6FD5
:108E9000776E207365766572697479206C65766586
:108EA0006C3A2025730D0A004C6576656C20756E52
:108EB000617661696C61626C6520666F72206D6FAE
:108EC00064756C653A2025730D0A002A004C6F67A3
:108ED00073206172652068616C746564210D0A00FD
:108EE0006D6F64756C655F6E616D6500252D343046
:108EF00073207C2063757272656E74207C206275AD
:108F0000696C742D696E200D0A002D2D2D2D2D2DCF
:108F10002D2D2D2D2D2D2D2D2D2D2D2D2D2D2D2D81
:108F20002D2D2D2D2D2D2D2D2D2D2D2D2D2D2D2D71
:108F30002D2D2D2D2D2D2D2D2D2D2D2D2D2D2D2D61
:108F40002D2D2D2D0D0A00252D343073207C20254C
:108F50002D3773207C20257325730D0A0000000037
:108F600001000000BD7B02000100000051790200F9
:108F70006E91020022860200739102006991020044
:108F8000639102006391020022860200699102004F
:108F90006E9102007391020000000000A08F020099
:108FA0005A8E020045900200608F0200297C020068
:108FB0003C8E0200AE900200688F0200297C020005
:108FC0003191020034910200000000007D7902001E
:108FD00043910200489102000000000075790200F0
:108FE0005C9102005591020000000000F57D020036
:108FF0000000000000000000000000000000000071
:109000002190020025900200988F0200157B02003B
:109010004261636B656E647320666C75736865642A
:10902000006C6F6700436F6D6D616E647320666FD7
:109030007220636F6E74726F6C6C696E67206C6FF8
:109040006767657200276C6F672064697361626C83
:1090500065203C6D6F64756C655F303E202E2E2060
:109060003C6D6F64756C655F6E3E2720646973614B
:10907000626C6573206C6F677320696E2073706516
:10908000636966696564206D6F64756C657320281B
:10909000616C6C206966206E6F206D6F64756C6505
:1090A0007320737065636966696564292E00276C97
:1090B0006F6720656E61626C65203C6C6576656CDF
:1090C0003E203C6D6F64756C655F303E202E2E2E09
:1090D00020203C6D6F64756C655F6E3E2720656E69
:1090E00061626C6573206C6F677320757020746F9C
:1090F00020676976656E206C6576656C20696E20E8
:10910000737065636966696564206D6F64756C650D
:10911000732028616C6C206966206E6F206D6F640F
:10912000756C657320737065636966696564292E63
:1091300000676F00526573756D65206C6F676769B6
:109140006E670068616C740048616C74206C6F67B6
:1091500067696E67004C6F6767657220737461742E
:10916000757300646562756700696E666F006E6F87
:109170006E65007761726E696E6700617070006283
:10918000616C6C6F632E6C6F675F6D656D706F6F78
:109190006C000000A8850200B885020008000000ED
:1091A0006E72665F736468002C8502002C85020075
:1091B000080000006E72665F7364685F626C650031
:1091C000B8850200B8850200080000006E72665F74
:1091D0007364685F736F63002020202020202020AC
:1091E0002068282828282020202020202020202017
:1091F00020202020202020204810101010101010B7
:1092000010101010101010108484848484848484BE
:1092100084841010101010101081818181818101CF
:10922000010101010101010101010101010101012E
:1092300001010110101010101082828282828202BD
:1092400002020202020202020202020202020202FE
:109250000202021010101020000703200417020160
:1092600008571040800000000C940200D0920200C9
:10927000E493020053756E004D6F6E0054756500E7
:109280005765640054687500467269005361740044
:10929000000000004A616E00466562004D61720088
:1092A000417072004D6179004A756E004A756C001C
:1092B00041756700536570004F6374004E6F760010
:1092C0004465630000000000414D00504D00000067
:1092D0000894020004940200049402000494020022
:1092E0000494020004940200049402000494020016
:1092F0000494020004940200FFFFFFFFFFFFFFFF42
:10930000FFFFFFFFFFFF0000449302007492020082
:109310008093020094920200C892020028930200F7
:10932000D893020034930200256D2F25642F2579F0
:10933000000000002561202562202565202554209D
:109340002559000053756E646179004D6F6E64613C
:10935000790054756573646179005765646E65734F
:10936000646179005468757273646179004672694A
:109370006461790053617475726461790000000062
:109380004A616E75617279004665627275617279C3
:10939000004D6172636800417072696C004D6179C3
:1093A000004A756E65004A756C7900417567757382
:1093B000740053657074656D626572004F63746FFD
:1093C000626572004E6F76656D626572004465631A
:1093D000656D62657200000025483A254D3A2553B7
:1093E00000000000C9820200E5820200F182020052
:1093F000FD820200198302002583020031830200EE
:109400003F830200000000002E0000004300000027
:08941000504F534958000000C1
:109418000090D003689202006892020068920200ED
:08942800689202006892020044
:040000032000626116
:00000001FF
