:020000024000BC
:109000000000042061920400B9920400BB920400A5
:10901000BD920400BF920400C19204000000000051
:10902000000000000000000000000000C3920400E7
:10903000C592040000000000C7920400C992040019
:1090400079F30400790B050089F30400D39204003E
:10905000D5920400D792040081F00400DB92040052
:10906000DD920400DF920400E1920400E392040028
:10907000E5920400E7920400E9920400EB920400F8
:10908000ED9204000DBB0400F1920400F392040081
:10909000A9BB0400F79204002D1F0500FB920400F9
:1090A000FD920400FF920400019304000393040066
:1090B0000593040007930400CB920400CB920400B4
:1090C000099304000B9304000D9304000F93040014
:1090D00011930400139304001593040061EB040042
:1090E000199304001B9304001D930400CB92040009
:1090F000CB92040021930400CB9204001F93040040
:10910000364937480A1A02D0072291438D4635491D
:1091100035480A1A06D00722914381F309880222B2
:1091200082F3148831483249324A00F045F8324817
:109130003249334A00F040F832483349334A00F0AC
:109140003BF833483349344A00F036F83348344961
:10915000344A00F031F834483449354A00F02CF8EC
:1091600034483549354A00F027F83548354900225A
:1091700000F02DF834483549002200F028F8344832
:109180003449091A082903DB002202600430016017
:10919000314A90471F482049884205D00268043070
:1091A00003B4904703BCF7E700208646EC46002056
:1091B00000212A4A9047FEE7884207D0521A05D07C
:1091C000037801300B700131013AF9D170478842C0
:1091D00002D002700130FAE770470000000004205E
:1091E00000E003200000042000000420F4480500F3
:1091F000042B0020A42B00202493040024930400BB
:10920000242B0500F4480500042B0020042B00202B
:10921000242D0500242D0500242D0500242D0500F6
:10922000242D0500242D0500242D0500242D0500E6
:10923000F448050094490500A42B0020A42B00202D
:10924000A42B0020E0430020E0430020E043002066
:10925000E0430020E06300208592040085000500C3
:109260000F484FF00701884385460E4880470E4857
:10927000016841F470010160BFF34F8FBFF36F8F3E
:10928000FFF73EBF09480A490A4A884207D0521AE6
:1092900005D0037801300B700131013AF9D17047E4
:1092A0000000042031D5040088ED00E0B82C050052
:1092B000982A0020042B0020FEE7FEE7FEE7FEE7E9
:1092C000FEE7FEE7FEE7FEE7FEE7FEE7FEE7FEE776
:1092D000FEE7FEE7FEE7FEE7FEE7FEE7FEE7FEE766
:1092E000FEE7FEE7FEE7FEE7FEE7FEE7FEE7FEE756
:1092F000FEE7FEE7FEE7FEE7FEE7FEE7FEE7FEE746
:10930000FEE7FEE7FEE7FEE7FEE7FEE7FEE7FEE735
:10931000FEE7FEE7FEE7FEE7FEE7FEE7FEE7FEE725
:04932000FEE700BFA5
:109324007047000007B5044B0093044A402300F043
:1093340032F803B05DF804FB45930400A52B00202C
:109344002DE9F84389461446E2B10F4B0F4E03252D
:10935400002743F00108224609EB0701002007F02B
:109364009FFD0744241A48B933785BB14FF47A401F
:10937400C047013D02D13570BDE8F8830123337045
:10938400002CE8D1BDE8F883302D0500A42B002083
:10939400704707F0D7BDF0B595B01C4608460D469A
:1093A400164602F07AFA1A9B099400240D930822B7
:1093B400234605A9284608960A948DF82C400C9457
:1093C40002F0A9FA079B0293BDF81830ADF80C30EF
:1093D400BDF81A30ADF80E309DF814308DF81140F8
:1093E40003F00302012A1DD1BDF81440059EC3F306
:1093F400C203C4F383148DF81030A20008230EA90D
:10940400284602F088FAC6F3952608AB0093224654
:1094140002AB0EA9304600F06BFB284602F041FA7D
:1094240015B0F0BD022AF8D1BDF81640C3F3C2034B
:10943400C4F389148DF810300827082C264628BF59
:1094440008263B4632460EA9284602F064FAA41BBD
:1094540008AB02AA31460EA8374400F0ADFB002C3D
:10946400EBD1DAE710B5054CFFF793FF0421204652
:1094740000F0AEFA0123637210BD00BF042B00207C
:10948400037813F0030F10B503F0040402D004F0C2
:10949400FF02F4B1B4B103F00303012B03D0022B98
:1094A40009D0012010BD0A6800880232C0F383107D
:1094B40002440A60F5E70B684288023303EB921317
:1094C4000B60EEE70B684288013303EB92130288CA
:1094D400F4E7104610BD00002DE9F04F89B00646B0
:1094E400851C08A8494C019200230F4600F8113D41
:1094F40001F026FD23683B606268A3681344226878
:1095040001339B1A04F21C4704F5836A04F21448DD
:10951400AB421AD3019A0023002A6FD0012262F3CE
:10952400010343F0040366F389132168A2689DF8DC
:109534000F000A4003320D4444F82230256001F044
:1095440023FD012009B0BDE8F08F0121384601F068
:1095540008FE504601F02EFE404601F02BFE0DF1B0
:1095640020096068D4F808B049F8100D00EA0B002F
:10957400033004EB80004946FFF782FF049BB8B92F
:109584000BEA030204EB8202D16805919A1C0133B1
:1095940003EA0B0B04EB8B0E0492DEF80C300693FB
:1095A40001F00303012B21D0022B04D083460CE0ED
:1095B4000BEA0300DCE7BDF81630BDF81AB0C3F3BC
:1095C4008913033302EB93030493404601F0F5FD42
:1095D40008B1049B63605946384601F0C2FD6268D5
:1095E400A3681344226801339B1A91E7BDF8143031
:1095F400BDF81AB0C3F383131344E5E7022262F300
:10960400010343F0040366F39F538EE7B82C002054
:1096140008B50E4B0E48FF229A600022C3F81824A6
:109624001A605A60C3F8142483F8202402F0ECF87A
:1096340038B9084A084B09499B1ADB0802469A4282
:1096440000D108BD21F822200132F8E7B82C00200F
:109654002C2C05007C2B05002C2C0500982A0020BE
:1096640030B50B4C79B10B4A0B49121BD2080023BD
:109674009A4201D1002030BD01EB83056D888542FB
:1096840002D00133F4E7034654F8330030BD00BF81
:109694007C2B05002C2C0500982A0020094B01394D
:1096A40003EBC000032909D8DFE801F00A0204062D
:1096B4000420704700797047407970470020704754
:1096C400022070477C2B0500034B58681B68C31AA3
:1096D40058425841704700BFB82C00202DE9F04390
:1096E40087B0FFF7F1FF0746002840F0E6807B4D86
:1096F400C5F81804BFF34F8F6868AC680DF11808FB
:1097040048F8100D2040033005EB80004146FFF778
:10971400B7FE029B064600285AD104EA0302991CAC
:10972400013305EB8202234005EB8303D268DB6837
:10973400049302F00303022B039202915AD1BDF861
:109744000E306748C3F389194F46502FA8BF5027DE
:1097540067F38F1307F10801ADF80E3002F06CF8CF
:109764008046002800F0B08002F097F8082203A990
:109774003346404602F0A4F8029924EA0102013279
:10978400920097422FD9002A00F099802140D6B246
:109794000331BF1B534C05EB8101FFB20823324652
:1097A400404602F08DF834B106F108033A462146EA
:1097B400404602F085F8029B09F1030903EB990383
:1097C4000293D5F81834002B47D1D5F8104450E053
:1097D4002A689A4204D86A60384607B0BDE8F08324
:1097E40004EA03008FE70C40E11C08233A4605EB2A
:1097F4008101DDE7012B67D1BDF80C303848C3F394
:109804008311062928BF062161F3891302318900D7
:10981400ADF80C3002F010F88046002854D002F065
:109824003CF83346082203A9404602F049F8BDF843
:109834000C20C2F38312B31C96424FEA8303C0D2B6
:1098440002994A1C21400331029205EB8101042252
:10985400404602F035F80136E9E7404602F021F8C7
:10986400FFF732FF80F00100C7B2B5E7637A73BB3C
:109874006468002CFAD1404602F013F806A800F8F8
:10988400114D01F05DFBD5F818340BB9029B6B60E8
:109894009DF8070001F078FBE2E7236820469B6807
:1098A40098476468002CF8D10F4B104918880004BD
:1098B40040F0020000F074F8D2E700278CE7FEB213
:1098C40014460849174669E7D5F81044EAE72368BF
:1098D40041461B6820469847CAE700BFB82C0020C1
:1098E4002C2C0500C42C0020B02A0020442D050097
:1098F4002DE9F74F284C80460F46924601A90122D4
:1099040018469B46A568FFF7E7FD88B3DDF8049089
:10991400002609F102025E4534D100211F4801F0FE
:10992400EDFB80F3100009F101022A4004EB8202EE
:10993400000405EA0903033340EA1840D06014F830
:10994400232068F3C50204F8232034F8232066F3A7
:10995400891224F8232054F82320012167F39F223D
:1099640044F8232061F301026FF3820204F82320F8
:1099740094F820341BB1FFF7B1FE0028FBD103B0EB
:10998400BDE8F08F02EA050104EB81015AF82630A4
:10999400CB6001360132BEE7B82C0020D430002061
:1099A40000231A46FFF7A4BF13B502AC012344F801
:1099B400042D2246FFF79CFF02B010BD07B58DE8C9
:1099C4000C0002236A46FFF793FF03B05DF804FB23
:1099D4000F4A30B5D2F810440023214641B903722E
:1099E400D2F810444CB9C2F810044160184630BD96
:1099F4000D7A9D4205D04968F0E762684260606074
:109A0400F4E701330A2BE8D14FF0FF33EEE700BF50
:109A1400B82C0020084A38B50123D2F8104482F843
:109A240020341D4604B938BD2368657220465B683E
:109A340098476468F6E700BFB82C0020C38873B564
:109A440004460D4633B1144A00921449144A284678
:109A540001F014FC217A05291CD0637A4BB1A0884B
:109A6400FFF71CFE0F4B104953F82020284601F045
:109A740005FC227A0D4BA08853F822600021FFF7E1
:109A8400EFFD0B4903463246284602B0BDE870405C
:109A940001F0F4BB02B070BDBD2D0500A52D05007D
:109AA4009D2D05006C2D050038390500CC2D0500D1
:109AB400C22D0500037A052B10B50C460FD0437A4E
:109AC40023B1084A0849204601F0D8FB074920463B
:109AD40001F0D4FB2046BDE8104001F0C4BB002ACD
:109AE400F8D0F3E7BD2D050038390500B935050078
:109AF4002DE9F04385B01F460C9D002306460C4615
:109B0400904695F80C902B7329463846FFF796FF3C
:109B1400B8F1060F09D8DFE808F00412181F28333B
:109B240040003146284601F0A9FB00222946384668
:109B3400FFF7C0FF85F80C9005B0BDE8F0832268FC
:109B44003146284601F09AFBEFE794E80C003146D1
:109B5400284601F093FBE8E7A3680093314694E8B4
:109B64000C00284601F08AFBDFE7E3680193A36851
:109B74000093314694E80C00284601F07FFBD4E7BB
:109B840023690293E3680193A3680093314694E840
:109B94000C00284601F072FBC7E76369039323694D
:109BA4000293E3680193A3680093314694E80C00A0
:109BB400284601F063FBB8E708292DE9F84F8046F1
:109BC4000E4617461C4636D8002593F80C901D7394
:109BD40019461046FFF732FFDFF87CA0DFF87CB0AF
:109BE400AE422AD918F805205946204601F046FB12
:109BF4000135082DF4D11649DFF864B0204601F090
:109C04003DFB0025AE421DD918F805A0504608F0CA
:109C1400D8FA002814BF52462E225946204601F095
:109C24002DFB0135082DEDD1012221463846FFF7E1
:109C340041FF84F80C90BDE8F88F5146204601F0AE
:109C44001DFBD5E70349204601F018FBE9E700BFF7
:109C540043440500982D0500962D0500902D050020
:109C64009A2D05001FB50021039001AA44F20100BA
:109C74000191029100F004F805B05DF804FB0000C6
:109C840010B572B6FFF7C6FEFFF728FD0028FBD11A
:109C9400104C11492088000440F00100FFF780FEB9
:109CA4000E4B1B68DB0700D500BE20880C4900045E
:109CB40040F00200FFF774FEBFF34F8F09490A4BCF
:109CC400CA6802F4E0621343CB60BFF34F8F00BF56
:109CD400FDE700BFB02A00202B2E0500F0ED00E0C8
:109CE400372E050000ED00E00400FA0549B152B139
:109CF400531E1A4007D1826001608380C2601046FF
:109D040070470E2070470920704710B58468C268F8
:109D14008388121B934208D3C26813400268D1544B
:109D2400C3680133C360002010BD042010BD8268E5
:109D3400C3689A420AD08268838813400268D35C5D
:109D44000B708368013383600020704705207047DF
:109D54000648074A03780749D35C012213B104304B
:109D640005F086BF0C3005F049BD00BF102B002064
:109D7400E8340020043100200648074A03780749E4
:109D8400D35C012213B1043005F02CBF0C3005F074
:109D9400E9BC00BF102B0020E8340020053100206E
:109DA40037B50578012D04D035D3022D28D003B062
:109DB40030BD43681F4C19782046FFF7A6FF78B1E1
:109DC4001D4B01908DF800501B6868469847A168A8
:109DD400E368A2885B1A9A420ED3FFF7B9FFE6E75D
:109DE400A268E3689A42F2D002AB134A03F8080D62
:109DF400126818469047EAE7104B01221A70D6E71A
:109E0400C36801938DF80050FFF7A2FF0A4B1B684B
:109E140068469847CBE70A490A48FFF788FF10B914
:109E2400FFF7AAFFC3E702A8032300F8083D024B8B
:109E34001B68EEE7E0300020DC300020F03000202A
:109E440005310020F4300020F0B51F46234B89B0C3
:109E540006461A600C4600293DD08A8820480968C5
:109E6400FFF744FF002834D1A289A1681D48FFF7F9
:109E74003DFF00282DD11C4D0FCD6C460FC495E835
:109E84000F0084E80F0073690693337C174A18485F
:109E94008DF81C70003318BF01238DF81430737CC7
:109EA400002B14BF0E2300238DF81530F3680293A2
:109EB400B36803933368019369467368009303F0AE
:109EC40067FE30B90B4B18703368013301D0FFF7CC
:109ED4003FFF09B0F0BD0720FBE700BFDC300020E6
:109EE400E0300020F4300020442E0500A59D04003D
:109EF400102B0020F030002070B5084C01460848B3
:109F04002678FFF714FF054636B100232370FFF7C8
:109F14001FFF08B1FFF7A6FE284670BDF0300020F1
:109F2400E030002043681B6818470000024B5B6860
:109F340003B11847704700BF0C31002010F0800FA8
:109F440014BF034B034B00F00F0003EBC00070473A
:109F5400183100206031002008B5FFF7EFFF0160E1
:109F640009B9416008BD4B681B68436008BD000027
:109F7400024B01465A681868104700BF6031002040
:109F840038B5831EDBB2062B98BF194A194C98BF0B
:109F9400D25C2378A3F10203DBB288BF0022062B34
:109FA4009ABF1349CB5C00239342054603D0A2B168
:109FB400114803F09BFC022D12D0082D10D0002371
:109FC4002278022A01D0082A0CD101229A4202D016
:109FD40053B104F01FFB257038BD03F0C1FCEAE760
:109FE4000123EDE70022F1E704F00AFBF3E700BFE9
:109FF400642E0500C4320020242B002073B50546CE
:10A0040001A9144800F0E9FF044600B32B6803607B
:10A0140002A8002600F8056D00F092FF0E4B0F48D1
:10A024001B88026801339B1AE380314601F066F80D
:10A03400A0809DF8030000F0A7FF01A9054800F0E7
:10A04400F6FF074B1B6801460BB12846984702B040
:10A0540070BD00BF2C2B0020A8310020C03200208E
:10A064000C31002037B503780546DBB902A80F4C44
:10A0740000F8013D00F064FF226812B90C4B6A88B5
:10A084001A800121094801F06CF89DF8070000F0DE
:10A094007BFF084B1B6813B10121284698472368AE
:10A0A40003B030BDFFF7AAFFFAE700BFC0320020BB
:10A0B400A83100200C310020FFF7D4BF012806D0BE
:10A0C40002D3022805D070470348FFF7CBBF0348EB
:10A0D400FBE70348F9E700BF702E0500742E050066
:10A0E400782E05000148FFF7BDBF00BF7C2E050098
:10A0F4002DE9F04F87B006AC002644F8106D0546F4
:10A104008946924698466B6800225F682946012377
:10A114002046B84740B98DF8060004900446074627
:10A12400BE4203D805202AE00136ECE76B680DF146
:10A134000602D3F804B02946012304A8D8476B6863
:10A144000DF10702D3F804B02946012304A8D84727
:10A154009DF807304B459DF8063015D1544511D173
:10A16400109A136088F8003088F801906A68023BFE
:10A174005468294608F1020204A8A047002007B049
:10A18400BDE8F08F0134E4B26A68023BD2F804B04F
:10A194002946002204A8D8479DF806301F44BFE78B
:10A1A4002DE9F341082305464FF4847230493148C0
:10A1B40000F000FF002858D12F4804F03BFA044671
:10A1C40000284ED12D4B18702D4B18602D4B014695
:10A1D400186048222C4808F067F8482221462B488A
:10A1E40008F062F82A4BDDB91D605D601D72002025
:10A1F40003F048FC18B1852801D0FFF733FD254D45
:10A204002F7A002205F10906541C9742E4B21DD9A5
:10A2140012B202EB4202921918D04FF0000808E083
:10A2240095E8070083E80700E1E72946D05CFFF7DB
:10A2340093FE53785FFA88F18B4205D993780B44E7
:10A24400DA4208F10108F0D12246DDE702A90B2326
:10A2540001F8043D0F48FFF765FE044608B104F019
:10A26400A1F8204602B0BDE8F0810324F9E700BF5D
:10A27400AA3100202C2B0020BDA00400C4320020F1
:10A28400B4320020B83200201831002060310020A0
:10A294000C310020A82E050010B504F06FF908B9A0
:10A2A400082010BD04F072F904460028F8D10448CF
:10A2B40003F016FC18B1FFF7D5FC204610BD10BD05
:10A2C4006C2E050004F07EB804F046BD4FF08043C8
:10A2D400D3F83824920702D50348FFF7C3BED3F856
:10A2E4003824D107F4D470477D2E050007B502A8A1
:10A2F400822300F8043DFFF781FE03B05DF804FB00
:10A3040013B5012000F0FEFD044628B102A8842301
:10A3140000F8043DFFF772FE204602B010BD0000B5
:10A32400F7B5017A032300F1090203FB0101044696
:10A334000931154691421FD09AB9237A571C93428A
:10A34400FFB22BD912B202EB4202AA1826D0002681
:10A3540018E0D05CFFF7F2FD036801361BB1112051
:10A3640027E057780026F3B29F4203D99378334409
:10A37400DA42EED10332DDE70022DEE72146D05C8B
:10A38400FFF7EAFD5178F3B2994205D991780B446D
:10A39400DA4206F10106F1D13A46CEE7074B1A68D4
:10A3A4004AB902A91C600B2301F8043D2046FFF7BB
:10A3B400B9FD03B0F0BD1368F1E700BFB43200206B
:10A3C400044B1A6812B918601046704713680433B6
:10A3D400F7E700BFB8320020074B1A680AB9052016
:10A3E4007047824205D102680020516819605060AC
:10A3F400704713680433F0E7B8320020024A137838
:10A404000133137000207047BC320020024A1378D5
:10A41400013B137000207047BC320020024B1878B7
:10A42400003018BF01207047BC32002000F00F0339
:10A43400072B10B5044604D804F02EFA204604F085
:10A4440007FA2046BDE8104004F00EBD014B186821
:10A45400704700BFB432002070B50A4B1B687BB153
:10A464001E7A0022D5B2B54201D31B68F6E7013249
:10A4740002EB42041C44A4798442F3D101B10D706F
:10A48400184670BDB43200201146FFF74BBD08B525
:10A4940000F00F03082B07D8FFF750FD006818B130
:10A4A400BDE80840FFF73EBD102008BD38B5054B98
:10A4B40005461C6804B938BD29462046FFF732FD1D
:10A4C4002368F6E7B432002038B5074B05461C680C
:10A4D4000CB9062038BD29462046FFF723FD06287F
:10A4E400F8D12368F3E700BFB432002038B504463E
:10A4F4000D4604F0E2F848B1054B1B78022B05D158
:10A5040029462046BDE8384004F0DAB8082038BDB2
:10A51400C432002038B504460D4604F0CEF848B1E4
:10A52400054B1B78022B05D129462046BDE838404F
:10A5340004F03AB9082038BDC4320020F8B54368A5
:10A544009B6805460C4616466BB9D6B92B7AA342CE
:10A5540019D9093504EB44042C446778F3B29F42BB
:10A5640005D80020F8BD98470628EED0F8BD6278DB
:10A574009A420AD9A219A378D05CFFF757FF013693
:10A58400ECE70720F8BD7378FFDE00231B78FBE7B8
:10A594004368DB6870B505460C4603B198472B7ACF
:10A5A400A34213D9093504EB44042C4400256678EE
:10A5B400EBB29E4200D870BD62789A4209D9621902
:10A5C400A378D05C04F01EFC0135F1E700235B782E
:10A5D400FFDE00231B78FBE743681B6903B11847C0
:10A5E4001846704770B5084B1C6804B970BD267ACC
:10A5F4000025E9B2B14201D32368F5E700222046E1
:10A60400FFF79CFF0135F4E7B432002070B5084B26
:10A614001C6804B970BD267A0025E9B2B14201D3A1
:10A624002368F5E72046FFF7B3FF0135F5E700BFE0
:10A63400B432002038B50478082C054600F0D680E2
:10A644001ED8032C00F0AB8012D8012C00F09780A8
:10A6540040F287800320FFF793FC0220FFF766FC9B
:10A664002846FFF723FF2846BDE83840FFF780BCA3
:10A67400052CF9D0C0F09580062C00F0A18038BDDF
:10A68400802C48D008D80A2C00F0B080C0F0AA80F2
:10A694000F2C00F0AB8038BD822C1ED004D3832C49
:10A6A40045D0842C4DD038BD5248FFF761FC514849
:10A6B400FFF7FCFE0D20FFF739FC4F4B1B6853B925
:10A6C4004E4B187A03F02EFFFFF7A0FF0120BDE8E0
:10A6D4003840FFF755BC0120F4E7FFF797FF04F07B
:10A6E4001FFB0020FFF74CFC4548FFF7DFFE444802
:10A6F400FFF73EFC0E20FFF719FC424B1B78023B90
:10A70400DBB2062B74D8404AD35C002B70D0BDE872
:10A71400384003F025B93B4B1B78062B05D0072B9B
:10A7240001D0052B64D10220D1E70820CFE7354BB7
:10A734001B78032B5CD104F029FB002858D004209B
:10A74400C5E7304B1B78032B05D104F01FFB10B178
:10A754000420FFF715FC03F023FF002848D006204F
:10A76400B5E70020FFF7E2FB234B1C6804B938BDB2
:10A7740020462946FFF7D6FB23685C68F6E7FFF717
:10A7840045FF0220FFF7FCFB2046FFF7CFFB2846DE
:10A79400FFF7EEFB2846BDE83840FFF787BE0520EB
:10A7A400F0E70320FFF7C2FB1848FFF7E1FB174867
:10A7B400FFF77CFE134B1B78062BB4D1072086E7EA
:10A7C4008078FFF7BBFB294643680068984778B157
:10A7D400A87800F00F03013B062B09D8BDE83840E8
:10A7E40004F02AB80920FFF7A1FBD3E72046FAE7D3
:10A7F40038BD00BF7E2E0500B83200200C31002089
:10A804007F2E0500C4320020642E0500802E050032
:10A8140073B5234D002301932B6823B921492248A2
:10A8240000F015FC28602C68ECB1A68886B1E3889A
:10A83400B3F5006F24BF0023E380E388ADF806304E
:10A844005A1C013EE280A68001A8FFF7F3FE07E050
:10A854002046FFF7EFFE1349134800F023FC2E6057
:10A86400012002B070BD114B18680028F9D002A86D
:10A8740000F8054D00F064FB0D4B0C481A88B2F546
:10A88400006F28BF1C801A88ADF80620511C19805F
:10A89400012100F080FC9DF8030000F075FBD3E774
:10A8A400C8320020083100202C2B0020C0320020A8
:10A8B400A8310020002070472DE9F04F4B6887B085
:10A8C40081460C4602925BB90B681B681B683BB956
:10A8D4008D682DB905604560284607B0BDE8F08F46
:10A8E40003F0A6FFE768029B9F4228BF1F464FF074
:10A8F400000804F11003834601974646012503939B
:10A90400019B63B3A368DDF804A061689A4528BF7E
:10A914009A4649B352460BEB060007F09BFC002312
:10A924006360A268E3680199A2EB0A02A3EB0A033D
:10A93400A1EB0A01A260E3600191564412BBB8F195
:10A94400000F03D02268126812682260E3B1236802
:10A95400E3B963601EB1029BB34288BF0025C9F806
:10A9640000B0C9F80460B7E7002BDAD02168039877
:10A974004B680BEB0602D3F804805346C0474FF0F4
:10A984000108CEE7002BBBD10025B9E70DF1180A69
:10A9940000234AF8083D21684B685B6800221F4683
:10A9A40050460123B84708B92061A9E7A3680133D9
:10A9B400A360F0E7084B1A7882420CD0052818BF30
:10A9C400064A187018BF137805481CBF23F0020309
:10A9D4001370FFF72FBE7047D4320020F0320020EE
:10A9E400B82E050038B505460C4603F0D1FFA84241
:10A9F40001BF94E80300034B83E80300002018BF61
:10AA0400102038BDF43200207FB5C38893421D4620
:10AA140028BF154693420E46144624D9802003F0DD
:10AA240047FEB4FBF0F303FB1040B0FA80F040099A
:10AA3400039004A8002300F80D3D0196029500F050
:10AA44007FFA01A98020FFF751FD044620B9074988
:10AA54008020FFF7C7FF04469DF8030000F094FA36
:10AA6400204604B070BD0020E2E700BFEC2E0500D4
:10AA74002DE9F04F0B78013B87B00E460D2B12D811
:10AA8400DFE813F00E001700130011002400FA0190
:10AA940011001100110011001700E701EB01F8018A
:10AAA4000320FFF787FF062404E0B84800F085FB85
:10AAB40020B90024204607B0BDE8F08FB44B012232
:10AAC4001A60BFF36F8FBFF34F8FF2E705230DF1C9
:10AAD4000D00B04D8DF80C3003F0EEFE00232B601A
:10AAE4009DF80D3003F01F02032A00F27981DFE89C
:10AAF40012F00400060163017300C3F34116002E33
:10AB04006AD1DB099DF80E1000F09980062917D050
:10AB1400082900F0878000295ED19F4C022220463C
:10AB240007F0C2FB237843F0010222709B4A12789B
:10AB3400900744BF43F0030323700222964909E0BF
:10AB44009DF81030022B0BD0032B60D0012B43D186
:10AB5400934912220DF10D00FFF756FF044638E029
:10AB6400BDF81370092F28BF0927FFF76FFC4FF0BA
:10AB740009080446B1469CBB874C8A493A4620469C
:10AB840007F068FB2671A4F80280FFF747FC18B1B0
:10AB9400E37943F02003E371FFF758FC824B83E829
:10ABA4009100BDF81320DA6001A800238DF8043069
:10ABB40000F0C6F97D498020FFF7ACFC044620B9BB
:10ABC4007B498020FFF70EFF04469DF8040000F047
:10ABD400DBF9062C40F00C8103A8FFF775FCD0E0EC
:10ABE400CDF804904FF0000A63680022D3F804B053
:10ABF4002146012301A8D84730B9237A1E4423688B
:10AC0400D044F6B21C68B6E70AF1010AECE7BDF8D5
:10AC140011109DF80F0000F07FF901460028DBD0E9
:10AC2400027897E7634A1278052A03D15A4A1370C7
:10AC3400012283E7042ACFD1574B1E70F8E701396C
:10AC44000829C9D801A353F821F000BFC7AC0400F8
:10AC5400DDAB04008DAC0400DDAB040075AC040076
:10AC6400DDAB0400DDAB0400DDAB0400E1AC0400AB
:10AC7400504B1B78033B022B00F2E980FFF7C6FC24
:10AC84000420FFF797FE0FE0BDF80F30012BA3D18E
:10AC9400FFF7C4FB18B90F2403F077FE0AE73F4A15
:10ACA400137843F0020313702C68002C00F00D811C
:10ACB40003F06EFE044600287FF4FBAE03F022FE90
:10ACC400F8E6BDF80F30012B86D1FFF7A7FB00286B
:10ACD400E1D0324A137823F00203E4E7354B1B78C2
:10ACE400043B012B00F2B3809DF80F30002BC5D03C
:10ACF400012B40F0EF80FFF775FC0520C1E701A9A7
:10AD04009DF81100FFF7A8FB074600283BD003AAD3
:10AD14009DF80410FFF7B8FB0628044668D19DF897
:10AD24000D2012F0600FB7D1224B9DF80410187853
:10AD34009DF80E30D60916D07BB10A2BACD105286C
:10AD440040F085803846FFF747FC134932460870C7
:10AD54000DF10D00FFF758FE13E0052877D10E49D9
:10AD64000B800222F4E70B2B96D105286FD1BDF896
:10AD74000F30FF2B00F2AE809DF80F203846FFF70E
:10AD8400DDFB044634E0102486E700BFFC320020DB
:10AD94005C700240F432002000330020F0320020C6
:10ADA400D82E0500B92E0500D8320020042F050046
:10ADB400EC2E0500D43200209DF81100010711D1BA
:10ADC4009DF80D3013F0600F0AD19DF80E20424B10
:10ADD4009DF811401B78012A27D00DD3032A15D0E2
:10ADE400062459E703A9FFF752FB06280446E7D0D7
:10ADF400002C3FF459AF4FE7052B01D0220726D191
:10AE0400204603F02FFD35490880AAE704F00F021D
:10AE1400072AE5D8BDF80F100029E1D1052B00D091
:10AE2400AAB9204603F008FD3EE704F00F02072A02
:10AE3400D6D8BDF80F100029D2D1052B00D032B9D5
:10AE4400204603F029FD204603F002FD2CE70824E8
:10AE540022E70020FFF7AEFD2BE64FF08043D3F846
:10AE6400384414F0010401D00220F3E70120FFF775
:10AE7400A1FD1FE60120EDE7C87803283FF413AED7
:10AE8400174D2B6823B300222A606968984704464B
:10AE940000287FF401AF2B6823B1B378002B7FF433
:10AEA40008AE0BE70F4B1B78082B0ED10E4B1B681B
:10AEB4001B070AD10D4B1B6813F0F00F05D10C4B87
:10AEC4001B6813F0F00F3FF4F4AD03F05BFDF1E504
:10AED4000E24E1E60724DFE6D4320020003300200C
:10AEE400F4320020E00F00F0E40F00F0E80F00F06F
:10AEF400EC0F00F008B1402303600148704700BF25
:10AF040000330020034B1B7843FA00F000F00100EB
:10AF1400704700BFF032002040B1042808D8054B28
:10AF2400185C30B1044B53F8200070470348704755
:10AF3400002070477C2F0500682F05000C2F0500AA
:10AF440070B5EFF3108672B60C4A946801239CB96D
:10AF540093600B4B0B4DD3F8801029401160C3F85C
:10AF64008050D3F8841051604FF0FF32C3F884202E
:10AF7400047006B962B670BD0370FAE75C33002052
:10AF840000E100E0FC06FFBD084B9A6810B55AB119
:10AF940050B9EFF3108272B605491C680C605C6806
:10AFA4004C60986002B962B610BD00BF5C330020EB
:10AFB40000E100E010B561B1B2FBF3F403FB14242B
:10AFC400A4B244B980E8120084608281C38120461F
:10AFD40010BD0E2010BD092010BD37B550E8013F4B
:10AFE4009DB2C48925448489A54228BF2D1B0489A8
:10AFF400A54202BFBFF32F8F002207E0C5EA030575
:10B0040040E80154002CE9D14FF001028DF80320EF
:10B014000193019B9DF803200B6002F0FF0322B112
:10B024000B880068184403B030BD1846FBE70A8853
:10B034004B889A4209D150E8012FC2EA024240E803
:10B044000123002BF7D1012070470020704737B54A
:10B0540050E8023F1FFAA3F5C488A54202BFBFF31C
:10B064002F8F00220DE0C48925448489A54228BF7E
:10B074002D1BC3EA054540E80254002CE8D14FF0EB
:10B0840001028DF803200193019B9DF803200B60BE
:10B0940002F0FF0322B14B880068184403B030BDAE
:10B0A4001846FBE70A884B889A4209D150E8022FD8
:10B0B400C2EA224240E80223002BF7D10120704764
:10B0C4000020704701F01F024B090121914000EB61
:10B0D400830000F01FB801F01F0301229A404B09BE
:10B0E40000EB8300D14300F02FB84B0901F01F019E
:10B0F40050F82300C84000F00100704700B550E844
:10B10400002F0B4640E8003E9EF0000FF7D110469A
:10B114005DF804FB00B550E8003F43EA010240E853
:10B12400002E9EF0000FF6D110465DF804FB00B52A
:10B1340050E8002F02EA010340E8003E9EF0000FB1
:10B14400F6D110465DF804FB00B550E8003F03EA71
:10B15400010240E8002E9EF0000FF6D110465DF883
:10B1640004FB00B550E8003F03EB010240E8002E69
:10B174009EF0000FF6D110465DF804FB00B550E8D0
:10B18400003FA3EB010240E8002E9EF0000FF6D131
:10B1940010465DF804FB00B550E8003F8B422CBF1D
:10B1A4005A1A1A4640E8002E9EF0000FF4D11046B9
:10B1B4005DF804FB0121FFF7ADBF0021FFF7B7BF26
:10B1C40010B590B14268836801689B1ADBB20A60CB
:10B1D400013BDBB2FF2B026802D10020107110BDCD
:10B1E40011684C1C14600B70F2E70E2010BD37B5CB
:10B1F400054602A8002400F8014DFFF7A1FE2A68C5
:10B204006B68116899420ED9481E106011F8014C00
:10B21400EB68A98A01FB0434AB6811791B1ADBB211
:10B22400994238BF13719DF80700FFF7ADFE204621
:10B2340003B030BD37B5054602A8002300F8013D30
:10B244000C46FFF77DFE2A681368591C1160E968F3
:10B25400641AA98AB4FBF1F41C709DF80700FFF787
:10B2640093FE03B030BD826810B504462AB1436929
:10B274000168006998470023A36010BD0EB403B5AC
:10B28400039929B102AA04AB42F8043D00F06CF81A
:10B2940002B05DF804EB03B07047826830B4046810
:10B2A400551C8560A154826843689A4202D330BC1D
:10B2B400FFF7D9BF30BC70472DE9F84F0A9C994677
:10B2C4000B9B1746824688460A460126BA420FD28D
:10B2D4004E4538BF4E4613F0010B01D164B900242A
:10B2E4000125B9F1010F1AD909F1FF397D43F8E7B6
:10B2F400B2FBF7F20136E9E79B070ED5B9F1000F6F
:10B304000CBF30252025A642EAD2013C29465046EE
:10B31400FFF7C3FF002CF6D1E1E72025F3E7B8FBE4
:10B32400F5F39F42E2D9DFF83C90B8FBF5F35046C1
:10B3340019F8031005FB1388FFF7AFFFB5FBF7F50A
:10B34400002DF2D1BBF1000F0AD03CB9BDE8F88F53
:10B35400013C20215046FFF7A0FF0CB1A642F7D3D1
:10B36400BDE8F88F812F05002DE9F74F05461746F4
:10B374000C46002900F0358114F8011B49B92B7BD8
:10B38400002B00F02E81284603B0BDE8F04FFFF7F4
:10B394006ABF252940F0218123460026194611F869
:10B3A400012B2D2A24D0302A26D02B2A27D0002462
:10B3B4002A2A994603F1010124D13B681A1D1B680E
:10B3C4003A601C44894699F800302E2B25D109F1A6
:10B3D40001014FF00008894611F8012BA2F1300059
:10B3E40009281CD80A2303FB0823A3F13008F2E739
:10B3F40046F001060B46D1E746F00206FAE746F0AE
:10B404000406F7E71A780B46A2F130010929DAD8C5
:10B414000A2101FB0424303CCAE74FF0000899F8E4
:10B42400001001F0FB02682A02D119F8011FF8E7A5
:10B4340069290FD04BD8582965D007D825296ED053
:10B4440009F101042378002B96D198E7632962D08F
:10B454006429F5D13A68D2F800A0111D8AEAEA728B
:10B464003960A2EBEA724FF0010B092A5BDCC34599
:10B4740038BFC3462CB1BAF1000F01DB710700D508
:10B48400013CB20702D5B8F1000F04D0F30702D48F
:10B49400002C4ED10024BAF1000F52DACAF1000A8E
:10B4A4002D212846FFF7F9FE06F00302022A05D1F2
:10B4B400B8F1000F02D1002C47D100248DE85000D0
:10B4C40043460A2251462846FFF7F6FEB8E7732999
:10B4D4004CD014D87029B3D13B681A1D3A6030217E
:10B4E40028461C68FFF7D9FE78212846FFF7D5FEC9
:10B4F400002301930823009310222146E3E77529D2
:10B504002BD078299CD139680A1D3A6043468DE8CE
:10B514005000102228E03B681A1D19783A6028462A
:10B52400FFF7BBFE8CE70A230BF1010B92FBF3F24E
:10B534009BE7A345AFD220212846013CFFF7ADFE8F
:10B54400A6E77007B0D52B21ABE7A345B6D23021CF
:10B554002846013CFFF7A1FEADE739680A1D3A60B1
:10B564008DE8500043460A220968ACE73B681A1D7F
:10B574003A60F107D3F800A012D55646A6EB0A0BA1
:10B5840016F8011B41B95C457FF65AAF20212846C5
:10B59400013CFFF782FEF6E72846FFF77EFEEDE763
:10B5A400BAF1000F11D0504606F0FCFE0646B44234
:10B5B40000D964B90AF1FF3A1AF8011F00293FF4CF
:10B5C4003FAF2846FFF769FEF6E75646EFE720212E
:10B5D4002846013CFFF761FEE9E72846FFF75DFED8
:10B5E40030E703B0BDE8F08F70B508B10368B3B9B4
:10B5F4000D4D0E4B14225B1B0024B3FBF2F302FB34
:10B6040003F6A64201D1002070BD2B5928190BB9AD
:10B614001434F6E7DB6998470028F9D070BDDB697C
:10B62400BDE87040184700BFF02A0020F02A00202F
:10B6340029DF704728DF704770B503689D6886B0BE
:10B6440004460E466DB118220021684606F02CFE11
:10B65400A3680593237901962BB1012B0DD068467D
:10B66400A84706B070BD01238DF80030236902930A
:10B67400E368039363690493F1E702238DF80030D0
:10B68400E3681B030293F5E7034B187A0122B0FA2F
:10B6940080F05A74400970476833002070B5244D17
:10B6A400244E2B7A2C463BB923492448FFF7CFFC80
:10B6B400306008B9686070BD0223237233681A7958
:10B6C40072B1012A24D018460321FFF7B5FF0023E5
:10B6D4002372636018491948BDE87040FFF7E2BC63
:10B6E40098695A69D9681D69121AB2F5805F28BF32
:10B6F4004FF480529208012A014438BF01222844A1
:10B70400FFF796FF50B11128DDD10123237270BDDC
:10B71400D8681A691044FFF78DFFF3E7237C2BB92F
:10B724000146BDE87040022000F00AB870BD00BFB9
:10B7340068330020803300207C330020402B00201D
:10B7440038B5831E012B45D8234C237A002B41D0D6
:10B75400022B09D1032830D0204B1B680022E26061
:10B764001A793AB1012A22D0637C7BBBBDE8384008
:10B77400FFF794BF9A6959698D1AB5F5805F94BF34
:10B78400521902F580529A619142EDD102284FF08C
:10B79400000308BF19462372104B18BF0D21186807
:10B7A400FFF74AFF0E490F48FFF77CFCDCE71A69F4
:10B7B40001321A615B699A42E7E7E3680133082BB7
:10B7C40001D8E360D0E70023E360DFE7BDE8384059
:10B7D40006F080BB38BD00BF6833002080330020F2
:10B7E4007C330020402B002000F0FD03012B08D106
:10B7F400044B00225A74421E504250411874FFF701
:10B804004DBF704768330020FFF7DABCF8B54679BE
:10B814000446721E00239342246804D30146002583
:10B82400B54202D3F8BD0133F5E70F682046FFF7B0
:10B8340001FD01353946F3E72DE9F843878ACD1C2C
:10B844008046FFF7D4FC043F3D440446B5FBF7F5BE
:10B85400002650B10123EDB206714371C780013D4A
:10B86400C0F800808146AE4202D32046BDE8F8838A
:10B874004046FFF7BCFC074648B163790133637166
:10B884000136C9F80000C0F800808146EBE7204685
:10B89400FFF7BCFF3846BDE8F88301210430FFF709
:10B8A40060BC10B5012104460430FFF767FC10F0BA
:10B8B400FF0F04D12046BDE81040FFF7A7BF10BD1D
:10B8C4002DE9F843C68804330F46B3FBF6F4154656
:10B8D40006FB143380463CB9A6EB0309A94528BFEF
:10B8E400A9462DB9BDE8F883D8F80080013CF2E7F9
:10B8F400043308EB0300A5EB09054A46391906F0A1
:10B90400A9FCAE424C44D8F80080B1464FF0000385
:10B9140028BFA946E5E72DE9F843C6880F46191D57
:10B924001546B1FBF6F4804606FB14113CB9A6EBB0
:10B934000109A94528BFA9462DB9BDE8F883D8F85F
:10B944000080013CF2E704314144A5EB09054A4675
:10B95400381906F07FFCAE424C44D8F80080B1465A
:10B964004FF0000128BFA946E6E741DF7047000019
:10B9740007B502A8002300F8013DFFF7E1FAF1EE54
:10B98400103A23F09F03E1EE103ABFF35F8F0A4BA6
:10B994004022C3F884219DF80700FFF7F5FA06F06A
:10B9A400A9FA20B1FFF7E1FF03B05DF804FB20BF63
:10B9B40040BF20BFF8E700BF00E100E00B684A6821
:10B9C4004360934208BF0023016008BF436070478F
:10B9D400436843B10268916852680B4493424360E0
:10B9E40004BF0023436070470D4930B5A1F594723C
:10B9F4000225914201D8002030BD8B1ADB1093FB45
:10BA0400F5F302EBC30452F83330834205D802D273
:10BA140004F10802EDE7606830BD2146E9E700BFA4
:10BA2400F030050008B5FFF7DFFF024B002808BF20
:10BA3400184608BDB52F0500094A5378917801339B
:10BA4400DBB2994208BF0023117899421FBF0370EB
:10BA54005078182303FB002014BF043000207047E3
:10BA64008433002073B5054602A8002400F8014D74
:10BA74000E46FFF765FA0DF10600FFF7DDFF90B102
:10BA840006700A4B9DF8062045605A709DF8070021
:10BA9400FFF77AFA24B9064B4FF48012C3F8002159
:10BAA400204602B070BD0424F0E700BF84330020B8
:10BAB40000E100E0024B4FF43C6043F001031847FF
:10BAC400B034050038B50C4B0C4C4FF40032C3F8BD
:10BAD400802001254FF48033C4F84833C4F8083378
:10BAE4006560FFF7E7FF064BA56000241C60FFF7C5
:10BAF400E1FF044B1C7038BD00E100E00010014080
:10BB0400A034002091340020F8B51F4B1F491B6856
:10BB14000025C1F84051C1F84451C1F84851C1F859
:10BB24004C51C1F80051C1F804514BB3D1F804454C
:10BB340017490968641A24F07F442F461A68A24200
:10BB440009D8A41A15441A7CDE691AB11F745A69FB
:10BB540098699047AEB90F4B0F4A197813788B4206
:10BB640005D10133DBB2022B08BF00231370127816
:10BB74000A4B43F822500A4B4FF48012C3F80021B9
:10BB8400F8BD3346DAE700BFA434002000100140BA
:10BB9400A03400209C3400209D34002094340020E4
:10BBA40000E100E02DE9F74F9C4A9D49137809789C
:10BBB4009C4E994257D00133DBB2022B08BF0023BD
:10BBC400137099491278994B0F6853F822003B1867
:10BBD40023F07F4300220B603368154614469646D3
:10BBE40013B942B1336006E01968814229D902B120
:10BBF4003360091A19604FF0010833688C4FDFF87D
:10BC04003CB200934FF00009002D61D02C46ED6941
:10BC1400854B60681A68831A23F07F41854B9942EB
:10BC2400A36800F2B7800B44236000236360A36021
:10BC3400E361336801222274002B40F0B380346046
:10BC4400E2E7401A0C44D968C3F800E0D3F81CC0FA
:10BC540031B13A1922F07F42DD615A6099601D4684
:10BC640063460122BCE70025A846C6E7531CB97801
:10BC7400DBB299423B704FF0180303FB027208BF1A
:10BC84003D7013799468022B1BD0032B11D0012B28
:10BC94001ED1217CE1B9D36863601369A360536941
:10BCA400E3609369A361644B1B78002BB0D061609F
:10BCB400AEE7002335681A46002D67D143B13560DD
:10BCC40006E0326813469246002B5AD100232374AF
:10BCD4003A787B789342C9D1B9F1000F06D1336821
:10BCE400009A9A4202D1B8F1000F44D03368002B75
:10BCF40073D0D3F800A0514D4B4BD5F804751C6894
:10BD0400DFF840813E1B98F8003026F07F4603366A
:10BD14009BB94FF48033C5F84433C5F80433484B1A
:10BD24004FF400324FF00109C3F880211A60C5F8BE
:10BD34000090FFF7BFFE88F80090B2452CBF544432
:10BD4400A41924F07F44C5F84045D5F80435DB1B1D
:10BD540023F07F43E41B033324F07F44A3420AD936
:10BD6400D5F80435C5F84035FFF7A4FE344B4FF43D
:10BD74000032C3F80021304B00221A7003B0BDE832
:10BD8400F08F9C422CD09A46DB699DE72A740123EC
:10BD9400ED6991E7121A22F07F429A4234BF9B1A4E
:10BDA400002341E7226819688A420BD88A1A1A606C
:10BDB400E36144E7521AD969184661B92260E16126
:10BDC400DC6121E7184619689142F3D3891A196096
:10BDD40019460346F2E70B46F5E7FFF773FECAE799
:10BDE40054450DD1D369336053B90F4801920121F1
:10BDF400CBF808100360104B1970FFF75BFE019A33
:10BE0400E1692368CAF81C1011B1086803440B6087
:10BE140033689A4218BF4FF0010957E79C34002059
:10BE24009D340020A4340020A03400209434002049
:10BE340084330020FEFF7F00903400200010014076
:10BE440000E100E0913400202DE9F7431E4FBB7858
:10BE540005460E469046ABB3A0B3042930D94369D6
:10BE640083B3437C02A80024012B00F8014D0CBFCE
:10BE74008946A146FFF764F80DF10600FFF7DCFDE3
:10BE8400E0B101230370114B4560D3F8043583609E
:10BE94009DF80630C660C0F81090C0F814807B701E
:10BEA4009DF80700FFF770F824B9094B4FF480128E
:10BEB400C3F80021204603B0BDE8F0830424EFE773
:10BEC4000724F7E70824F5E7843300200010014035
:10BED40000E100E0064A92783AB130B1426922B1F9
:10BEE400002202740221FFF7BDBD0820704700BF85
:10BEF400843300202DE9F0471C461B7886B00646A3
:10BF0400884615460E2B3FD8DFE813F00F001E00BD
:10BF1400D800DD003E003400B8003E003E003E0084
:10BF24003E00E300F50008010A012A7A0AB9002458
:10BF340015E061889200B1FBF2F302FB13139BB28C
:10BF4400002BF4D16C682CB16FF008012846FFF780
:10BF5400FBF8ECE72B685A0705D5FEF7D1F9204624
:10BF640006B0BDE8F0872B681B07E0D4D8F814307E
:10BF74009B68A0E06378DA094FEA53175BD017F0A7
:10BF8400030703D0012F3DD00624E8E703F01F0385
:10BF9400012BF9D1A378062BF6D103A80297FEF75B
:10BFA400A9FF02ABE27821790093054603463046A7
:10BFB400FEF79EF8052806D0029A2946601CFEF773
:10BFC40023FD0446CBE70DF1180949F8087DD8F89C
:10BFD4001430E2780092D3F810A0002201233146F5
:10BFE4004846D04760B9D8F81430E2780092D3F8C4
:10BFF40010802A463B4631464846C0473A46DCE76D
:10C004000137E4E7A378022B0DD0032B0FD0012BCB
:10C01400BAD12379013B012BB6D84B691B68214661
:10C0240030469847CDE73A4605F10801C6E73A4657
:10C0340005F10901C2E7012FA6D1A3780A2B0CD080
:10C044000B2B0DD0092B9FD12379022B9CD14B694B
:10C054001A68002A98D05B68E1E723792B7266E7B7
:10C06400B4F80310C9B26972D8F81830003118BF97
:10C074000121002B3FF45BAF984758E794F9023055
:10C08400002B0ADAE3781BB98B690BB103219847BB
:10C094006B68002B3FF46AAF56E74B69DB68002BF3
:10C0A4003FF472AFE3781BB98B690BB10221984757
:10C0B400D8F81430DB683046984782E704212846D4
:10C0C400FFF728F833E76FF004012846FFF73CF840
:10C0D4004CE7FEF775F9044600287FF440AF30467C
:10C0E400FEF78CF9044600287FF439AF0121284675
:10C0F400FFF710F833E7FEF76FF9044600287FF4E2
:10C104002EAF3046FEF782F9044600287FF427AFAD
:10C114006FF001012846FFF717F820E70221CEE768
:10C124006FF0020112E7C06870470000F0B5B94D26
:10C134000C7A2C700468B4F5D47F00F09E8165D825
:10C1440040F29F16B44200F04C81B4F5D07F2CD25B
:10C1540040F29716B44200F00C81B4F5CC7F0AD2B9
:10C16400002C00F0E780B4F5CB7F00F0F6800023CC
:10C1740003601846F0BD40F29D16B44200F01781EA
:10C18400B4F5CF7F80F0218140F29B16B442EED10A
:10C1940000240AB10679165501340026A34206711B
:10C1A40000F2068140F29D13D4E0B4F5D17F00F093
:10C1B4003F8114D8B4F5D07F00F01F8140F2A1165E
:10C1C400B442D4D100240AB10679165501340026AC
:10C1D400A342067100F22D814FF4D173BAE0B4F595
:10C1E400D37F00F0328100F23C8140F2A516B442C4
:10C1F400BDD100240AB10679165501342126A34283
:10C20400067100F223814FF4D373A3E040F2C11608
:10C21400B44200F08681B4F5E17F54D240F2B31603
:10C22400B44200F04D81B4F5DA7F30D240F2A91661
:10C23400B44200F02E81B4F5D57F98D100240AB120
:10C2440006791655744E4F693770744E00270134C1
:10C254003770724EDFF8C0E137789EF800E0BE45D3
:10C2640000F224816E4F3F6897F801E06D4F87F824
:10C2740000E000273770694E37786A4E3678B74247
:10C28400C0F03C81684F3E7801363E7054E040F285
:10C29400B716B44200F02881B4F5E07F00F0358190
:10C2A400B4F5DB7F7FF463AF00240AB10679165539
:10C2B4005E4E36880134360AA342067100F21581B7
:10C2C40040F2B71346E040F2CB16B4420CD0B4F5BA
:10C2D400E67F15D240F2C516B44200F03F8140F229
:10C2E400C916B4427FF443AF00240AB10679165547
:10C2F40001344026A342067110D84FF4E77329E0B5
:10C3040040F2CF16B44200F04481B4F5E87F00F067
:10C314004C81B4F5E77F7FF42AAF00240AB1067993
:10C32400165501340026A342067100F2338140F20F
:10C33400CF130FE03C4E34703B4E37782E78B74223
:10C3440002D34FF4EA7305E00926A342067105D827
:10C354004FF4CB7303600120F0BD00240AB10679C9
:10C36400165501340426A342067103D840F29713EC
:10C37400F0E700240AB1067916552B4E0F7A367869
:10C38400DFF89CE0B74204F1010440F2188101F1A6
:10C39400090706EB460607EB060CA342BE5DCEF882
:10C3A40000C006713FF6F5AE40F29B13D2E70024BD
:10C3B4000AB1067916551A4E366801347678067134
:10C3C400A34203D84FF4CF73C4E700240AB106791B
:10C3D400165501340326A342067103D840F29F1375
:10C3E400B8E700240AB10679165501340E7E0671A9
:10C3F400A34203D84FF4D073ACE700240AB1067902
:10C40400165501344E7E0671A3423FF6DCAE40F26F
:10C41400A1139FE7B2340020A8340020B3340020D5
:10C42400B8340020B0340020B1340020AA340020F5
:10C4340000240AB10679165501340926A34206716F
:10C444003FF6D8AE40F2A51384E700240AB106797A
:10C45400165501341126A342067103D840F2A713DE
:10C4640078E700240AB10679165501340126A3425F
:10C47400067103D84FF4D4736CE700240AB106792B
:10C48400165501340026A342067103D840F2A913BD
:10C4940060E700240AB10679165501344E69067125
:10C4A400A3423FF6CCAE4FF4D57353E70E6956F86A
:10C4B4002760A3423679067103D840F2B31349E7E3
:10C4C40000240AB1067916553F4E37780E6956F89E
:10C4D40027603E4F36683E800134A34206713FF622
:10C4E400E4AE4FF4DB7335E700240AB10679165540
:10C4F400354F3E78013601343E70AAE60726A34242
:10C50400067103D84FF4E07324E700240AB10679D6
:10C51400165501340526A342067103D840F2C1130F
:10C5240018E700240AB106791655294EDFF8A4E06D
:10C534003768254E96F800C07E78664504F10104FC
:10C544003DD9BE78664407EB060CA342BE5DCEF827
:10C5540000C0067103D840F2C513FBE600240AB1FB
:10C56400067916551B4E36683678802E04F1010480
:10C5740007D90326A34206713FF6B7AE40F2C913AA
:10C58400E8E60026A34206713FF6AFAE40F2CB13B5
:10C59400E0E600240AB10679165501340126A342C7
:10C5A400067103D84FF4E873D4E600240AB106797F
:10C5B4001655054F3E78013601343E705BE6002384
:10C5C400CEF800301B78FFDEB3340020AA340020FC
:10C5D400B8340020B434002030B5036AC9781A682E
:10C5E40087B011701A685B68054606A800240132FA
:10C5F400013B00F8154D039204930594FEF7A0FC4B
:10C60400204603A9FDF772FF044630B9064B019397
:10C6140001A90295FEF7E6F904469DF80300FEF72A
:10C62400B3FC204607B030BD65C604000A79012A70
:10C634000B4604D1C16906C9581CFEF7E5B9022AA4
:10C6440001D1016AF7E70620704710B404460B468F
:10C6540054F8102B214608325DF8044BFFF74ABC0E
:10C6640010B50B46044628B98A6A18460221904739
:10C67400204610BD032010BD1FB5027A0346A2B1A7
:10C68400817A012900F1090211D9C17A1B6A0A448D
:10C6940001A950781A685B680293002301920393FE
:10C6A400FDF724FF05B05DF804FB5378FFDE00239B
:10C6B4001B78FBE72DE9FF41037A05680446002B4C
:10C6C4003AD0837A00F10902002B37D0C37A0835B7
:10C6D4006FF00801284612F80380FEF735FDE06A82
:10C6E40000F084F9064628BB04F11000FFF71BFD97
:10C6F400324601460746E06A00F07FF904A83B6829
:10C70400019300F80D6D7B6802930396FEF718FC05
:10C7140001A94046FDF7EAFE044618B90821284657
:10C72400FEF7F8FC9DF80300FEF72EFC204604B04B
:10C73400BDE8F0810024F9E75B78FFDE1B78FCE7B5
:10C7440038B504460568C06A00F050F920B920469F
:10C75400BDE83840FFF7AEBF6FF0080105F10800EF
:10C76400FEF7F2FC002038BDF0B504689DF81460B3
:10C7740044B140F2EB15AC424FF0000420D0046009
:10C784002046F0BD0D6955F826502F68114D2F60D5
:10C79400114D2C60104D0F4F2D683F68BD4202D3E0
:10C7A4004FF4F77309E00F6957F82670BF68A34286
:10C7B4007D5D057104D840F2EB1303600120F0BDE8
:10C7C4000AB105791555044F3D68013501343D60C2
:10C7D400E0E700BFBC340020AC34002073B505464C
:10C7E4000668C06A8DE80600694600F031F8044620
:10C7F40078B9B3685A0704D5FDF782FD204602B024
:10C8040070BDB3681B07F9D42846FFF753FF0446ED
:10C81400F4E71124F2E7036A5A680A60186870475B
:10C82400026813685268934291BFD01A806801303D
:10C83400801888BFC01A7047036881681A685B68EB
:10C844008B4234BF01330023D31A584258417047F6
:10C85400F7B5044602A8002300F8013D0D46FEF793
:10C864006FFB2046FFF7E8FF10B1237C002B3CD17F
:10C874002268A66853685168B14234BF013100216F
:10C88400516030B11168A068814234BF0131002188
:10C894001160E2686068511E072920D8DFE801F0C2
:10C8A40004101F141F1F1F182A78C2542046FFF7B4
:10C8B400B7FF23689A68904200D99860002415E075
:10C8C4002A8820F81320F1E72A6840F82320EDE7AE
:10C8D400D5E9006700EBC300C0E90067E6E7294635
:10C8E40002FB030005F0B6FCE0E704249DF8070012
:10C8F400FEF74AFB204603B0F0BD13B5044602A878
:10C90400002300F8013DFEF71BFB2046FFF788FFDC
:10C9140004469DF80700FEF737FB204602B010BD21
:10C924002DE9F04F8368D3F83C319B078BB0064662
:10C9340006D5002211460BB0BDE8F04F00F0D8BA7E
:10C94400012906D9234A02210BB0BDE8F04F00F0BB
:10C9540099BA214C214D224FDFF88880DFF8889066
:10C964001C232D1BB5FBF3F503FB0545AC4202D19B
:10C974000BB0BDE8F08FE36809932368D4F808A0EE
:10C98400D3F808B02046FFF7B8FF94F810E00290FF
:10C99400642303FB00F1BEF1000F0CBF3A4642468C
:10C9A40003FB0BF3B3FBFAF30493099BB1FBFAF11A
:10C9B400079201910093CDF818A06369CDF814B0E3
:10C9C400CDF80CA04A460821304600F05BFA1C342E
:10C9D400CCE700BF2D350500742C0500902C050014
:10C9E4001835050021350500403505000368186831
:10C9F4005B68C31A58425841704773B5054602A88C
:10CA0400002300F8013D0C461646FEF799FA284625
:10CA1400FFF7ECFF002832D129680B682EB90A68A9
:10CA2400A868824238BF561C0E60EA686968501EC6
:10CA340007281ED8DFE800F0040E1D121D1D1D1668
:10CA4400CB5C237000249DF80700FEF79DFA204676
:10CA540002B070BD31F813302380F3E751F823306E
:10CA64002360EFE701EBC301D1E90023C4E900230C
:10CA7400E8E702FB0311204605F0ECFBE2E705249E
:10CA8400E1E7036898687047036800229A6070477A
:10CA940008B105F087BC70472DE9F843089C1E4691
:10CAA4000F46E1B9194C1A4D2D1BED08954204D9D6
:10CAB400184800EB8208AF4201D100230AE0636802
:10CAC400D8F80000196805F045FCA146083420B9DF
:10CAD400D9F804303360BDE8F8830137EBE7002868
:10CAE400EBD003784BB1436821461046984723683E
:10CAF400002BE2D03460BDE8F88312014368991832
:10CB04009B58002BD9D03160BDE8F883902C0500E8
:10CB1400B82C0500F02A002007B5836821B3DA7B1E
:10CB24008A421ED01B228DF800205B228DF8012042
:10CB340031228DF802203B228DF8032033228DF818
:10CB4400042001F12F028DF805206D228DF80620B6
:10CB540000228DF80720D9736A4605490069FEF75B
:10CB64008DFB03B05DF804FBD973024AF5E700BFFF
:10CB74003839050006360500836807B51A7C8A42F1
:10CB840018D01B228DF800205B228DF8012034225E
:10CB94008DF8022001F12F028DF803206D228DF80B
:10CBA400042000228DF8052019746A46034900699F
:10CBB400FEF764FB03B05DF804FB00BF38390500E1
:10CBC400014A0249FEF75ABB03360500383905000D
:10CBD4000A4600680149FEF751BB00BF2E36050026
:10CBE40009B1FFF7F5BF70472DE9F34106460F463B
:10CBF4001446002514B902B0BDE8F08170680368DA
:10CC04002246D3F80C80791901ABC047019B1D441F
:10CC1400E41A002BEED1B3681A78032AEAD0D3F8C9
:10CC24003C219206FBD593F83C216FF3451283F81F
:10CC34003C21DFE72DE9F04F054685B017460E4647
:10CC4400002979D00C46A4EB060A14F8010B05F070
:10CC5400B3FA0028F7D1BB1B01935FFA87F830467B
:10CC6400FFF716FFAB685C7BA0EB0A00E41BA04255
:10CC740006EB0A0928D80024A04218D019F8043079
:10CC84000A2B0AEB04081DD12869FEF7ECFA2246A8
:10CC94002C4649462846FFF7A7FF54F8100FFFF724
:10CCA4008FFFF9B2204608F1010AFFF799FF2869BE
:10CCB40006EB0A01FEF7E2FA286905B0BDE8F04F79
:10CCC400FFF77EBF0134D7E7019BCB46A3EB0A02F3
:10CCD400ABEB09039BF800000392029305F06CFA96
:10CCE400039A28B19BF80000029B0A281C4607D02F
:10CCF400A868407B02EB0B0398420BF1010BE7D8C9
:10CD04002869FEF7B0FA224649462846FFF76CFF29
:10CD140054443444A4EB060A14F8010B05F04CFA0D
:10CD24000028F7D12C4654F8100FFFF749FF41466D
:10CD34002046FFF755FF92E705B0BDE8F08F0000ED
:10CD44002DE9F34106468068424F002480222146A3
:10CD540094308DF8034005F0A7FA3F493069FEF797
:10CD64008DFA3069FEF77FFA4FF47A7547F00107C0
:10CD7400706803680122D3F810800DF1030101AB40
:10CD8400C047019B5BB94FF6C010B847019B002B0D
:10CD9400EED1013DADB2002DEAD10D2035E09DF874
:10CDA4000330B2681B2B48D092F894101B29EDD1A4
:10CDB400522B42D11444002184F8941092F89530F7
:10CDC4005B2B1FD102F19604022314F8010B0133EB
:10CDD4003B28DBB21CD11D0622D40020D41894F8C1
:10CDE4009440FCB9FA2886BFFA2313721072FA2908
:10CDF40088BFFA234FF000008CBF9372917282F8BF
:10CE0400940002E082F894100B2002B0BDE8F08197
:10CE140001EB810100EB41013039802B89B2D4D17F
:10CE24000C20F2E7013300EB800004EB4000DBB29E
:10CE340030381C0680B2F3D4D0E711190134E4B2BF
:10CE4400092C81F89430A1D9002382F8943004206D
:10CE5400DBE700BF40360500193605000A4619B164
:10CE640002490068FEF70ABA704700BF343605006D
:10CE74000A4619B102490068FEF700BA704700BFBC
:10CE8400283605000CB4F7B508AB02AD53F8046BB3
:10CE940045F8043D0F468168D1F83C315B070446F0
:10CEA40020D5CB7BBB421DD002220F31684605F052
:10CEB400D1F939462046FFF72FFE2A46314620692C
:10CEC400FEF752FA9DF800102046FFF725FE9DF864
:10CED400011011B12046FFF74FFE03B0BDE8F0404A
:10CEE40002B070472A4631462069FEF73DFAF4E75E
:10CEF4002DE9F04F04468BB08148DFF82892904624
:10CF04000E4605F04FFA05467E4805F04BFAA36835
:10CF14007D4A5B68CDF8009008212D1A1B682046D5
:10CF2400FFF7B0FFA3685B681868FFF7B1FD074619
:10CF3400484605F037FAA3685B683A1892B2596814
:10CF44002046FFF777FE714A08212046ADB2FFF76D
:10CF540099FFB8F1000F1ED0EEB1B1460027D9F801
:10CF64000400FFF795FD8246D9F80000FFF790FD15
:10CF74005044A8420AD9D9F80400FFF789FD0546B0
:10CF8400D9F80000FFF784FD0544ADB20137B84578
:10CF940009F10C09E3D15B4805F004FA02300544B9
:10CFA400ADB2574B0093EF1C594A082120462B463B
:10CFB400BFB2FFF767FF3A4656492046FFF73AFEED
:10CFC4004EB9A3685B68D3F80890B9F1000F49D152
:10CFD4000BB0BDE8F08FDFF838A14FF00009C14570
:10CFE400EFD096E80C00002B34D05AB30192454A96
:10CFF40000920821484A2046FFF744FF7068FFF773
:10D0040047FD03903068FFF743FD83463D4805F034
:10D01400C9F9039BEB1AA3EB0B031B1AD9B204F156
:10D024001000FFF7DDFD3A223C492069FEF726F99E
:10D03400B16899B13A462046FFF7FCFD09F10109B0
:10D044000C36CCE700932B46524608212046FFF7C6
:10D0540019FFEDE7002AEBD00092F4E72069FFF70F
:10D06400AFFDEBE70DF12808002248F8142D164611
:10D0740006AF009743460121484602F1010AFFF733
:10D084000BFD059D5DB12868FFF702FDB04204D990
:10D09400059B1868FFF7FCFC86B25246E9E7BAF133
:10D0A400010F95D01E4A08212046FFF7EBFE06F13A
:10D0B400020A2A46164D1FFA8AFA434600970121AE
:10D0C400484602F1010BFFF7E7FC059B002B3FF4F8
:10D0D4007FAF1B6800932A46534608212046FFF77A
:10D0E400D1FE059B5968721D92B221B12046FFF70B
:10D0F400A1FD5A46E1E72069FFF762FDF9E700BFA9
:10D10400463605004C390500313905005F38050005
:10D114006A38050072380500853805009A2D050027
:10D124008E3805001E36050000221146FFF7E0BECA
:10D13400012906D0022906D18368D3F83C319B0724
:10D1440001D5FFF7F1BF024A0221FFF79BBE00BFE2
:10D15400E3380500022910B5044608D18368D3F8E2
:10D164003C319B0703D5BDE81040FFF7DDBF2069C4
:10D17400054A0649FEF782F82069054A0349BDE8D5
:10D184001040FEF77BB800BF0A36050038390500A9
:10D194000E36050010B58368D3F83C2192070C467F
:10D1A40006D500221146FFF7A3FE0124204610BD38
:10D1B4000029FBD05B68034A1B680221FFF762FE6B
:10D1C400F4E700BF6C370500012937B5054614465E
:10D1D40004D103B0BDE83040FFF7A6BF023918BF41
:10D1E4000121FFF7D7FF48B963680193044B00930B
:10D1F400044A236802212846FFF744FE03B030BDE9
:10D20400EB370500E137050011F1FF3110B518BF08
:10D2140001210446FFF7BEFF48B9054A05492069C4
:10D22400FEF72CF8A36850225A7318221A7310BD03
:10D23400133605003839050001292DE9F341044668
:10D2440015462CD18668FFF77BFD00283BD1A368E7
:10D2540004F11005FA21284693F808809F7AFFF715
:10D26400B7FC20691E49FA22FEF708F82046FFF7AA
:10D2740067FD40BBA368197A7173A368A1EB080129
:10D284009B7A33732846C9B2FFF7F2FD317BC91B81
:10D29400C9B2284602B0BDE8F041FFF7DFBD02295C
:10D2A40094BF00210121FFF775FF48B96B68019312
:10D2B4000C4B00932B680C4A02212046FFF7E2FD39
:10D2C40002B0BDE8F081A36850225A7318221A7381
:10D2D400064A0421204602B0BDE8F041FFF7D2BD62
:10D2E40022360500EB370500E13705002438050038
:10D2F4002DE9F04111F1FF3186B018BF0121054637
:10D30400FFF748FF40BBAB68DFF85480D3F83461C3
:10D314000446EEB1082C1BD030460023092203A991
:10D32400FEF7F9FA9DF81420A96830460923013262
:10D334009431FEF7F0FAAB68049E94330093671CB3
:10D344002346424608212846FFF79CFD3C46E0E779
:10D35400AB68002283F8942006B0BDE8F08100BFDA
:10D364001938050011F1FF3110B518BF0121044629
:10D37400FFF710FF30B9A26892F83C3160F38203E2
:10D3840082F83C3110BD11F1FF3110B518BF0121F5
:10D394000446FFF7FFFE30B9A26892F83C3143F02F
:10D3A400040382F83C3110BD11F1FF3110B518BFF0
:10D3B40001210446FFF7EEFE30B9A26892F83C3131
:10D3C40060F3C30382F83C3110BD11F1FF3110B595
:10D3D40018BF01210446FFF7DDFE30B9A26892F8B8
:10D3E4003C3143F0080382F83C3110BD022973B587
:10D3F4000D4694BF0021012104461646FFF7CAFEDC
:10D4040058B9022D0BD1736801930D4B00930D4A4B
:10D41400336829462046FFF735FD02B070BDA36886
:10D42400094AD3F83C3113F0080F084B18BF1346D0
:10D43400074A0821204602B0BDE87040FFF722BD2C
:10D44400EB370500E1370500003805000338050017
:10D454000738050011F1FF3110B518BF012104464A
:10D46400FFF798FE40B9A368C3F82C01E368BDE850
:10D474001040D868FFF708BB10BD00001FB511F1BC
:10D48400FF3118BF01210446FFF784FEB8B9E368F1
:10D49400D868FFF7F6FAE368A168DB68C2B26420D3
:10D4A4009B6802935043B0FBF3F0C0B2019200902A
:10D4B400D1F82C31034A08212046FFF7E3FC04B0DD
:10D4C40010BD00BFA8370500012907B504D103B07A
:10D4D4005DF804EBFFF728BE02290AD153680193D3
:10D4E400084B00931368084AFFF7CCFC03B05DF8BF
:10D4F40004FB8CBF0121002103B05DF804EBFFF7AE
:10D5040049BE00BFEB370500E1370500054B1B683A
:10D51400082B01BF044B1868B0FA80F0400918BF0B
:10D5240000207047300100103401001008B54FF09E
:10D5340080430022C3F80C21C3F81021C3F8382516
:10D544004FF0805203F54043D2F80414C3F8201579
:10D55400D2F80814C3F82415D2F80C14C3F828150B
:10D56400D2F81014C3F82C15D2F81414C3F83015DB
:10D57400D2F81814C3F83415D2F81C14C3F84015A3
:10D58400D2F82014C3F84415D2F82414C3F848156B
:10D59400D2F82814C3F84C15D2F82C14C3F850153B
:10D5A400D2F83014C3F85415D2F83414C3F8601503
:10D5B400D2F83814C3F86415D2F83C14C3F86815CB
:10D5C400D2F84014C3F86C15D2F84424C3F870257B
:10D5D400FFF79CFF10B1384B384A1A60FFF796FFEB
:10D5E40018B1374BFB22C3F81825FFF78FFF48B15A
:10D5F4003449354B0A681B6822F00F0203F00F030D
:10D6040013430B60FFF782FF18B1304B4FF40072E5
:10D614001A604FF08043D3F80024D20744BF6FF060
:10D624000102C3F800242A4AD2F8883043F4700374
:10D63400C2F88830BFF34F8FBFF36F8F4FF01023C2
:10D64400D3F80022002A03DBD3F80432002B2FDAAC
:10D65400204B0122C3F80425D3F80024002AFBD070
:10D664004FF010221221C2F80012D3F80024002A2D
:10D67400FBD04FF010231222C3F80422154B1A4694
:10D68400D3F800140029FBD00021C3F80415D2F804
:10D694000034002BFBD0BFF34F8F0D490E4BCA68EB
:10D6A40002F4E0621343CB60BFF34F8F00BFFDE78A
:10D6B4000A4B0B4A1A6008BD8C560040488103008F
:10D6C40000F00040E40E0040580200104096024072
:10D6D40000ED00E000E001400400FA05542B0020B6
:10D6E4000090D003074B1B5C1F2B8ABF064A4FF0E8
:10D6F400A04203F01F03D2F80405D840C04300F051
:10D7040001007047D83B050000030050074B1B5C29
:10D714001F2B86BF03F01F0305494FF0A0410122D0
:10D7240002FA03F3C1F80C35704700BFD83B05007B
:10D7340000030050074B1B5C1F2B86BF03F01F0325
:10D7440005494FF0A041012202FA03F3C1F808355C
:10D75400704700BFD83B05000003005008B5002007
:10D76400FFF7E8FF0120FFF7E5FF0220FFF7E2FFE4
:10D774000320BDE80840FFF7DDBF08B50020FFF730
:10D78400C5FF0120FFF7C2FF0220FFF7BFFF032000
:10D79400BDE80840FFF7BABF0A4B185C1F288ABFD0
:10D7A400094B4FF0A04300F01F00D3F804250121DA
:10D7B400814021EA02000A40C3F80805C3F80C2599
:10D7C400704700BFD83B05000003005042DF70479C
:10D7D40043DF704738B5084C04F1080305460028B8
:10D7E40018BF1C4623682BB11A6822605B68284660
:10D7F4009847F7E738BD00BFC834002020B9054B6F
:10D8040001225A70FFF7E6BF012802D1014A907045
:10D81400F8E77047C034002020B9034B01225A7046
:10D82400FFF7D8BF704700BFC034002038B50B4C99
:10D83400237883B90A486360A3602361E36001F03D
:10D844006DFB054604F056FB08B901F075FB012396
:10D854002370284638BD8525FBE700BFC03400206F
:10D8640001D8040037B502A80023094C00F8013D93
:10D87400FDF766FBE368013BE360E56815B901F079
:10D8840073FBA5709DF80700FDF77EFB03B030BD68
:10D89400C0340020012813B509D003D303281BD0BA
:10D8A40002B010BD0F4B0122C3F88020F8E702A894
:10D8B40000230D4C00F8013DFDF742FB23780BB922
:10D8C400FFF7B4FFE3689DF807000133E360012329
:10D8D400A370FDF759FBE3E701F02EFBFFF7C2FF4E
:10D8E400DEE700BF00E100E0C034002037B51B4C88
:10D8F4006378054603F0FF029BB110B14368002032
:10D90400984700230DF107008DF80730FDF718FB49
:10D9140063689DF8070001336360FDF735FB03B0CE
:10D9240030BD0DF107008DF80720FDF709FB25B187
:10D93400A268134653B92A60A5606368002BE7D137
:10D9440004F0D8FA30B1FFF741FFE1E79D42F4D08B
:10D954001B68EFE701F014FBDAE700BFC0340020D6
:10D9640073B502A800230D4C00F8013DFDF7E8FA59
:10D974006368013B6360666836B904F0BBFA054628
:10D9840040B1FFF725FF66709DF80700FDF7FCFA2C
:10D9940002B070BD01F000FB6570F5E7C0340020F3
:10D9A40036DF70474DDF70474EDF70474FDF7047FB
:10D9B40050DF704708B50346FFF7F6FF40B9184635
:10D9C400FFF7F0FF20B91846BDE80840FFF7EEBFA7
:10D9D40008BD012810B5044602D101F02DFC804792
:10D9E40001F030FC034668B10A2C07D00B2C07D099
:10D9F400092C07D10220BDE8104018470020FAE79F
:10DA04000120F8E710BD0000012813B5044603D037
:10DA1400032819D002B010BD02A8002300F8013D6C
:10DA2400FDF78EFA01F008FC10B12046FFF7B8FFAD
:10DA34009DF80700FDF7A8FA01F004FC0028E9D0DE
:10DA44000120FFF7B7FFE5E70D4BE02283F8002341
:10DA54000122C3F880211A6001F0EEFB20B14FF0DF
:10DA640080430422C3F8042301F0ECFB0028D1D046
:10DA74004FF080434FF46072C3F80423CAE700BF39
:10DA840000E100E010B5044604F034FA50B9064849
:10DA9400002C18BF204601F0DBFB20B9034B012208
:10DAA4001A7010BD082010BDE23B0500D4340020DC
:10DAB40013B502A8002400F8014DFDF741FA04F063
:10DAC40019FA50B12046FFF775FF9DF80700FDF7DE
:10DAD4005BFA01F0F9FB02B010BD01F0EEFBF4E7D4
:10DAE40013B50446FFF7E4FF204601F0D5FB04F02C
:10DAF40001FA0446A0B10120FFF75CFF044660B9B7
:10DB040001A8FFF755FF044638B9019BDB0704D58C
:10DB140001F098FB034620469847204602B010BD0A
:10DB240001F0C4FBF9E700001FB503788DF800305D
:10DB340043680193037A8DF80830C3680393054A58
:10DB4400054B684653F8213052F82110984705B028
:10DB54005DF804FBD8340020E03400201FB50378BE
:10DB64008DF800304368019383688DF80830C368EA
:10DB74000393054A054B684653F8213052F82110A7
:10DB8400984705B05DF804FBD8340020E034002049
:10DB9400F0B5194B0678DFF870C043F82620174B10
:10DBA40096460A6943F826204B7F0CF806300C464B
:10DBB40007460FCC89B06D460FC594E80F0085E881
:10DBC4000F001CF80630049653B1BEF1000F0C4A46
:10DBD400694608BF0022381D01F020FF09B0F0BDDE
:10DBE400BEF1000F074A694608BF002207F10C0086
:10DBF40001F0DCFCF2E700BFE0340020D834002060
:10DC04002DDB040061DB0400E834002000F18040D7
:10DC140000F51C3001230360BFF36F8FBFF34F8FF8
:10DC240070470000064A10F0800F00F00F0314BF85
:10DC3400D2F81005D2F81405D84000F0010070475E
:10DC440000700240064B1B78082B07D1054B1B685C
:10DC540013F00F0F0CBF0120002070470020704705
:10DC6400E00F00F0E40F00F008B5FFF7EBFF68B138
:10DC7400074B1B6813F0F00F07D1064B1B6813F01A
:10DC8400F00F0CBF0120002008BD002008BD00BF1C
:10DC9400E80F00F0EC0F00F008B5FFF7D3FF70B108
:10DCA400074B1B6803F0F003102B07D1054B1B68CF
:10DCB40013F0F00F0CBF0120002008BD002008BDA8
:10DCC400E80F00F0EC0F00F030B54C680D689C4292
:10DCD40008D200214160056093420BD1201C18BF7B
:10DCE400012030BD436005600868E41A18444C60A4
:10DCF4000860F1E7002030BD4B689A4228BF1A46FD
:10DD040010B50C6804604260981A0B6848601344AC
:10DD140000300B6018BF012010BD4B689A4228BF29
:10DD24001A4610B55AB10C68046042609B1A4B60E5
:10DD34000B68101C13440B6018BF012010BD14465F
:10DD4400F2E70000054B10F0800FA3F1900208BF2A
:10DD5400134600F00F0003EB0010704760360020FC
:10DD640010F0800F14BF0023102300F00F0018449C
:10DD740070470000024A00231360024A1370704780
:10DD84001C7C0240EB34002007B5084A00231370C2
:10DD9400074A019302A81370012300F8043D054BC0
:10DDA4001B68984703B05DF804FB00BFEA34002009
:10DDB400F4360020F03600207047000007B5002339
:10DDC4008DF80430084B094AD3F82035ADF80630F5
:10DDD400136843F001231360054B01A81B6898479F
:10DDE40003B05DF804FB00BF00700240CC35002096
:10DDF400F0360020F8B54D680B4F954228BF154604
:10DE040006460C462A460968384604F023FA376069
:10DE1400756060682368401B1D44606025600030A5
:10DE240018BF0120F8BD00BFFC360020F8B54C68CF
:10DE3400944228BF144606460D468CB1094F096822
:10DE44002246384604F006FA37606B6874601B1B80
:10DE54006B602B682344201C2B6018BF0120F8BD85
:10DE64000460F2E7FC36002013B5124C012223684B
:10DE740002FA01F10B4323600F4B10F0800F1B6873
:10DE84000ED019400AD106238DF804308DF806000F
:10DE94008DF80710094B01A81B68984702B010BD04
:10DEA4001942FBD106238DF804308DF806008DF855
:10DEB4000720EFE7CC3500205C350020F036002049
:10DEC40008B5054B1A781046FFF74AFFBDE808402D
:10DED40001461046FFF7C8BFF436002008B50146D6
:10DEE400FFF748FFFFF72EFF837B032B0AD1084679
:10DEF400FFF736FF01218140C9430448BDE80840CB
:10DF0400FDF722B90368002BF1D008BD5C35002071
:10DF14008720FFF7E3BF8620FFF7E0BF8520FFF7E8
:10DF2400DDBF8420FFF7DABF8320FFF7D7BF82204D
:10DF3400FFF7D4BF8120FFF7D1BF000013B5FFF76F
:10DF440019FF114B93F81E21032A06D16FF4807137
:10DF54000E48FDF7F9F802B010BDD3F81041002CBB
:10DF6400F9D16FF480710948FDF7EEF806238DF8B6
:10DF7400043088238DF80630054B8DF807401B6864
:10DF840001A89847E7E700BFD03500205C350020A2
:10DF9400F036002008B5FFF7EDFE084B93F89E20FD
:10DFA400032A06D16FF001010548BDE80840FDF7DA
:10DFB400CBB8D3F89030002BF4D008BDD035002076
:10DFC4005C35002013B5FFF7D5FE0D4B93F88E207A
:10DFD400032A13D0D3F8804084B96FF080710948C4
:10DFE400FDF7B2F806238DF8043008238DF80630C7
:10DFF400054B8DF807401B6801A8984702B010BD77
:10E00400D03500205C350020F0360020204B13B5BD
:10E01400D3F80044C3F80044BFF36F8FBFF34F8FAE
:10E02400BFF36F8FBFF34F8FE1050BD5194B01225F
:10E034001A7002A800230193022300F8043D164B32
:10E044001B689847A2050AD5124A002302A8019327
:10E054001370032300F8043D0F4B1B6898476305B6
:10E0640013D50C4B1A7882B100221A70084B012187
:10E07400C3F808155820FFF7C9FD02A8042301922C
:10E0840000F8043D044B1B68984702B010BD00BF64
:10E0940000700240EA340020F03600202DE9F04FF1
:10E0A400754B87B01A780193002A40F08680DFF818
:10E0B400D0B1724B1D68724B19680D407DD095FA32
:10E0C400A5F5B5FA85F5ECB20F2DC6BF103CE4B248
:10E0D40044F080042046FFF735FE4FFA84FABAF183
:10E0E400000F0646828904F00F0869DA0368416864
:10E0F40004A8984700B93060624B82221A60019BE1
:10E10400059A01211970A940B368DBF80050134443
:10E1140025EA010104F00F04BAF1000FCBF8001056
:10E12400B3600499584BE4B27CDA072C9BBF1420EB
:10E1340000FB0434C3F8A016C4F800168CBFC3F85F
:10E14400A426C4F80426FFF78FFD504C504E002837
:10E1540079D0BAF1000FB8BF22464E4C4E4F5FFA49
:10E1640088F8AABF3246042528254C4E05EB8805BD
:10E1740044F0010402EB48084FF00009C6F800908F
:10E18400BFF36F8FBFF34F8F2846FFF73FFD80200B
:10E19400A0473368002BF1D04FF4F060A0473B68F0
:10E1A4009B064ED54020A047B8F8003003F18043C9
:10E1B40003F51C331B68002BDED007B0BDE8F08FDD
:10E1C4005FFA88F3072B304927D9D1F8C09419F4A2
:10E1D400803F18BF4FF000094B467168376804A8A8
:10E1E400B847049B002B85D0059B4B4582D2012167
:10E1F4004FF00208A94086F80E80C9431F48FCF777
:10E20400A3FF06238DF80C30254B8DF80E408DF8B6
:10E214000F801B6803A898474BE703F5947351F8E4
:10E224002390D9E7072C9BBF142000FB0434C3F8C8
:10E23400A017C4F800178CBFC3F8A427C4F8042798
:10E2440081E78020AAE7BAF1000FB4BF0420282098
:10E254005FFA88F814EA2A0A38BFB24600EB88004D
:10E26400FFF7D4FC3AF8183003F1804303F51C336C
:10E274001A68002AFCD0A0E7EB3400205C350020AB
:10E28400CC3500201C7C024000700240003C05009C
:10E294001C3C0500F03B050074740240047102400C
:10E2A400F036002038B5194BD3F86C44C3F86C44ED
:10E2B400BFF36F8FBFF34F8FBFF36F8FBFF34F8FDA
:10E2C400FFF7D2FC38B1124A136823F0011103F0AE
:10E2D40001130C43136001251CB9BDE83840FFF756
:10E2E400DDBE94FAA4F3B3FA83F30F2BD9B2C8BFFB
:10E2F400A1F1100005FA03F3CCBFC0B241F08000D5
:10E3040024EA0304FFF7B0FDE6E700BF0070024013
:10E31400F836002037B50446FFF72CFDFFF712FD51
:10E32400837B032B0CD12046FFF71AFD012181408A
:10E33400C9430F48FCF708FFFFF7B0FE03B030BD38
:10E344000568002DF8D12046FFF70AFD0121814020
:10E35400C9430748FCF7F8FE06238DF80430054B43
:10E364008DF806408DF807501B6801A89847E3E72D
:10E374005C350020F03600200720FFF7CBBF0620D5
:10E38400FFF7C8BF0520FFF7C5BF0420FFF7C2BFD2
:10E394000320FFF7BFBF0220FFF7BCBF0120FFF738
:10E3A400B9BF0000054B1A78012A01BF044A0020B6
:10E3B4001060187018BF0820704700BFEC340020AC
:10E3C400F03600204E4B4FF4006273B5C3F80024BE
:10E3D400BFF36F8FBFF34F8FFFF75EFC494CA0B1C3
:10E3E40000230DF107008DF80730FCF7A9FD216823
:10E3F400454B032200297AD149F2753121601A6014
:10E4040021609DF80700FCF7BFFD00230DF1070014
:10E414008DF80730FCF794FD22683C4DC023002A98
:10E4240067D149F2753222602B6022609DF80700A3
:10E43400FCF7AAFD324B0122C3F80025BFF36F8F0E
:10E44400BFF34F8FD3F800241205FBD54FF40062BD
:10E45400C3F80024BFF36F8FBFF34F8F00260DF175
:10E4640007008DF80760FCF76BFD2268002A42D193
:10E4740049F2753323602A6023609DF80700FCF796
:10E4840083FDFFF709FC90B100250DF107008DF81D
:10E494000750FCF755FD21681B4B71BB49F27532DF
:10E4A4002260196022609DF80700FCF76DFD184B8F
:10E4B40040F2E3721A60043340221A60BFF36F8F94
:10E4C400BFF34F8FA3F604038022C3F81C25114B1E
:10E4D40040F2FF121A60104B00211960FFF74AFC4A
:10E4E4000E4B19700E4B02221A7002B070BD1A60E6
:10E4F40087E72B609AE72E60BFE71D60D3E700BF74
:10E504000070024000EC064014ED064014EC064096
:10E5140000780240CC3500205C350020F436002021
:10E52400EC34002008B5104B00221A70D0B9FFF764
:10E534009BFB0E4A0E4B002814BF184610460D4B89
:10E544000D4AE021C2F8040383F827138021C3F89D
:10E55400841159600123C2F80435BFF36F8FBFF3F0
:10E564004F8F08BD0248EAE7EA3400200714C001CF
:10E574000714E00100E100E000700240024B18784B
:10E58400003018BF01207047EC340020034B18788A
:10E59400012894BF00200120704700BFEC34002004
:10E5A40037B502A8002500F8015DFCF7C9FC114B42
:10E5B4001B7803F0FF0493B10F4AD2F82C35BBB19A
:10E5C4000E4BC2F82C55186802F58F2202F2144241
:10E5D400C02158B949F275301860116018609DF86F
:10E5E4000700FCF7D1FC204603B030BD1160F6E70C
:10E5F4001C46F4E7EA3400200070024000EC0640B8
:10E60400024B034AC3F80823704700BF007002405E
:10E6140004148001024B034AC3F80423704700BF6B
:10E62400007002400414800108B5FFF78BFB818160
:10E6340008BD000070B5002831D01B4B1C7884BB8A
:10E644001A4A106001221A70264664F07F05082CCD
:10E65400EDB20CBF4FF4007140212846FFF7E4FFF0
:10E664002846FFF76FFB0134092C86730660866029
:10E67400EBD100242546082CE6B214BF40214FF408
:10E6840000713046FFF7D0FF3046FFF75BFB0134E3
:10E69400092C857305608560EDD1002070BD0720CD
:10E6A40070BD082070BD00BFEC340020F03600209F
:10E6B40008B5FFF747FB808908BDFFF7B3BA000030
:10E6C4002DE9F7430F468046FFF74AFB044602A8AC
:10E6D400002300F8013DFCF733FC18F00F0103D1CF
:10E6E400264B1B78434544D1254B264A1B681568A5
:10E6F400DB4301269BB2A6402B43334291463AD1D9
:10E704004046FFF71FFB18F0800F03464FF00C0440
:10E714002AD01D4A04FB01243A6802F06042B2F197
:10E72400005FBA681BD1D10754BF184A184A1A604F
:10E7340097E8070084E807005C6000249C609C73F1
:10E74400144B35438022C9F80050C3F804219DF8C6
:10E754000700FCF719FC204603B0BDE8F083D2079C
:10E7640054BF0D4A0D4AE2E70D4A04FB01240D4A49
:10E77400DDE71024EBE71124E9E700BFF4360020BD
:10E78400CC3500205C35002060350020FDDC040021
:10E794001FDD040000E100E0F9DD040031DE0400C7
:10E7A400F0340020CDDC04002DE9F342074689460D
:10E7B400FFF7D6FA044602A8002300F8013DFCF74F
:10E7C400BFFB3B0703D1164B1B78BB4224D1154B2F
:10E7D40015491B680E68DB4301259BB2A5403343F2
:10E7E40013EA05041AD13846FFF7ACFAD9F8003019
:10E7F4000360D9F8043043600C4B846035438022B5
:10E8040084730D60C3F804219DF80700FCF7BCFB7A
:10E81400204602B0BDE8F0821024F5E71124F3E7A6
:10E82400F4360020CC3500205C35002000E100E007
:10E8340000487047FC360020044B40F48070C3F855
:10E844001805BFF36F8FBFF34F8F704700700240FE
:10E85400034BC3F81805BFF36F8FBFF34F8F704797
:10E864000070024000F00F03072B11D810F0800F46
:10E87400084A0BBF03F5887303F5847302EB830323
:10E8840052F8230008BF5868431E58425841704745
:10E894000020704700700240064BC3F80C05BFF31C
:10E8A4004F8F40F48070C3F80C05BFF36F8FBFF334
:10E8B4004F8F70470070024010B5082200210446B3
:10E8C40003F0F2FC0E4BD3F880242270D3F8842496
:10E8D4006270D3F88824D3F88C1442EA012262804F
:10E8E400D3F89024D3F8941442EA0122A280D3F8F6
:10E8F4009824D3F89C3442EA0323E38010BD00BF7C
:10E904000070024008B5FFF7AFF958B1EFF3108279
:10E9140072B64C20FFF77AF94C20FFF777F982F3AF
:10E92400108808BD4C20BDE80840FFF76FB900000F
:10E9340013B5FFF71FFA104B9A7B032A06D16FF425
:10E9440080310E48FCF700FC02B010BD1C6884B98D
:10E954006FF480310948FCF7F7FB06238DF8043087
:10E96400074B8DF806408DF807401B6801A89847AF
:10E97400EAE7FFF7C7FFE7E7D03500205C35002062
:10E98400F03600205020FFF741B95420FFF73EB97C
:10E99400014B1878704700BFF4360020F7B50746DE
:10E9A400FFF762F91F4D064607F00F04E0B1002699
:10E9B4000DF107008DF80760FCF7C2FA3846FFF73F
:10E9C400CFF9012303FA00F02B6823EA00032B603C
:10E9D4006400154B04F2C5741C605E609DF807006A
:10E9E400FCF7D2FA03B0F0BD8DF807000DF1070073
:10E9F400FCF7A6FA3846FFF7B3F9012303FA00F04F
:10EA04002B68E4B223EA0003072C2B60E6D804F554
:10EA14009474064B43F82460BFF36F8FBFF34F8F9A
:10EA2400DCE700BFCC3500200078024000700240D3
:10EA34002DE9F743044602A8002600F8056DFCF70B
:10EA44007FFA2046FFF77EF914F0800F054623492C
:10EA54001ED120460A68FFF783F9012303FA00F068
:10EA640030EA02030BD02046FFF798FF0323AB7371
:10EA74009DF80300FCF788FA03B0BDE8F083C043B7
:10EA840002402B600A60164A136818401060EDE7D4
:10EA9400DFF84C800F68D8F80020204667EA0209A6
:10EAA400FFF75EF9012303FA00F019EA000FDFD043
:10EAB4000323AB738DF807300A4B8DF8064027EA21
:10EAC4000007104306220F60C8F800002E608DF87E
