:020000022000DC
:10B000000000042061B20200B9B20200BBB202002B
:10B01000BDB20200BFB20200C1B2020000000000D7
:10B02000000000000000000000000000C3B20200A9
:10B03000C5B2020000000000C7B20200C9B202009F
:10B0400041940300CFB2020051940300D3B2020036
:10B05000D5B20200D7B20200758C0300DBB2020049
:10B06000DDB20200DFB20200E1B20200E3B2020090
:10B07000E5B20200E7B20200E9B20200EBB2020060
:10B08000EDB20200BD160300F1B20200F3B20200FD
:10B09000FD160300F7B202002DE10300FBB202002F
:10B0A000FDB20200FFB2020001B3020003B30200CE
:10B0B00005B3020007B30200CBB20200CBB202001C
:10B0C00009B302000BB302000DB302000FB302007C
:10B0D00011B3020013B3020015B30200717603002E
:10B0E00019B302001BB302001DB30200CBB2020071
:10B0F000CBB2020021B30200CBB202001FB30200A8
:10B10000364937480A1A02D0072291438D463549FD
:10B1100035480A1A06D00722914381F30988022292
:10B1200082F3148831483249324A00F045F83248F7
:10B130003249334A00F040F832483349334A00F08C
:10B140003BF833483349344A00F036F83348344941
:10B15000344A00F031F834483449354A00F02CF8CC
:10B1600034483549354A00F027F83548354900223A
:10B1700000F02DF834483549002200F028F8344812
:10B180003449091A082903DB0022026004300160F7
:10B19000314A90471F482049884205D00268043050
:10B1A00003B4904703BCF7E700208646EC46002036
:10B1B00000212A4A9047FEE7884207D0521A05D05C
:10B1C000037801300B700131013AF9D170478842A0
:10B1D00002D002700130FAE770470000000004203E
:10B1E00000E003200000042000000420D419040023
:10B1F000042B0020E42B002024B3020024B302001F
:10B20000F4E50300D4190400042B0020042B0020D3
:10B21000F4E70300F4E70300F4E70300F4E70300B6
:10B22000F4E70300F4E70300F4E70300F4E70300A6
:10B23000D4190400B41A0400E42B0020E42B0020ED
:10B24000E42B0020FC3F0020FC3F0020FC3F0020BE
:10B25000FC3F0020FC5F002085B2020019B803000B
:10B260000F484FF00701884385460E4880470E4837
:10B27000016841F470010160BFF34F8FBFF36F8F1E
:10B28000FFF73EBF09480A490A4A884207D0521AC6
:10B2900005D0037801300B700131013AF9D17047C4
:10B2A000000004204147030088ED00E088E7030028
:10B2B000982A0020042B0020FEE7FEE7FEE7FEE7C9
:10B2C000FEE7FEE7FEE7FEE7FEE7FEE7FEE7FEE756
:10B2D000FEE7FEE7FEE7FEE7FEE7FEE7FEE7FEE746
:10B2E000FEE7FEE7FEE7FEE7FEE7FEE7FEE7FEE736
:10B2F000FEE7FEE7FEE7FEE7FEE7FEE7FEE7FEE726
:10B30000FEE7FEE7FEE7FEE7FEE7FEE7FEE7FEE715
:10B31000FEE7FEE7FEE7FEE7FEE7FEE7FEE7FEE705
:04B32000FEE700BF85
:10B3240000B585B00190019B002B0AD0074B43F078
:10B3340001030393019B9B010293039B029898478B
:10B3440000E000BF05B05DF804FB00BF00E80300A7
:10B3540000B583B00190019B002B0AD04FF47A70A2
:10B36400FFF7DEFF019B013B0193019B002BF5D10D
:10B3740000E000BF03B05DF804FB08B510F0E4FF83
:10B3840000BF08BD00B589B0039002910192019BF2
:10B39400002B33D00023079303230693029A079BC1
:10B3A4001344019A1946002010F080FF0590079A73
:10B3B400059B13440793019A059BD31A0193059B9C
:10B3C400002B13D10F4B1B7883F00103DBB2002B4E
:10B3D40013D10120FFF7BCFF069B013B0693069B9C
:10B3E400002B03D1074B00221A7007E0054B012202
:10B3F4001A70019B002BD1D100E000BF00BF09B03F
:10B404005DF804FBE42B002000B585B003900291A5
:10B41400054B00934023054A0299039800F012F863
:10B4240000BF05B05DF804FB89B30200E82B0020DF
:10B4340082B0019000BF02B0704782B0019000BF9B
:10B4440002B0704700B5A1B0059004910392029335
:10B45400049805F08CFA039B1593029B1693002322
:10B46400179300238DF8603000231993229B1A93BD
:10B4740000231F930FA91F9B0822049805F032FB99
:10B4840008231F93119B1293BDF84030ADF84C3044
:10B49400BDF84230ADF84E3000238DF851309DF8A0
:10B4A4003C3003F00303DBB2012B26D10F9BC3F323
:10B4B40095231D939DF83C30C3F3C203DBB28DF892
:10B4C4005030BDF83C30C3F38313DBB21C931C9B98
:10B4D4009A0009A91F9B049805F004FB1C9B9B0080
:10B4E4001F9A13441F9312AA09A915AB009313467C
:10B4F4001C9A1D9800F000FF2FE09DF83C3003F0EB
:10B504000303DBB2022B28D1BDF83E30C3F3891309
:10B514009BB21E939DF83C30C3F3C203DBB28DF89B
:10B5240050301E9B082B28BF08231B9307A91F9B81
:10B534001B9A049805F0D6FA1F9A1B9B13441F9379
:10B544001E9A1B9BD31A1E9315AB12AA07A81B990C
:10B5540000F074FF1E9B002BE3D1049805F016FA4B
:10B5640000BF21B05DF804FB82B00190019B012271
:10B574005A7200BF02B0704700B583B04FF0FF337A
:10B584000193FFF7FAFE0421084800F0D5FD01906D
:10B59400019B002B03DA0649412010F0C3F803484D
:10B5A400FFF7E2FF00BF03B05DF804FB042B0020AB
:10B5B40008E8030000B583B001900091019B1B686B
:10B5C4001B6800990198984700BF03B05DF804FB1D
:10B5D40000B583B00190019B1B685B680198984794
:10B5E40000BF03B05DF804FB00B583B00190019B7C
:10B5F4001B689B680198984700BF03B05DF804FB83
:10B6040082B001900B468DF80330019B9DF8032016
:10B614001A7200BF02B0704782B00190019B1B7A7E
:10B62400184602B0704782B00190019B01225A7201
:10B6340000BF02B0704782B00190019B5B7A18464C
:10B6440002B0704700B587B0019000911D4BFF22F6
:10B654009A601C4B00221A601A4B00225A60194B44
:10B664000022C3F81824174B0022C3F81424154BE6
:10B67400002283F82024144805F0DEF80490049B8B
:10B68400002B01D0049B18E0104A114BD31ADB089D
:10B694000393002305930BE0059B9B000D4A134481
:10B6A4000293059B9AB2029B1A80059B0133059372
:10B6B400059A039B9A42EFD30023184607B05DF81E
:10B6C40004FB00BFF82C0020FCE60300FCE60300AA
:10B6D4004CE60300982A0020024A034BD31ADB08E5
:10B6E40018467047FCE603004CE6030000B587B03B
:10B6F40001900B468DF803309DF80330002B1FD0CA
:10B70400FFF7EAFF04900023059313E0059B9B00D9
:10B714000E4A13440393039B5B881A46019B1B68E0
:10B724009A4204D1019B059A1A60002309E0059B03
:10B7340001330593059A049B9A42E7D3052300E05D
:10B744000023184607B05DF804FB00BF982A0020C8
:10B7540000B585B001900B468DF803309DF80320A9
:10B7640001AB11461846FFF7C1FF0346002B07D172
:10B77400019BDB00054A13440393039B1B6800E011
:10B784000023184605B05DF804FB00BF4CE6030037
:10B7940084B001900B468DF80330019BDB00174AFF
:10B7A400134402939DF80330013B032B1CD801A2E0
:10B7B40052F823F0C9B70200D1B70200D9B702008A
:10B7C400E3B7020002238DF80F3011E004238DF853
:10B7D4000F300DE0029B1B798DF80F3008E0029BBF
:10B7E4005B798DF80F3003E000238DF80F3000BF34
:10B7F4009DF80F30184604B0704700BF4CE60300B4
:10B8040000B585B00190009100238DF80F30019BA5
:10B814001B7803F00303DBB2002B06D0019B1B78DB
:10B8240003F00403DBB2002B44D0019B1B7803F02C
:10B834000403DBB2002B28D0019B1B78C3F3010364
:10B84400DBB2012B02D0022B0CD017E0009B1B684B
:10B85400019A1288C2F38312D2B213449A1C009B39
:10B864001A6024E0009B1B68019A5288C2F3891273
:10B8740092B213449A1C009B1A6018E010494FF4CA
:10B88400A4700FF04FFF00BF11E0009B1A68019BEA
:10B894005B88C3F389139BB21946019B1B88C3F3CE
:10B8A40089139BB20B4413445A1C009B1A60012356
:10B8B4008DF80F309DF80F30184605B05DF804FB85
:10B8C400A8E8030000B58BB00023ADF826303E484D
:10B8D40004F037F83D4804F034F83D4B5B680493BA
:10B8E4003B4B9B680693049A069B134002339B00D0
:10B8F400374A13440433089304AB19460898FFF7F6
:10B904007FFF0346002B09D0049A069B13400233A1
:10B914009B002F4A134404330893EDE700BF002330
:10B92400079311E0079B9B0001AA1A44049B591C2E
:10B93400049106990B40264902339B000B445B6833
:10B944001360079B01330793079B012BEAD99DF8EA
:10B954000430C3F30103DBB2012B10D0022B1CD142
:10B96400BDF80A30ADF82630BDF80630C3F38913AC
:10B974009BB203339A08049B1344049313E0BDF869
:10B984000A30ADF82630BDF80430C3F38313DBB2BC
:10B994001A46049B1344049305E00E494FF4C27005
:10B9A4000FF0C0FE00BF094803F0D7FF0590059BC8
:10B9B400002B02D0049B064A5360BDF8263018467B
:10B9C4000BB05DF804FB00BF103100200C310020E7
:10B9D400F82C0020A8E8030000B585B00021074832
:10B9E40003F006FF0390039B0293029B83F310036F
:10B9F4000193019B184605B05DF804FB1431002047
:10BA040000B589B00390029101920093039B1B0C33
:10BA14000793FFF7E1FF0690FFF75EFE0246079BE0
:10BA24009A4204D8224940F2A9100FF07BFE009BF1
:10BA34005A1C0A9B1340069A1104079A0A431D498B
:10BA440002339B000B445A60009A0A9B1340023352
:10BA54009B00184A134404330593039BDBB203F0A1
:10BA64000703D9B2059A137861F3C5031370019BD8
:10BA7400DBB203F00F03D9B2059A138861F389137B
:10BA84001380029BC3F31501059A136861F39F2386
:10BA94001360059A1378012161F301031370059A69
:10BAA40013786FF38203137000BF09B05DF804FBD1
:10BAB400A8E80300F82C002000B58DB00390029193
:10BAC40013468DF80730039B02330A9301238DF844
:10BAD400273000238DF81B300DF11B03184603F0AB
:10BAE400D5FC414B1A68029B1A603F4B9A683E4B47
:10BAF40059683D4B1B68CB1A134401330B9314E074
:10BB040001213A4803F0D3FEFFF7DCFE08900899C0
:10BB1400364803F0CCFE344B9A68334B5968324BA9
:10BB24001B68CB1A134401330B930A9A0B9B9A425A
:10BB3400E6D89DF82730002B4AD0002305939DF8C2
:10BB44000730002B18D09DF81430012262F3010352
:10BB54008DF814309DF8143043F004038DF814303C
:10BB6400039BDBB203F00F03DAB2BDF8143062F3C7
:10BB74008913ADF8143017E09DF81430022262F3F3
:10BB840001038DF814309DF8143043F004038DF84C
:10BB94001430039B9BB2C3F309039AB2BDF8163069
:10BBA40062F38F13ADF816300F4B1A680E4B9B6877
:10BBB400134002339B000C4A134404330793059A41
:10BBC400079B1A60084B1A680A9B1344064A1360C1
:10BBD4009DF81B30184603F06FFC9DF8273018467B
:10BBE4000DB05DF804FB00BFF82C002014310020D8
:10BBF40000B58BB005900491039202931F4B9B6890
:10BC0400079306AB012219460298FFF755FF034636
:10BC1400002B24D0069B023309930023089311E0E0
:10BC2400099B5A1C0992079A1340089A9200039997
:10BC34000A441268114902339B000B445A60089B62
:10BC440001330893089A029B9A42E9D3069A079B08
:10BC540000931346029A04990598FFF7D1FE074B07
:10BC640093F82034002B05D000BF00F065F803469C
:10BC7400002BFAD100BF0BB05DF804FBF82C0020B8
:10BC840000B583B00190009100230022009901982F
:10BC9400FFF7AEFF00BF03B05DF804FB00B587B04B
:10BCA400039002910192019B059305AA0123029935
:10BCB4000398FFF79DFF00BF07B05DF804FB00B5D4
:10BCC40087B00390029101920093019B0493009B1F
:10BCD400059304AA022302990398FFF789FF00BF82
:10BCE40007B05DF804FB00B58BB00390029101929C
:10BCF4000093019B0593009B06930C9B07930D9B5C
:10BD040008930E9B099305AA052302990398FFF74C
:10BD14006FFF00BF0BB05DF804FB0000054B5A68D1
:10BD2400044B1B689A420CBF01230023DBB2184664
:10BD3400704700BFF82C002000B599B0FFF7EEFF64
:10BD44000346002B01D00023B8E19A4B0022C3F82C
:10BD54001824BFF34F8F974B5B680493954B9B68F4
:10BD64001093049A109B134002339B00914A13448E
:10BD740004331793002316930023159300230F9382
:10BD840004AB19461798FFF73BFD0346002B14D06C
:10BD9400884B1A68049B9A4205D8864B1B68854ACF
:10BDA400536000238AE1049A109B134002339B00E2
:10BDB400804A134404331793E2E700BF002314932B
:10BDC40011E0149B9B0001AA1A44049B591C049182
:10BDD40010990B40774902339B000B445B68136056
:10BDE400149B01331493149B012BEAD99DF804305E
:10BDF40003F00303DBB2022B40F09C80BDF8063055
:10BE0400C3F389139BB20E93BDF80630C3F38913B1
:10BE14009BB2502BA8BF50230D930D9B9BB2C3F331
:10BE240009039AB2BDF8063062F38F13ADF80630F9
:10BE34000D9B08330C939DF80430C3F3C203DBB2AB
:10BE44000F930C995C4804F002FD1690169B002B8E
:10BE540000F0D480169804F08AFD01A9159B0822ED
:10BE6400169804F02DFE159B08331593049BDA43B2
:10BE7400109B134001339B000B930D9A0B9B9A422A
:10BE840042D90B9B002B08D0049A109B1340023319
:10BE94009B00484A1344043300E0484B0A930B9B2D
:10BEA400002B02D00B9BDBB201E00D9BDBB28DF8C3
:10BEB40027300B9B002B01D0404B00E0002308935C
:10BEC4000B9B002B06D00D9BDAB20B9BDBB2D31A73
:10BED400DBB200E000238DF81F309DF82720159B6E
:10BEE4000A99169804F0ECFD9DF82730159A13442E
:10BEF4001593089B002B16D09DF81F20159B0899BD
:10BF0400169804F0DDFD0EE0049A109B13400233F2
:10BF14009B00284A134404330693159B0D9A0699F3
:10BF2400169804F0CDFD0E9B03339A08049B13442A
:10BF3400049363E09DF8043003F00303DBB2012BA8
:10BF44005CD1BDF80430C3F38313DBB2062B28BFE6
:10BF54000623DBB203F00F03DAB2BDF8043062F358
:10BF64008913ADF80430BDF80430C3F38313DBB296
:10BF7400023305939DF80430C3F3C203DBB20F937D
:10BF8400059B9B0019460C4804F061FC1690169B17
:10BF9400002B33D0169804F0EAFC01A9159B082263
:10BFA400169804F08DFD159B083315930023149304
:10BFB4001BE000BFF82C0020FCE60300042D002049
:10BFC400049B5A1C0492109A134002339B003D4A6E
:10BFD4001344191D159B0422169804F071FD159B3A
:10BFE40004331593149B01331493BDF80430C3F345
:10BFF4008313DBB21A46149B9A42E1D8169B002B9A
:10C004003FD0304BD3F8103413932E4BD3F818345D
:10C01400002B1AD0169804F0B9FC49E000238DF8DF
:10C024004B301398FFF707FB0346002B02D0012384
:10C034008DF84B309DF84B30002B03D01699139894
:10C04400FFF7B8FA139B5B681393139B002BE5D19E
:10C05400169804F09BFC00238DF803300DF10303C4
:10C06400184603F013FA174BD3F81834002B02D1F7
:10C07400049B144A53609DF80330184603F01CFADD
:10C0840016E0104BD3F81034119305E01198FFF724
:10C09400ABFA119B5B681193119B002BF6D10A4BF1
:10C0A4001B881B0443F0020308491846FFF7E8FD08
:10C0B400FFF734FE034683F00103DBB2184619B0E0
:10C0C4005DF804FBF82C0020B02A002028E90300C6
:10C0D40000B585B00023039322E0164BD3F8103447
:10C0E400029301238DF807300EE00298FFF794FACB
:10C0F40003461A46039B9A4203D100238DF8073066
:10C1040005E0029B5B680293029B002BEDD19DF836
:10C114000730002B01D0039B07E0039B01330393FB
:10C12400039B092BD9DD4FF0FF33184605B05DF8AA
:10C1340004FB00BFF82C002000B585B001900B462D
:10C144008DF80330FFF7C4FF0390039BB3F1FF3F67
:10C1540001D1039B1EE0039BDBB219460198FFF754
:10C164004FFA0E4BD3F81034002B07D10B4A019B26
:10C17400C2F81034019B00225A600AE0074BD3F83E
:10C1840010345A68019B5A60044BD3F81034019A56
:10C194005A60039B184605B05DF804FBF82C002098
:10C1A40000B583B00C4BD3F8103401930A4B012231
:10C1B40083F8202408E00198FFF735FA0198FFF787
:10C1C40007FA019B5B680193019B002BF3D100BF2D
:10C1D40003B05DF804FB00BFF82C002082B001908E
:10C1E400009100BF02B0704710B584B00390029173
:10C1F400039BDB88002B0AD0039BDB881A461F4B6A
:10C20400009313461E4A1F49029803F0E5FC039B62
:10C214001B7A052B2ED0039B5B7A002B12D0039B39
:10C224009B881A46039B1B7A19461046FFF7B0FAFF
:10C2340003461A46144B53F822301A4613490298FF
:10C2440003F0CAFC039B1B6819460298FFF7C6FF5C
:10C25400039B1B7A1A460E4B53F82240039B9B8880
:10C2640000211846FFF774FA03462246094902984A
:10C2740003F0B2FC00BF04B010BD00BF5CE90300D2
:10C284006CE90300A4E90300242B0020BCE90300AB
:10C29400102B0020C0E9030000B585B00390029183
:10C2A40013468DF80730039B1B7A052B0FD0039B95
:10C2B4005B7A002B06D00D4B1B681A460C4902987A
:10C2C40003F08AFC0B49029803F086FC07E09DF812
:10C2D4000730002B03D00749029803F07DFC029835
:10C2E40003F058FC00BF05B05DF804FB242B0020CC
:10C2F400BCE90300CCE9030030B58BB0079006918C
:10C30400059204930E9B1B7B8DF827300E9B002215
:10C314001A730E990498FFF767FF059B062B7FD8C5
:10C3240001A252F823F000BF49C3020053C3020024
:10C3340063C3020077C3020095C30200BDC30200B9
:10C34400EDC3020007990E9803F046FC69E0069BD2
:10C354001B681A4607990E9803F03EFC61E0069BA1
:10C364001A68069B04331B6807990E9803F034FC83
:10C3740057E0069B1A68069B04331968069B08332A
:10C384001B6800930B4607990E9803F025FC48E0C0
:10C39400069B1968069B04331868069B08331B68C0
:10C3A400069A0C3212680192009303460A460799D2
:10C3B4000E9803F011FC34E0069B1868069B0433C6
:10C3C4001C68069B08331B68069A0C32126806998F
:10C3D400103109680291019200932346024607999D
:10C3E4000E9803F0F9FB1CE0069B1C68069B0433C3
:10C3F4001D68069B08331B68069A0C32126806995E
:10C404001031096806981430006803900291019273
:10C4140000932B46224607990E9803F0DDFB00E0BB
:10C4240000BF00220E990498FFF736FF0E9B9DF87B
:10C4340027201A7300BF0BB030BD00BF00B587B012
:10C444000390029101920093029B082B5CD8009BFD
:10C454001B7B8DF81330009B00221A7300990198FE
:10C46400FFF7C2FE0023059314E0059A029B9A424B
:10C4740009D2039A059B13441B781A462449009851
:10C4840003F0AAFB03E02349009803F0A5FB059BF6
:10C4940001330593059B072BE7D91F49009803F047
:10C4A4009BFB0023059322E0059A029B9A4217D234
:10C4B400039A059B13441B788DF812309DF81230B3
:10C4C400184611F0B8FF0346002B02D09DF8123035
:10C4D40000E02E231A461149009803F07DFB03E087
:10C4E4000F49009803F078FB059B01330593059BE6
:10C4F400072BD9D9012200990198FFF7CDFE009BA3
:10C504009DF813201A7300E000BF07B05DF804FB28
:10C51400D0E90300D8E90300DCE90300E0E9030003
:10C52400E4E9030086B003900291019201238DF89F
:10C5340017309DF817301F4A039B13601D4A029B56
:10C5440053601C4A019B9360039B44F20102934293
:10C5540012D044F20202934221D1019B154AD360C6
:10C56400144BDB681B881A46124B9A61114BDB682B
:10C574005B68104AD36112E0019B0E4A13610D4BB4
:10C584001B699B680B4A53610A4B1B691B68094A68
:10C594009361084B1B695B68064AD36100BF72B69E
:10C5A40000BF9DF81730DBB2002BFAD162B600BF92
:10C5B40006B070471C31002000B583B00290009192
:10C5C400019244F2010071466A4600F003F803B098
:10C5D40000BD00BF30B58BB007900691059272B6CE
:10C5E400FFF7DEFD00BFFFF7A7FB0346002BFAD1E0
:10C5F400079B41F20102934219D041F20102934296
:10C6040002D8012B09D057E044F20102934229D009
:10C6140044F20202934214D04EE0344B1B881B04B4
:10C6240043F0010332491846FFF72AFB4FE02F4B32
:10C634001B881B0443F001032E491846FFF720FB17
:10C6440045E0059B0993294B1B881B0443F0010318
:10C654001846099B5B681A46099B1B882649FFF705
:10C664002EFB34E0059B0893204B1B881B0443F0EE
:10C6740001031D46089B9C68089B9B68184604F0B0
:10C684000DFB03461846089B5B681946089B1B680C
:10C69400069A0292019300910346224617492846BE
:10C6A400FFF721FB114B1B881B0443F001031449C2
:10C6B4001846FFF7E5FA0AE00C4B1B881B0443F00D
:10C6C4000103069A0F491846FFF7E8FA00BF0E4B1C
:10C6D4001B6803F00103002B00D000BE059A0699E5
:10C6E4000798FFF71FFF00BF0BB030BDB02A002032
:10C6F400E8E9030008EA03002CEA030048EA03001F
:10C7040070EA030084EA0300F0ED00E084B00190D5
:10C71400019B9B680393019BDA68039BD31A184619
:10C7240004B0704782B001900B468DF80330019B32
:10C734001A68019BDB68019989880B4013449DF8B2
:10C7440003201A70019BDB685A1C019BDA6000BF4E
:10C7540002B0704784B003900B460192ADF80A30E2
:10C76400039B1A68039B9968BDF80A300B4403992C
:10C7740089880B4013441A78019B1A7000BF04B0D7
:10C78400704700B583B001900091009A0021019890
:10C79400FFF7E0FF019B9B685A1C019B9A6000BF56
:10C7A40003B05DF804FB84B0039002911346ADF826
:10C7B4000630029B002B01D10E231DE0BDF806308C
:10C7C400002B07D0BDF806305A1EBDF806301340C2
:10C7D400002B01D009230FE0039B029A1A60BDF8D5
:10C7E4000630013B9AB2039B9A80039B00229A6015
:10C7F400039B0022DA600023184604B0704700B59A
:10C8040083B001900B468DF803300198FFF77EFF4B
:10C814000246019B9B889A4207D89DF8033019462B
:10C824000198FFF77FFF002300E00423184603B0BC
:10C834005DF804FB00B583B0019000910198FFF707
:10C8440065FF0346002B05D000990198FFF799FF77
:10C85400002300E00523184603B05DF804FB000044
:10C8640000B587B00390029113468DF8073000237A
:10C874000593039B1B781A46114B9B5C002B09D034
:10C88400039B04339DF80720029918460DF0DCFF42
:10C8940005900FE0039B1B781A46094B9B5C002B09
:10C8A40008D1039B0C339DF80720029918460DF01C
:10C8B40077F90590059B184607B05DF804FB00BFA7
:10C8C4004035002000B587B00390029113468DF8DF
:10C8D400073000230593039B1B781A46114B9B5C7E
:10C8E400002B09D0039B04339DF8072002991846B6
:10C8F4000EF06CF805900FE0039B1B781A46094B69
:10C904009B5C002B08D1039B0C339DF807200299F4
:10C9140018460DF025FA0590059B184607B05DF8FA
:10C9240004FB00BF4035002084B00190019B9B684C
:10C934000393019BDA68039BD31A184604B070472B
:10C9440000B587B001900091019B1B78012B04D0A6
:10C95400022B38D0002B47D05CE0019B5B681B782E
:10C9640019462E48FFF74BFF0590059B002B0AD074
:10C9740001238DF80C30059B0493294B1B6803AAF3
:10C98400104698470DE02548FFF7CEFF0346002BDD
:10C9940007D000238DF80C30214B1B6803AA1046E6
:10C9A40098471E48FFF7C0FF02461C4B9B889A42DB
:10C9B40005D801221B491C48FFF784FF2AE01B4BC2
:10C9C40001221A7026E002238DF80C30019BDB68EB
:10C9D4000493012213491448FFF774FF104B1B689A
:10C9E40003AA1046984715E011491248FFF722FFA1
:10C9F4000346002B05D101220D490B48FFF730FFF8
:10CA040007E003238DF80C30054B1B6803AA10467E
:10CA1400984700BF00BF07B05DF804FB4831002011
:10CA24003C31002044310020482B002045310020B7
:10CA3400403100205831002030B591B0039002916C
:10CA440001928DF803303C4A019B1360029B002B3A
:10CA540001D107236DE0029B1968029B5B689BB2BE
:10CA64001A463648FFF79FFE0F900F9B0E930E9BBE
:10CA7400002B01D00E9B5CE0029B9968029BDB6853
:10CA84009BB21A462E48FFF78EFE0F900F9B0D9314
:10CA94000D9B002B01D00D9B4BE02A4B04AC1D4693
:10CAA4000FCD0FC495E80F0084E80F00039B5B696A
:10CAB4000A93039B1B7C002B14BF01230023DBB2CE
:10CAC4008DF824309DF803308DF82C30039B5B7C6B
:10CAD400002B01D00E2300E000238DF82530039BAA
:10CAE400DB680693039B9B680793039B1B68059372
:10CAF400039B5B68049304AB134A1946134808F07C
:10CB0400EDFD0F900F9B0C930C9B002B01D00C9B05
:10CB14000FE00F4B00221A70039B1B68B3F1FF3F19
:10CB240006D001220B490948FFF7CCFE034600E07A
:10CB34000023184611B030BD3C310020483100209C
:10CB4400583100209CEA030045C90200482B00200C
:10CB5400453100204431002000B587B00190019B8D
:10CB6400002B03D11449C2200EF0DCFD134B1B78BB
:10CB74008DF8173001991248FFF75CFE04909DF878
:10CB84001730002B12D00D4B00221A7001220D49D0
:10CB94000D48FFF797FE0390039B0293029B002B23
:10CBA40004D0054ACE210298FFF706FD049B1846DF
:10CBB40007B05DF804FB00BFBCEA03004531002068
:10CBC4004831002044310020482B002082B00190DD
:10CBD400019B1B7A184602B07047000000B585B06F
:10CBE40001900B468DF80330019B002B04D10F49B3
:10CBF40040F20F100EF096FD0198FFF7E7FF034691
:10CC04001A469DF80330934201D3002309E0019BA7
:10CC1400093303939DF8032013465B001344039ADE
:10CC24001344184605B05DF804FB00BF2CEB030069
:10CC340082B00190019B1B78184602B0704782B005
:10CC44000190019B5B78184602B0704700B585B02F
:10CC540001900B468DF80330019B002B04D10D4944
:10CC64004FF4A1700EF05EFD019B5B789DF80320EC
:10CC74009A4201D3002309E0019B9B781A46019B49
:10CC8400134403939DF80330039A1344184605B0E4
:10CC94005DF804FB2CEB030082B00190019B1B7830
:10CCA400184602B0704782B00190019B1B68184679
:10CCB40002B0704700B583B00190019B002B04D1F2
:10CCC40006494FF406700EF02DFD0198FFF7EBFFB7
:10CCD40003461B68184603B05DF804FBA0EB030091
:10CCE40000B583B00190019B002B04D106494FF499
:10CCF4000D700EF017FD0198FFF7D5FF03465B6832
:10CD0400184603B05DF804FBA0EB0300014B184682
:10CD1400704700BFE0EE03004FF08043D3F838348F
:10CD24001846704708B5FFF7F7FF034603F0010301
:10CD3400002B14BF01230023DBB2184608BD08B53D
:10CD4400FFF7EAFF034603F00203002B14BF01239D
:10CD54000023DBB2184608BD00B583B001900091F2
:10CD6400019B002B04D1114940F207100EF0DAFCAC
:10CD7400019B5B68002B04D10C494FF484700EF0C6
:10CD8400D1FC019B5B681B68002B04D1074940F26E
:10CD940009100EF0C7FC019B5B681B6800990198A1
:10CDA40098470346184603B05DF804FB2CEC0300D7
:10CDB40000B583B001900B468DF80330074B1B6818
:10CDC400002B06D0054B1B689DF8032011460198E3
:10CDD400984700BF03B05DF804FB00BF1433002084
:10CDE40000B583B003468DF80730074B5B68002B12
:10CDF40005D0054B5B689DF807201046984700BF97
:10CE040003B05DF804FB00BF1433002010B58EB0EE
:10CE1400039001930B468DF80B3013468DF80A30BE
:10CE24000023099300230D9302E00D9B01330D931E
:10CE3400039B5B685C6809A8012300220399A0474F
:10CE44000346002BF1D100238DF8233000230C93EB
:10CE540000238DF82F30002306934FE0039B5B687B
:10CE64005C680DF1230206A801230399A047039BE4
:10CE74005B685C680DF1170206A801230399A047BB
:10CE84009DF817309DF80B209A4227D19DF82F204A
:10CE94009DF80A309A421CD19DF823301A46109B03
:10CEA4001A60019B5A1C01929DF823201A70019B61
:10CEB4005A1C01929DF80B201A70039B5B685C68F6
:10CEC4009DF82330023B06A8019A0399A04700234A
:10CED40019E09DF82F3001338DF82F30039B5B68E8
:10CEE4005C689DF82330023B06A800220399A04702
:10CEF4009DF823301A460C9B13440C930C9A0D9BFB
:10CF04009A42ABD3052318460EB010BD00B585B0C8
:10CF140003468DF807309DF90730002B14DA9DF88D
:10CF2400073003F00F038DF80F309DF80F30082BF6
:10CF340004D9114940F287100EF0F4FB9DF80F302C
:10CF4400DB000E4A134413E09DF8073003F00F038F
:10CF54008DF80E309DF80E30082B04D9064940F2A6
:10CF64008D100EF0DFFB9DF80E30DB00044A1344F5
:10CF7400184605B05DF804FB2CEC03007832002061
:10CF8400C032002000B583B003468DF807309DF809
:10CF940007301846FFF7BAFF03461B68184603B06C
:10CFA4005DF804FB00B585B0034600918DF80730A9
:10CFB4009DF807301846FFF7A9FF0390039B009ADA
:10CFC4001A60009B002B10D19DF80730002B03D072
:10CFD4009DF80730802B04D1084940F2B1100EF0BF
:10CFE400A1FB039B00225A6004E0009B5B681A6863
:10CFF400039B5A6000BF05B05DF804FB2CEC0300F2
:10D0040000B583B00190064B5B68054A126801992C
:10D01400104698470346184603B05DF804FB00BF6A
:10D02400C032002000B587B00190019B1B78002B13
:10D034001FD100238DF80B300DF10B03184602F0BD
:10D0440025FA2C4B1B68002B03D1019B5A882A4BD1
:10D054001A800121274802F02AFC9DF80B3018465B
:10D0640002F02AFA01210198FFF7A2FE214B1B6866
:10D074003CE0224A03AB1946104602F018FB059027
:10D08400059B002B32D0059A019B1B68136000237B
:10D094008DF80A300DF10A03184602F0F7F9164B21
:10D0A4001A88144B1B689BB2D31A9BB201339AB2F1
:10D0B400059BDA8000210F4802F09AFB03469AB2DE
:10D0C400059B9A809DF80A30184602F0F5F90B4A40
:10D0D40003AB1946104602F003FB03468DF81330E8
:10D0E4009DF8133019460198FFF762FE07B05DF80A
:10D0F40004FB00BF70320020743200205C2B00203F
:10D1040000B583B003468DF807309DF80730012B36
:10D1140007D0022B09D0002B0BD10A48FFF782FF5E
:10D124000CE00948FFF77EFF08E00848FFF77AFFA4
:10D1340004E007494FF40D700EF0F4FA00BF03B099
:10D144005DF804FB94EC030098EC03009CEC0300F2
:10D154002CEC030000B583B001900198FFF762FF47
:10D1640000BF03B05DF804FB00B583B003468DF83F
:10D1740007309DF80730002B04D0064940F24D20BB
:10D184000EF0D0FA0448FFF74DFF00BF03B05DF87E
:10D1940004FB00BF2CEC0300A0EC030082B00346A8
:10D1A4008DF807309DF80730082B27D801A252F8D4
:10D1B40023F000BFDDD10200E1D10200E5D102007D
:10D1C400E9D10200EDD10200F1D10200F5D1020053
:10D1D400F9D10200FDD10200002310E000230EE08B
:10D1E40001230CE000230AE0002308E0012306E009
:10D1F400012304E0012302E0012300E00023184698
:10D2040002B0704782B003468DF807309DF80730AE
:10D21400082B27D801A252F823F000BF45D2020000
:10D2240049D202004DD2020051D2020055D202006E
:10D2340059D202005DD2020061D2020065D202001E
:10D24400002310E000230EE001230CE000230AE099
:10D25400002308E0002306E0002304E0002302E0AA
:10D26400012300E00023184602B07047014B1B78ED
:10D27400184670471033002010B582B003468DF86D
:10D2840007309DF807301846FFF788FF03461C4611
:10D294001C4B1B781846FFF781FF03469C420DD0B8
:10D2A4009DF807301846FFF779FF0346002B03D09B
:10D2B400154807F04DFE01E007F0A8FE9DF8073081
:10D2C4001846FFF79FFF03461C460E4B1B78184673
:10D2D400FFF798FF03469C420CD09DF80730184690
:10D2E400FFF790FF0346002B02D00AF0E9FD01E0AE
:10D2F4000AF0DCFD034A9DF80730137000BF02B04A
:10D3040010BD00BF10330020702B002000B587B083
:10D3140001900B468DF8033013468DF802300198C6
:10D32400FFF754FC03461A469DF80330934204D990
:10D334001B4940F2C6200EF0F5F99DF80230002B8F
:10D3440001D0072328E09DF8033019460198FFF720
:10D3540045FC04900498FFF772FC03468DF80F30E7
:10D3640000238DF8173010E09DF817301946049803
:10D37400FFF76CFC0290029B1B78184600F056FEE7
:10D384009DF8173001338DF817309DF817209DF85C
:10D394000F309A42E8D30023184607B05DF804FB27
:10D3A4002CEC030000B587B001900B468DF80330D8
:10D3B4000198FFF70BFC03461A469DF8033093428D
:10D3C40004D9184940F2E5200EF0ACF99DF8033079
:10D3D40019460198FFF702FC04900498FFF72FFC0C
:10D3E40003468DF80F3000238DF8173010E09DF8B8
:10D3F400173019460498FFF729FC0290029B1B780A
:10D40400184600F031FE9DF8173001338DF81730BF
:10D414009DF817209DF80F309A42E8D300BF07B05B
:10D424005DF804FB2CEC030000B589B0019007F013
:10D43400F7FC0346002B04D1484940F2FE200EF0CD
:10D4440071F9474808234FF48472464902F0FCF806
:10D454000690069B002B01D003237BE042480AF090
:10D4640067FA0690069B002B01D0069B72E03F4BA7
:10D4740000221A703E4B00221A603E4B00221A60B2
:10D48400482200213C4811F005F8482200213B487D
:10D4940011F000F8019B002B09D1394B00221A60CE
:10D4A400374B00225A60364B00221A7204E0344B88
:10D4B400019A07CA83E80700002007F031FF0690AD
:10D4C400069B002B08D0069B852B05D0234A4FF4DE
:10D4D4004B710698FFF770F8FFF718FC05900023CE
:10D4E4008DF81F3018E000238DF81E3007E00398F4
:10D4F400FFF7D2FB034605991846FFF753FD9DF845
:10D504001E305A1C8DF81E2019460498FFF79EFB06
:10D514000390039B002BEAD19DF81F305A1C8DF811
:10D524001F2019460598FFF759FB0490049B002B14
:10D53400D9D10B238DF8083002AB19460598FFF7B3
:10D544000BFC0690069B002B03D00AF071FA069B95
:10D5540000E00023184609B05DF804FB2CEC03003E
:10D564005C2B00206831002059D1020010330020C8
:10D57400083300200C33002078320020C032002011
:10D584001433002000B583B00AF0CAFB034683F0CD
:10D594000103DBB2002B04D10AF0CEFB0346002BBF
:10D5A40001D008230FE00A4807F01AFF0190019BFD
:10D5B4000093009B002B05D0064A40F28631009868
:10D5C400FEF7FAFF0023184603B05DF804FB00BF22
:10D5D400A4EC03002CEC030008B50AF03DFA00BFEC
:10D5E40008BD000008B50AF0B3FB034683F001034D
:10D5F400DBB2002B04D1044940F295300EF092F8CE
:10D604000AF014FB00BF08BD2CEC030008B50AF0B7
:10D6140093FB0346002B0DD10D494FF467700EF0B8
:10D6240081F807E0FFF77EFB034683F00103DBB2DA
:10D63400002B0BD1FFF783FB034683F00103DBB21E
:10D64400002BEFD10348FFF7EDFC00E000BF08BD5D
:10D654002CEC0300A8EC030000B583B082238DF802
:10D66400043001AB1846FFF7DDFC00BF03B05DF8E2
:10D6740004FB000000B583B000F0CCFC0346002B93
:10D6840004D10E4940F2D7300EF04CF8012001F0DD
:10D6940019FE034683F00103DBB2002B01D0002303
:10D6A40007E084238DF8043001AB1846FFF7BAFC79
:10D6B4000123184603B05DF804FB00BF2CEC030003
:10D6C40000B587B00190E14B1B68002B04D1E04901
:10D6D40040F2E9300EF026F801F025FF0346062B50
:10D6E40004D8DB494FF47C700EF01CF8019B1B78C6
:10D6F400842B00F2438201A252F823F00BDA0200D9
:10D7040033DA0200BFDA020069DA020083DA0200C7
:10D71400E7DA0200EFDA020081DB020057DB0200E5
:10D7240065DB020073DB020081DB020081DB0200A7
:10D7340081DB020081DB0200D9DA020081DB020016
:10D7440081DB020081DB020081DB020081DB02005D
:10D7540081DB020081DB020081DB020081DB02004D
:10D7640081DB020081DB020081DB020081DB02003D
:10D7740081DB020081DB020081DB020081DB02002D
:10D7840081DB020081DB020081DB020081DB02001D
:10D7940081DB020081DB020081DB020081DB02000D
:10D7A40081DB020081DB020081DB020081DB0200FD
:10D7B40081DB020081DB020081DB020081DB0200ED
:10D7C40081DB020081DB020081DB020081DB0200DD
:10D7D40081DB020081DB020081DB020081DB0200CD
:10D7E40081DB020081DB020081DB020081DB0200BD
:10D7F40081DB020081DB020081DB020081DB0200AD
:10D8040081DB020081DB020081DB020081DB02009C
:10D8140081DB020081DB020081DB020081DB02008C
:10D8240081DB020081DB020081DB020081DB02007C
:10D8340081DB020081DB020081DB020081DB02006C
:10D8440081DB020081DB020081DB020081DB02005C
:10D8540081DB020081DB020081DB020081DB02004C
:10D8640081DB020081DB020081DB020081DB02003C
:10D8740081DB020081DB020081DB020081DB02002C
:10D8840081DB020081DB020081DB020081DB02001C
:10D8940081DB020081DB020081DB020081DB02000C
:10D8A40081DB020081DB020081DB020081DB0200FC
:10D8B40081DB020081DB020081DB020081DB0200EC
:10D8C40081DB020081DB020081DB020081DB0200DC
:10D8D40081DB020081DB020081DB020081DB0200CC
:10D8E40081DB020081DB020081DB020081DB0200BC
:10D8F40081DB020081DB020081DB02008FD90200A0
:10D9040015D9020055D90200BDD90200DDD90200A3
:10D914005048FFF775FB4F4800F044FC0D20FFF71B
:10D924005FFA4D4B1B68002B03D14C4B1B7A002B29
:10D9340001D0012300E0002303F00103DBB2184609
:10D944000AF094F900F050FD0120FFF795FC22E164
:10D9540000F04AFD0AF0C2F90020FFF78DFC4048B0
:10D9640000F020FC3E48FFF74BFB0E20FFF738FA8F
:10D97400FFF77CFC03461846FFF710FC0346002B18
:10D9840000F0028107F042FBFEE0FFF76FFC034664
:10D99400062B08D0072B0AD0052B00D00BE0022061
:10D9A400FFF76AFC07E00820FFF766FC03E00220AB
:10D9B400FFF762FC00BFEEE0FFF758FC0346032BC1
:10D9C40040F0E4800AF0D8F90346002B00F0DE8032
:10D9D4000420FFF751FCD9E0FFF748FC0346032B72
:10D9E40007D10AF0C9F90346002B02D00420FFF73F
:10D9F40043FC0AF015FA0346002B00F0C980062008
:10DA0400FFF73AFCC4E00020FFF7EAF900F040FB1E
:10DA1400059008E001990598FFF79EF90490059890
:10DA2400FFF75EF90590059B002BF3D1B3E000F0FE
:10DA3400DBFC0220FFF720FC0120FFF7D1F901985D
:10DA4400FFF7DEFA019800F0ADFBA4E008330020F4
:10DA54002CEC0300ACEC03000C3300201433002046
:10DA6400B0EC03000520FFF707FC0320FFF7B8F92B
:10DA74000198FFF7C5FA019800F094FB8BE00320AE
:10DA8400FFF7AEF94648FFF7BBFA454800F08AFBBA
:10DA9400FFF7ECFB0346062B02D0082B04D007E06B
:10DAA4000720FFF7E9FB07E00220FFF7E5FB03E0AF
:10DAB4000220FFF7E1FB6EE06DE00320FFF7DCFBE3
:10DAC4000220FFF78DF9019800F06CFB0198FFF735
:10DAD40097FA60E00F20FFF783F9019800F062FBEA
:10DAE40059E00198FFF78CFA55E0019B9B781846A2
:10DAF400FFF70CFA0390039B1B68002B04D1294900
:10DB040040F2AD400DF00EFE039B5B68002B04D188
:10DB1400244940F2AE400DF005FE039B5B68039A76
:10DB240012680199104698470346002B32D0019B96
:10DB34009B7803F00F03002B2CD0019B9B7803F000
:10DB44000F03072B26DC019B9B7818460AF005FC83
:10DB540020E00820FFF744F9019800F023FB1AE0C5
:10DB64000920FFF73DF9019800F01CFB13E00A209F
:10DB7400FFF736F9019800F015FB0CE0094940F273
:10DB8400D1400DF0CFFD06E000BF04E000BF02E08D
:10DB940000BF00E000BF00BF07B05DF804FB00BF9A
:10DBA400B4EC03002CEC030000B583B00023019314
:10DBB400394B1B68002B07D1384B3949184601F003
:10DBC400A3FD0246344B1A60334B1B68002B32D042
:10DBD400314B1B689B88002B1ED02F4B1B68DB88A6
:10DBE400B3F5006F03D32C4B1B680022DA802A4B59
:10DBF4001B68DA88511C89B2D9801346ADF8063007
:10DC0400254B1B689A88013A92B29A8001AB184658
:10DC1400FFF756FD01233AE01F4B1B681846FFF738
:10DC24004FFD1E4B1E49184601F087FD1A4B00227A
:10DC34001A6001232BE01B4B1B68002B26D000230A
:10DC44008DF803300DF10303184601F01FFC164B49
:10DC54001B88B3F5006F02D3134B00221A80124BBA
:10DC64001B885A1C91B2104A1180ADF8063001216C
:10DC74000C4801F04CFE9DF80330184601F01CFCE2
:10DC840001AB1846FFF71CFD012300E000231846F2
:10DC940003B05DF804FB00BF203300205C2B0020A0
:10DCA40024330020703200207432002000B589B083
:10DCB4000190019B002B04D15A4940F215500DF0FC
:10DCC40031FD019B5B68002B04D1564940F216508C
:10DCD4000DF028FD019B5B681B68002B04D15149A2
:10DCE40040F217500DF01EFD0198FEF7DCFF0346CD
:10DCF4001B68002B04D04B494FF4A3600DF012FDB8
:10DD04000AF01AF8034683F00103DBB2002B04D0B7
:10DD14000AF006F80346002B04D1424940F21C5095
:10DD24000DF000FD00238DF81F301CE000238DF85A
:10DD34001E300BE00498FEF7AFFF03461846FFF7CA
:10DD440021F90346002B01D0112367E09DF81E3012
:10DD54005A1C8DF81E2019460598FEF777FF04908B
:10DD6400049B002BE6D19DF81F305A1C8DF81F2010
:10DD740019460198FEF732FF0590059B002BD5D17B
:10DD840000238DF81F3018E000238DF81D3007E0C4
:10DD94000398FEF781FF034601991846FFF702F93D
:10DDA4009DF81D305A1C8DF81D2019460598FEF764
:10DDB4004DFF0390039B002BEAD19DF81F305A1CA2
:10DDC4008DF81F2019460198FEF708FF0590059B62
:10DDD400002BD9D1144B069310E0069B1A68019BC3
:10DDE4009A4204D10F4940F242500DF09BFC069B2D
:10DDF4001B681846FEF757FF03460693069B1B68ED
:10DE0400002BEAD1069B019A1A600B238DF8083087
:10DE140002AB19460198FEF79FFF0346184609B066
:10DE24005DF804FB2CEC03000833002000B585B03A
:10DE34000190019B002B04D12B4940F2AA500DF014
:10DE440071FC019B5B68002B04D1274940F2AB5065
:10DE54000DF068FC019B5B681B68002B04D1224910
:10DE640040F2AC500DF05EFC09F066FF034683F00F
:10DE74000103DBB2002B04D009F052FF0346002B50
:10DE840004D1194940F2AE500DF04CFC0198FEF754
:10DE94000AFF03465B68002B04D0134940F2B150DB
:10DEA4000DF040FC114B039311E0039B1A68019B96
:10DEB4009A4204D10C494FF4B7600DF033FC039B34
:10DEC4001B681846FEF7EFFE034604330393039BD7
:10DED4001B68002BE9D1039B019A1A6000231846A2
:10DEE40005B05DF804FB00BF2CEC03000C330020EC
:10DEF40000B585B00190019B002B04D11F4940F26D
:10DF0400C3500DF00FFC09F017FF034683F0010323
:10DF1400DBB2002B04D009F003FF0346002B04D12D
:10DF2400164940F2C5500DF0FDFB154B03931BE061
:10DF3400039B1A68019B9A420ED10198FEF7B3FE27
:10DF440003465A68039B1A600198FEF7ACFE02462A
:10DF54000023536000230CE0039B1B681846FEF764
:10DF6400A2FE034604330393039B1B68002BDFD1FB
:10DF74000523184605B05DF804FB00BF2CEC030034
:10DF84000C33002000B583B00190019B002B04D119
:10DF94000C4940F2DA500DF0C5FB0B4B1B780133F2
:10DFA400DAB2094B1A70084B1B78002B04D10549CF
:10DFB40040F2DD500DF0B6FB0023184603B05DF8C7
:10DFC40004FB00BF2CEC03001133002000B583B028
:10DFD4000190019B002B04D10C4940F2E5500DF057
:10DFE400A1FB0B4B1B78002B04D1084940F2E750EE
:10DFF4000DF098FB064B1B78013BDAB2044B1A7008
:10E004000023184603B05DF804FB00BF2CEC0300AA
:10E0140011330020044B1B78002B14BF0123002371
:10E02400DBB21846704700BF1133002000B583B03F
:10E0340003468DF807309DF8073003F00F03072BD4
:10E0440009DC9DF8073018460AF0BEF99DF8073040
:10E0540018460AF094F99DF80730184609F0A6FF0F
:10E0640000BF03B05DF804FB00B583B003468DF830
:10E0740007309DF80730184609F0F0FF00BF03B0E1
:10E084005DF804FB014B1B681846704708330020F9
:10E09400014B1B68184670470C33002000B587B04D
:10E0A400034600918DF80730FFF7ECFF059031E04F
:10E0B4000598FEF78BFD03468DF8123000238DF88A
:10E0C40013301DE09DF8133019460598FEF786FDC0
:10E0D40003900398FEF7ACFD03461A469DF80730FB
:10E0E400934208D1009B002B03D0009B9DF8132082
:10E0F4001A70059B12E09DF8133001338DF813302C
:10E104009DF813209DF812309A42DBD30598FEF750
:10E11400D1FD0590059B002BCAD10023184607B0FA
:10E124005DF804FB00B585B003900B4601928DF8B1
:10E134000B3001990398FEF70FFE0346184605B00D
:10E144005DF804FB00B585B0034600918DF80730F7
:10E154009DF90730002B05DA9DF8073003F00F0313
:10E16400082B09DD9DF90730002B16DB9DF80730DD
:10E1740003F00F03082B10DC9DF807301846FEF758
:10E18400C5FE03461B680393039B002B05D000992F
:10E194000398FEF7E1FD034600E01023184605B09E
:10E1A4005DF804FB00B585B00190FFF76BFF0390A9
:10E1B40007E001990398FEF7CFFD0398FEF77AFD77
:10E1C4000390039B002BF4D100BF05B05DF804FB62
:10E1D40000B585B0019006230293FFF753FF039027
:10E1E4000BE001990398FEF7B7FD0290029B062B02
:10E1F40007D10398FEF75EFD0390039B002BF0D13B
:10E2040000E000BF029B184605B05DF804FB000067
:10E2140000B583B0034600918DF807309DF80730B0
:10E22400184609F0B0FE034683F00103DBB2002B6D
:10E2340001D008230CE0084B1B78022B01D00823E3
:10E2440006E09DF807300099184609F027FF0346B9
:10E25400184603B05DF804FB1033002000B583B00A
:10E26400034600918DF807309DF80730184609F0F1
:10E274008AFE034683F00103DBB2002B01D008239E
:10E284000CE0084B1B78022B01D0082306E09DF814
:10E2940007300099184609F0D5FF0346184603B025
:10E2A4005DF804FB1033002000B585B001900B46E7
:10E2B4008DF8033013468DF8023006230393019B37
:10E2C4005B689B68002B09D0019B5B689B689DF889
:10E2D40002209DF80310019898470390039B062B96
:10E2E40008D19DF802209DF8033019460198FFF7E4
:10E2F4000DF80390039B184605B05DF804FB00B5C8
:10E3040083B001900B468DF80330019B5B68DB689A
:10E31400002B07D0019B5B68DB689DF80320114646
:10E32400019898479DF8033019460198FFF73AF889
:10E3340000BF03B05DF804FB00B585B001900B4647
:10E344008DF8033000238DF80F30019B5B681B6947
:10E35400002B0AD0019B5B681B699DF803201146C2
:10E364000198984703468DF80F309DF80F301846F2
:10E3740005B05DF804FB000000B585B0FFF782FE30
:10E38400039028E00398FEF721FC03468DF80A3039
:10E3940000238DF80B3014E09DF80B300022194651
:10E3A4000398FFF781FF0190019B002B04D00D49D6
:10E3B40040F2D1600DF0B6F99DF80B3001338DF8C1
:10E3C4000B309DF80B209DF80A309A42E4D3039851
:10E3D400FEF770FC0390039B002BD3D100BF05B064
:10E3E4005DF804FB2CEC030000B583B0FFF74AFE94
:10E3F40001901EE00198FEF7E9FB03468DF8023018
:10E4040000238DF803300AE09DF803301946019883
:10E41400FFF775FF9DF8033001338DF803309DF845
:10E4240003209DF802309A42EED30198FEF742FC95
:10E434000190019B002BDDD100BF03B05DF804FB0C
:10E4440082B00190019B03F1804303F51C3318460D
:10E4540002B0704700B583B003468DF807309DF8CD
:10E4640007301846FFF7ECFF024601231360BFF3A1
:10E474006F8FBFF34F8F00BF03B05DF804FB000044
:10E48400094B1B68DBB2082B07D1084B1B6803F050
:10E494000F03002B01D1012300E0002303F001034B
:10E4A400DBB21846704700BFE00F00F0E40F00F045
:10E4B40008B5FFF7E5FF0346002B0DD0094B1B6899
:10E4C40003F0F003002B07D1074B1B6803F0F003A4
:10E4D400002B01D1012300E0002303F00103DBB290
:10E4E400184608BDE80F00F0EC0F00F008B5FFF780
:10E4F400DFFF0346184608BD82B003468DF8073097
:10E504009DF8073003F01F03DBB2184602B07047D2
:10E5140082B003468DF807309DF807305B0903F09D
:10E524000303DBB2184602B0704782B003468DF88D
:10E5340007309DF80730DB09DBB2184602B070479C
:10E5440082B00190019B1B7A184602B0704782B0DA
:10E554000190019B1B68184602B0704700B583B058
:10E564000190019B002B04D106494FF406700DF075
:10E57400D9F80198FFF7EBFF03461B68184603B070
:10E584005DF804FBC4ED030082B00190019B1B788D
:10E59400184602B07047000000B583B003468DF8FA
:10E5A40007300E4B1B789DF807209A4211D00B4A76
:10E5B4009DF8073013709DF80730052B06D0084BE3
:10E5C4001B7823F00203DAB2054B1A700548FFF7F3
:10E5D40077F800BF03B05DF804FB00BF28330020C8
:10E5E4002933002000EF0300014B1B7818467047C5
:10E5F400283300204FF08043D3F8383403F001036C
:10E60400002B14BF01230023DBB21846704700001F
:10E61400024B00221A6000BF704700BF7033002015
:10E6240000B585B003468DF807300B4B1B68039388
:10E63400039B002B0AD0FFF7EBFF074B59689DF8AB
:10E644000720039B10469847034600E00E23184614
:10E6540005B05DF804FB00BF70330020044B1B6859
:10E66400002B14BF01230023DBB21846704700BF00
:10E674007033002082B0034600918DF807300023E8
:10E68400184602B07047000010B58EB00390029196
:10E69400019201238DF83730029B0993099B5B6833
:10E6A400002B15D1099B1B681846FFF757FF03463B
:10E6B400002B0DD1099B9B68002B09D100238DF8F9
:10E6C4003730039B00221A60039B00225A60AAE0A1
:10E6D400019B402B04D9564940F297100DF022F8C3
:10E6E40000230C9300238DF82B3009F01DFE0890B5
:10E6F400099BDA68019B934228BF13460B9386E07B
:10E70400099B9A680B9B934228BF13460793099B66
:10E714005B68002B0CD0089A0C9BD018099B5B6893
:10E72400079A19460FF08CFE099B00225A6014E0E8
:10E73400099B9B68002B10D0099B1B685B685C6875
:10E74400099B03F11000099B1968089A0C9B1A4451
:10E75400079BA04701238DF82B30099B9A68079BE0
:10E76400D21A099B9A60099BDA68079BD21A099B03
:10E77400DA600B9A079BD31A0B930C9A079B1344EA
:10E784000C93099B9B68002B0BD19DF82B30002B1D
:10E7940007D0099B1B681846FFF7E0FE0246099B59
:10E7A4001A60099BDB68002B03D100238DF83730F6
:10E7B4002DE0099B9B68002B29D1099B1B68002B2A
:10E7C4000DD1099B00225A600C9B002B24D00C9A7B
:10E7D400019B9A4220D200238DF837301CE000239D
:10E7E400059304E0099B9B685A1C099B9A60099B4A
:10E7F4001B685B685C68099B196805A801230022F3
:10E80400A0470346002BEDD1099B00221A610B9B04
:10E81400002B7FF475AF00E000BF039B089A1A60D9
:10E82400039B0C9A5A609DF8373018460EB010BD01
:10E834003CEE030000B587B00190019B5B7818465D
:10E84400FFF766FE0346002B01D006237BE0019B05
:10E854005B798DF81730FFF7C7FE03468DF8163045
:10E86400019B9B78012B46D0032B25D0002B00D095
:10E8740068E09DF81630052B05D09DF8173003F09D
:10E884000F03002B16D103AB184600F00DFD0490C6
:10E894009DF81730184609F084FD03469AB2049B8C
:10E8A4001A80019B013302220499184600F08AFC65
:10E8B400034648E0082346E09DF8173003F00F03B1
:10E8C400072B3CDC019BB3F803309BB2002B36D101
:10E8D4009DF81630052B05D09DF8173003F00F0373
:10E8E400002B06D19DF81730184609F036FD002399
:10E8F40029E0082327E09DF8173003F00F03072BC6
:10E904001FDC019BB3F803309BB2002B19D19DF897
:10E914001630052B05D09DF8173003F00F03002B9C
:10E924000BD19DF81730184609F04EFD9DF81730AD
:10E93400184609F024FD002305E0082303E000BF86
:10E9440000E000BF0623184607B05DF804FB00B5DD
:10E954008BB003900B4601928DF80B30019B5B78D2
:10E964001846FFF7D5FD0346002B01D006236AE0C5
:10E97400FFF73AFE03468DF82730019B5B78184673
:10E98400FFF7D3FD0346012B3BD1019B9B78002B62
:10E9940002D00A2B17D055E09DF82730052B01D063
:10E9A400082350E005AB184600F07EFC0890089B55
:10E9B40000221A80019B013302220899184600F0B4
:10E9C40001FC03463FE09DF82730052B01D00823C6
:10E9D40039E004AB184600F067FC07909DF80B3053
:10E9E40019460398FFF7A8FC03461A46079B1A70BA
:10E9F400019B013301220799184600F0E3FB03460B
:10EA040021E0019B9B780B2B00D01BE09DF8273065
:10EA1400052B01D0082316E0019BB3F803309BB209
:10EA2400FF2B01D907230EE0019BDB788DF81B3007
:10EA34009DF81B209DF80B3019460398FFF734FC12
:10EA4400034600E0062318460BB05DF804FB000003
:10EA540000B585B00190009102AB184600F024FC8B
:10EA64000390029B012B04D8184940F295200CF026
:10EA740059FE0222002103980FF00CFDC02303F07D
:10EA84004003002B06D0039B1B7843F00103DAB24A
:10EA9400039B1A700E4B1B785B08DBB203F0010377
:10EAA400002B06D0039B1B7843F00203DAB2039BCE
:10EAB4001A70009B013302220399184600F082FB6E
:10EAC4000346184605B05DF804FB00BF3CEE0300A6
:10EAD4002933002010B590B001900091009B1B7960
:10EAE400022B10D0032B00F0B480012B02D000BF06
:10EAF4000623D3E0009B013312226A49184600F032
:10EB040061FB0346CAE0009BB3F807309BB2092BB4
:10EB140004D8009BB3F807309BB200E009230A93A2
:10EB240009230F9300238DF83B30FFF7ABFA0D90C8
:10EB340037E00D9B5B68002B04D15B4940F2BD209C
:10EB44000CF0F0FD0D9B5B685B68002B04D156490B
:10EB540040F2BE200CF0E6FD00230C930023049346
:10EB640002E00C9B01330C930D9B5B685C6804A86A
:10EB7400012300220D99A0470346002BF1D10F9ADF
:10EB84000C9B13440F930D98FFF7DAFC03461A46C7
:10EB94009DF83B3013448DF83B300D98FFF7DEFCB5
:10EBA4000D900D9B002BC4D106AB184600F07CFBE6
:10EBB4000990069B0A9A9A4204D93B4940F2D32011
:10EBC4000CF0B0FD0A9A394909980FF039FC099BF9
:10EBD4009DF83B201A710F9B9AB2099B5A80FFF74C
:10EBE40019FA0346002B06D0099BDB7943F0200376
:10EBF400DAB2099BDA71FFF745FA02462C4B1A6028
:10EC04002B4A099B53602A4A0A9B9360009BB3F8E2
:10EC140007309BB21A46264BDA6000238DF80F307A
:10EC24000DF10F03184600F031FC22498020FFF754
:10EC340015FB0B900B9B002B04D11F49802000F087
:10EC440015FB0B909DF80F30184600F035FC0B9B1C
:10EC540024E0009BDB788DF82330009B5A799B7964
:10EC64001B021343ADF82030BDF820209DF823305B
:10EC74001146184600F03EFB0790079B002B01D17C
:10EC840006230BE0009B5C1C0798FFF77DFC034602
:10EC94001A460799204600F095FA0346184610B024
:10ECA40010BD00BFACEE03003CEE0300C0EE030059
:10ECB40080330020F8EE0300F0EE030000B587B0C7
:10ECC4000190009103AB184600F0EEFA0590FFF7AF
:10ECD4008BFC03468DF813309DF81330052B03D1BC
:10ECE400059B01221A7009E09DF81330042B03D10F
:10ECF400059B00221A7001E0062307E0009B013304
:10ED040001220599184600F05DFA0346184607B03B
:10ED14005DF804FB00B585B001900091FFF764FC39
:10ED240003468DF80F309DF80F30052B05D09DF864
:10ED34000F30042B01D0082316E0009BDB78002B56
:10ED440005D1FFF751FB0420FFF726FC0BE0009BE5
:10ED5400DB78012B05D1FFF70FFB0520FFF71CFC27
:10ED640001E0072300E00023184605B05DF804FB2A
:10ED740000B585B001900091019B002B04D1594945
:10ED840040F24F300CF0CEFC009B002B04D15549CF
:10ED94004FF454700CF0C6FC009B5B781846FFF7E8
:10EDA400B7FB0346002B01D0062397E0009B5B785A
:10EDB4001846FFF7BAFB0346012B1CD1009B9B7836
:10EDC400062B0CD0082B10D0002B02D000BF06233A
:10EDD40084E000990198FFF73BFE03467EE000992A
:10EDE4000198FFF777FE034678E000990198FFF752
:10EDF40065FF034672E0009B9B78013B082B67D8B4
:10EE040001A252F823F000BF97EE0200D5EE0200F3
:10EE140065EE0200D5EE020031EE0200D5EE0200EE
:10EE2400D5EE0200D5EE0200C9EE0200FFF7DCFBCE
:10EE340003468DF80F309DF80F30032B09D09DF851
:10EE44000F30042B05D09DF80F30052B01D008237B
:10EE540044E0FFF7C9FA0420FFF79EFB00233DE0DE
:10EE6400009BB3F803309BB2012B33D1FFF7D2F8E8
:10EE7400034683F00103DBB2002B01D00F232DE006
:10EE8400194B1B7843F00203DAB2174B1A700023B4
:10EE940024E0009BB3F803309BB2012B1CD1FFF795
:10EEA400B9F8034683F00103DBB2002B01D00F2332
:10EEB40014E00D4B1B7823F00203DAB20A4B1A70EC
:10EEC40000230BE000990198FFF724FF034605E0B7
:10EED40000BF02E000BF00E000BF0623184605B0F3
:10EEE4005DF804FB3CEE03002933002000B58BB031
:10EEF40001900623099305238DF8103004AB0133E8
:10EF0400184609F070FAFFF7A9FBFFF781FB9DF89B
:10EF140011301846FFF7F0FA0346032B64D801A218
:10EF240052F823F039EF020057EF0200A7EF020076
:10EF3400E1EF020004AB19460198FFF719FF0990AD
:10EF4400099B062B52D104AB1846FFF741F90990EF
:10EF54004CE09DF815308DF823300DF10F029DF82B
:10EF6400233011461846FFF799F80790079B002BAA
:10EF740002D1102309933BE09DF80F3004AA1946EF
:10EF84000798FFF7CFF80990099B062B30D19DF81D
:10EF94000F3004AA19460798FFF7D9FC099000BF5F
:10EFA40026E0062309939DF815308DF81B309DF853
:10EFB4001B3003F00F03002B07D004AA9DF81B306D
:10EFC40011461846FFF7BEF80990099B062B11D18C
:10EFD40004AB1846FFF72EFC09900BE004AB18466F
:10EFE400FFF7F6F8099006E000BF04E000BF02E076
:10EFF40000BF00E000BF099B002B0FD1FFF72EFBE1
:10F004000346002B07D009F045FA0346002B07D12D
:10F0140009F013FA04E009F030FA01E009F033FAD8
:10F02400099B18460BB05DF804FB00BF00B585B022
:10F034000190009106230393009B1B78013B0D2B49
:10F0440000F2B28001A252F823F000BF89F002005E
:10F0540091F0020097F00200ADF10200C3F002004B
:10F0640045F10200ADF10200ADF10200ADF1020084
:10F07400ADF10200CDF00200E7F0020007F102005A
:10F0840025F102000320FFF787FA92E0002303939F
:10F094008FE04A4800F061FC0346002B02D05C205C
:10F0A400FFF7D8F9FFF7A0FA0346002B04D144492F
:10F0B40040F231400CF036FB0023039379E00198D1
:10F0C400FFF714FF039074E0FFF78EFA0346002B5A
:10F0D40004D03B4940F23C400CF024FB0023039352
:10F0E40067E0FFF781FA0346012B04D0344940F26C
:10F0F40042400CF017FB0020FFF74EFA0023039365
:10F1040057E0FFF777FA0346002B03D00220FFF7FE
:10F1140043FA02E00120FFF73FFA0023039348E09B
:10F12400FFF762FA0346012B04D8254940F2564002
:10F134000CF0F8FA0120FFF72FFA0023039338E0CC
:10F14400009BDB78032B31D0009B9B78002B08D0ED
:10F15400009B9B78802B04D0194940F265400CF049
:10F16400E1FA009BDB781846FFF75AFA0390039BF9
:10F17400002B16D1FFF772FA0346002B06D0009B32
:10F184009B78002B14D109F058F911E0FFF7AEF980
:10F19400034683F00103DBB2002B09D009F06DF9BB
:10F1A40006E009F070F903E000BF02E000BF00E0F0
:10F1B40000BF039B184605B05DF804FB2C33002008
:10F1C4003CEE030000B58DB0039002910192039BC5
:10F1D400DB889BB20A93019A0A9B934228BF134689
:10F1E4000993019A0A9B9A420ED2802008F0BAFE33
:10F1F40003461A46019BB3FBF2F102FB01F29B1A90
:10F20400002B01D1012300E000238DF823309DF869
:10F21400233003F001038DF82330029B0593099BEF
:10F2240006939DF82330079300238DF813300DF1D6
:10F234001303184600F02AF905AB19468020FEF79F
:10F24400E7FF0B900B9B002B04D10749802000F0B3
:10F254000DF80B909DF81330184600F02DF90B9B18
:10F2640018460DB05DF804FBF0EE030000B583B062
:10F27400034600918DF8073009F00CF903461A464D
:10F284009DF80730934201D0102306E0054B009A05
:10F2940092E8030083E803000023184603B05DF8F6
:10F2A40004FB00BF7033002082B00190019B002B4F
:10F2B40002D0019B40221A60014B184602B07047ED
:10F2C4003033002082B003468DF80730084B1B789A
:10F2D4001A469DF8073042FA03F303F00103002BAA
:10F2E40014BF01230023DBB2184602B0704700BFED
:10F2F4002933002084B003460A468DF807301346AC
:10F30400ADF804309DF80730002B02D1124B1B6876
:10F314001EE000238DF80F309DF80730042B01D92F
:10F32400002315E09DF807300C4AD35C8DF80E30AD
:10F334009DF80E30002B01D1002309E09DF80E202A
:10F344009DF80F300449134451F823300293029B73
:10F35400184604B0704700BF782B002004EF030068
:10F3640082B003468DF807309DF90730002B0BDA85
:10F374000B4A9DF8073003F00F03043B13441B7E34
:10F38400DBB25B09DBB208E0064A9DF9073013449F
:10F3940093F80033DBB25B09DBB2184602B0704766
:10F3A40000ED00E000E100E082B0EFF31083009391
:10F3B400009B019372B6019B184602B0704762B677
:10F3C40000BF704700B585B00190FFF7EDFF0390D3
:10F3D400164B9B68002B1BD1144B01229A60144BD3
:10F3E400D3F88020134B1340104A1360104B114A7A
:10F3F400C3F880200E4BD3F884300C4A53600C4B76
:10F404004FF0FF32C3F88420019B00221A7002E0FF
:10F41400019B01221A70039B002B01D1FFF7CFFF40
:10F424000023184605B05DF804FB00BFB433002088
:10F4340000E100E0FC06FFBD00B585B003468DF891
:10F444000730104B9B68002B16D09DF80730002B1B
:10F4540012D1FFF7A9FF03900B4A0A4B1B681360F4
:10F46400094A084B5B685360064B00229A60039B71
:10F47400002B01D1FFF7A3FF0023184605B05DF868
:10F4840004FB00BFB433002000E100E000B583B00A
:10F49400019000F02BF80346012B03D005494320CB
:10F4A4000CF040F90198FFF78DFF00BF03B05DF841
:10F4B40004FB00BF6CEF030000B583B003468DF876
:10F4C400073000F013F80346012B03D006495120FE
:10F4D4000CF028F99DF807301846FFF7ADFF00BF80
:10F4E40003B05DF804FB00BF6CEF030084B0EFF3DE
:10F4F40005830193019BC3F308030393039B002B30
:10F504000DD1EFF314830093009B0293029B03F04D
:10F514000103002B0CBF01230023DBB200E0012315
:10F52400184604B0704700B585B0EFF30583019326
:10F53400019BC3F308030393039B002B0AD0039B93
:10F54400103B0293029B5BB21846FFF709FF034688
:10F55400DBB200E00F23184605B05DF804FB86B06B
:10F5640001900091019B53E8011F8AB2D88902449B
:10F574009889824228BF121A1889824202BFBFF3B7
:10F584002F8F002307E0C2EA010243E8012000288C
:10F59400E9D14FF001038DF80F30059002910492E8
:10F5A400029A009B1A609DF80F30DBB2184606B031
:10F5B400704784B00190019951E8013FC3EA0343C5
:10F5C40041E80132002AF7D10392029300BF04B04C
:10F5D400704786B001900091019B53E8021F1FFA07
:10F5E400A1F2D888824202BFBFF32F8F00230DE01F
:10F5F400D88902449889824228BF121AC1EA024279
:10F6040043E802200028E8D14FF001038DF80F30C1
:10F61400059002910492029A009B1A609DF80F30A3
:10F62400DBB2184606B0704784B00190019951E8E6
:10F63400023FC3EA234341E80232002AF7D103928E
:10F64400029300BF04B0704784B003900291114646
:10F654001A460B46ADF806301346ADF80430029B4B
:10F66400002B01D10E231FE0BDF80630BDF80420A5
:10F67400B3FBF2F102FB01F29B1A9BB2002B01D007
:10F68400092311E0039B029A1A60039B00225A602B
:10F69400039B00229A60039BBDF806209A81039B7A
:10F6A400BDF80420DA810023184604B0704700B581
:10F6B40085B001900091009B19460198FFF74FFF18
:10F6C4000346002B07D0019B1B68009A1288134441
:10F6D4000393039B00E00023184605B05DF804FB88
:10F6E40000B583B001900091009B1A88009B5B8851
:10F6F4009A4204D10198FFF75CFF012300E0002344
:10F70400184603B05DF804FB00B585B00190009184
:10F71400009B19460198FFF75CFF0346002B07D0B6
:10F72400019B1B68009A528813440393039B00E0D7
:10F734000023184605B05DF804FB00B583B00190C2
:10F744000091009B1A88009B5B889A4204D101981F
:10F75400FFF76AFF012300E00023184603B05DF8B9
:10F7640004FB00B585B001900091009B5B099B00F0
:10F77400019AD018009B03F01F03012202FA03F33D
:10F78400194600F04CF8039000BF05B05DF804FB87
:10F7940000B585B001900091009B5B099B00019A24
:10F7A400D018009B03F01F03012202FA03F3DB438A
:10F7B400194600F064F8039000BF05B05DF804FB3F
:10F7C40082B001900091009B5B099B00019A134455
:10F7D4001A68009B03F01F0322FA03F303F00103EA
:10F7E400002B14BF01230023DBB2184602B070477C
:10F7F40010B487B001900091019B009A53E8004F28
:10F80400104643E8000191F0000FF7D105940490ED
:10F814000391059B184607B05DF8044B704710B47C
:10F8240087B001900091019B009A53E8004F44EA8D
:10F83400020043E8000191F0000FF6D10594049012
:10F844000391049B184607B05DF8044B704710B44D
:10F8540087B001900091019B009A53E8004F04EA9D
:10F86400020043E8000191F0000FF6D105940490E2
:10F874000391059B184607B05DF8044B704710B41C
:10F8840087B001900091019B009A53E8004F04EA6D
:10F89400020043E8000191F0000FF6D105940490B2
:10F8A4000391049B184607B05DF8044B704710B4ED
:10F8B40087B001900091019B009A53E8004F04EB3C
:10F8C400020043E8000191F0000FF6D10594049082
:10F8D4000391049B184607B05DF8044B704710B4BD
:10F8E40087B001900091019B009A53E8004FA4EB6C
:10F8F400020043E8000191F0000FF6D10594049052
:10F904000391049B184607B05DF8044B704710B48C
:10F9140087B001900091019B009A53E8004F9442F4
:10F924002CBFA01A204643E8000191F0000FF4D147
:10F93400059404900391049B184607B05DF8044BAA
:10F94400704700B583B0019001210198FFF767FF6C
:10F954000346184603B05DF804FB00B583B001907C
:10F9640000210198FFF773FF0346184603B05DF8C2
:10F9740004FB000000B583B001900B468DF8033002
:10F98400019B002B03D10849E8200BF0CBFE019B1F
:10F99400DA689DF803300199898A01FB03F3134463
:10F9A400184603B05DF804FBE0EF030000B583B034
:10F9B40001900091019B002B03D10849F5200BF025
:10F9C400B1FE009B019AD2689B1A019A928AB3FBFA
:10F9D400F2F3DBB2184603B05DF804FBE0EF03007A
:10F9E40000B585B00190019B002B01D10E234DE0A1
:10F9F400019B1B68002B03D12649FF200BF092FECC
:10FA0400019B5B68002B04D122494FF480700BF0FA
:10FA140089FE019B9B68002B04D11E4940F2011012
:10FA24000BF080FE019BDB68002B04D119494FF4D5
:10FA340081700BF077FE019B9B8A002B04D1154942
:10FA440040F203100BF06EFE019B9B681A46019B6B
:10FA54005B68D31A8DF80F30019B1B68019A5268BA
:10FA64001A6007E0019B1A681368591C11609DF81D
:10FA74000F201A709DF80F305A1E8DF80F20002B9E
:10FA8400F0D1019B1B6800221A710023184605B0AF
:10FA94005DF804FBE0EF030000B585B00190019B25
:10FAA400002B04D120494FF492700BF03BFE00234D
:10FAB400039300238DF80A300DF10A031846FFF76B
:10FAC400E5FC019B1B681A68019B5B689A4220D97C
:10FAD400019B1B681A68013A1A601B681B78194657
:10FAE4000198FFF747FF0390019B9B681A46019B0F
:10FAF4001B681B68D31A8DF80B30019B1B681B799C
:10FB04009DF80B209A4204D9019B1B689DF80B2099
:10FB14001A719DF80A301846FFF7CEFC039B18466D
:10FB240005B05DF804FB00BFE0EF030010B584B03E
:10FB340001900091019B002B04D1154940F247101C
:10FB44000BF0F0FD009B002B04D111494FF4A4707D
:10FB54000BF0E8FD009B039300238DF80B300DF1AF
:10FB64000B031846FFF792FC019B1B681C68621C80
:10FB74001A6003990198FFF719FF034623709DF853
:10FB84000B301846FFF798FC00BF04B010BD00BF4F
:10FB9400E0EF030000B583B00190019B002B03D17B
:10FBA4000C4931200BF0BEFD019B9B68002B0CD04F
:10FBB400019B5B69019A1069019A1168019A926824
:10FBC4009847019B00229A6000E000BF03B05DF8F3
:10FBD40004FB00BF4CF003000EB400B584B00190E8
:10FBE400019B002B03D1184942200BF09BFD019B84
:10FBF4005B69002B03D1144943200BF093FD019B57
:10FC04001B68002B03D1104944200BF08BFD019B92
:10FC14005B68002B03D10C4945200BF083FD059B49
:10FC2400002B0AD00023039306AB039303AB1A46BD
:10FC34000599019800F0B0F900E000BF04B05DF848
:10FC440004EB03B0704700BF4CF0030000B583B071
:10FC540001900B468DF80330019B1A68019B9B6849
:10FC6400581C0199886013449DF803201A70019B65
:10FC74009A68019B5B689A4202D30198FFF78AFF56
:10FC840000BF03B05DF804FB00B587B00390029198
:10FC94000192009300230593009B03F00103002BC2
:10FCA40024D00BE0029B01330293059B013305939F
:10FCB4009DF8133019460398FFF7C8FF029B1B7881
:10FCC4008DF813309DF81330002BEBD106E0019B27
:10FCD400013B019320210398FFF7B8FF019A059B8C
:10FCE4009A422ED9019B002BF1D12AE0029B002BD2
:10FCF4000BD002980EF04CFC059006E0019B013BF2
:10FD0400019320210398FFF7A1FF019A059B9A42D2
:10FD14000FD9019B002BF1D10BE0029B013302931D
:10FD2400059B013305939DF8133019460398FFF79B
:10FD34008DFF029B1B788DF813309DF81330002B38
:10FD4400EBD100BF07B05DF804FB000000B589B03B
:10FD54000390029101920093029B0793012306935F
:10FD640007E0079A019BB2FBF3F30793069B013369
:10FD74000693079A019B9A42F3D2009A069B9A42F1
:10FD840001D9009B06930B9B03F00103002B22D1A6
:10FD94000A9B002B1FD00B9B03F00203002B06D001
:10FDA400009B002B03D130238DF8173002E0202371
:10FDB4008DF8173008E00A9B013B0A939DF8173031
:10FDC40019460398FFF742FF0A9B002B03D0069ABB
:10FDD4000A9B9A42EFD301230793009B012B03D97B
:10FDE400009B013B009309E0029A079BB2FBF3F3EB
:10FDF4000493049A019B9A4200D205E0079B019A5E
:10FE040002FB03F30793E8E7029A079BB2FBF3F3C1
:10FE14000493049B079A02FB03F3029AD31A0293F6
:10FE2400154A049B13441B7819460398FFF70EFFE9
:10FE3400079A019BB2FBF3F30793079B002BE3D1D3
:10FE44000B9B03F00103002B11D00A9B002B0ED057
:10FE540006E00A9B013B0A9320210398FFF7F6FE74
:10FE64000A9B002B03D0069A0A9B9A42F1D300BF47
:10FE740009B05DF804FB00BF1CF1030000B589B0B4
:10FE84000590049103920293049B002BB8BF5B423C
:10FE940006930123079307E0039B069A92FBF3F36F
:10FEA4000693079B01330793039B069A9A42F3DA5E
:10FEB400029A079B9A4201D9029B07930A9B002B43
:10FEC4000AD0049B002B04DB0B9B03F00403002BE0
:10FED40002D00A9B013B0A930B9B03F00203002B05
:10FEE40002D0029B002B16D00B9B03F00103002BC6
:10FEF40011D10A9B002B0ED006E00A9B013B0A930A
:10FF040020210598FFF7A2FE0A9B002B03D0079A35
:10FF14000A9B9A42F1D3049B002B07DA049B5B42B1
:10FF240004932D210598FFF791FE08E00B9B03F045
:10FF34000403002B03D02B210598FFF787FE0B9BAE
:10FF440003F00203002B19D00B9B03F00103002BD9
:10FF540014D1029B002B11D10A9B002B0ED006E07A
:10FF64000A9B013B0A9330210598FFF76FFE0A9B19
:10FF7400002B03D0079A0A9B9A42F1D304990B9B56
:10FF840001930A9B0093029B039A0598FFF7DEFEF8
:10FF940000BF09B05DF804FB00B58FB00590049173
:10FFA4000392059B002B04D1C8494FF49F700BF0BA
:10FFB400B9FB059B5B69002B04D1C4494FF4A070C5
:10FFC4000BF0B0FB059B1B68002B04D1BF4940F22A
:10FFD40041100BF0A7FB059B5B68002B04D1BB49C8
:10FFE4004FF4A1700BF09EFB049B002B00F0ED81FD
:0CFFF400049B1B788DF83730049B013310
:020000023000CC
:1000000004939DF83730002B00F0D8819DF83730ED
:10001000252B40F0C78100230A9301230C93049BF6
:100020001B788DF837309DF837302D2B04D0302BCE
:100030000AD02B2B10D017E00A9B43F001030A9340
:10004000049B0133049312E00A9B43F002030A93DA
:10005000049B013304930AE00A9B43F004030A93D0
:10006000049B0133049302E000230C9300BF0C9B1C
:10007000002BD4D1002309939DF837302A2B0CD1C3
:10008000039B1B68191D039A11601B68099A13448E
:100090000993049B013304931AE0049B1B788DF8A9
:1000A00037309DF837302F2B12D99DF83730392B48
:1000B0000ED8049B01330493099A13469B00134402
:1000C0005B001A469DF837301344303B0993D3E761
:1000D00000230B93049B1B788DF837309DF8373045
:1000E0002E2B1DD1049B01330493049B1B788DF8A8
:1000F00037309DF837302F2B12D99DF83730392BF8
:100100000ED8049B013304930B9A13469B001344AF
:100110005B001A469DF837301344303B0B93E4E7FD
:10012000049B1B788DF837309DF837306C2B03D04B
:100130009DF83730682B07D1049B01330493049B4F
:100140001B788DF83730EFE79DF83730253B532B80
:1001500000F2238101A252F823F000BF91030300B3
:100160009B0303009B0303009B0303009B0303000B
:100170009B0303009B0303009B0303009B030300FB
:100180009B0303009B0303009B0303009B030300EB
:100190009B0303009B0303009B0303009B030300DB
:1001A0009B0303009B0303009B0303009B030300CB
:1001B0009B0303009B0303009B0303009B030300BB
:1001C0009B0303009B0303009B0303009B030300AB
:1001D0009B0303009B0303009B0303009B0303009B
:1001E0009B0303009B0303009B0303009B0303008B
:1001F0009B0303009B0303009B0303009B0303007B
:100200009B0303009B0303009B0303009B0303006A
:100210009B0303009B0303009B0303009B0303005A
:100220009B0303009B0303001D0303009B030300C8
:100230009B0303009B0303009B0303009B0303003A
:100240009B0303009B0303009B0303009B0303002A
:100250009B030300AD020300D50203009B030300D0
:100260009B0303009B0303009B030300D5020300D1
:100270009B0303009B0303009B0303009B030300FA
:100280009B0303009B0303005D0303009B03030028
:100290009B030300410303009B030300F9020300D7
:1002A0009B0303009B0303001D030300039B1B68C8
:1002B000191D039A11601B680C930C9B8DF8233059
:1002C0009DF8233019460598FFF7C2FC66E000BF91
:1002D000B0F00300039B1B68191D039A11601B6893
:1002E0000C930A9B0193099B00930B9B0A220C9988
:1002F0000598FFF7C5FD51E0039B1B68191D039A84
:1003000011601B680C930C990A9B0193099B009345
:100310000B9B0A220598FFF71BFD3FE0039B1B6820
:10032000191D039A11601B680C930C990A9B019389
:10033000099B00930B9B10220598FFF709FD2DE008
:10034000039B1B68191D039A11601B6807930A9B86
:10035000099A07990598FFF799FC1FE0039B1B6812
:10036000191D039A11601B680C9330210598FFF743
:100370006FFC78210598FFF76BFC0C990023019323
:1003800008230093082310220598FFF7E1FC05E0FD
:1003900025210598FFF75CFC00E000BF049B0133BA
:1003A000049305E09DF8373019460598FFF750FC97
:1003B000049B1B78002B7FF41DAE00E000BF059B63
:1003C0001B7B002B04D00598FFF7E6FB00E000BF85
:1003D0000FB05DF804FB00BF00B585B00190019B34
:1003E000002B03D0019B1B68002B28D10023039313
:1003F00019E0039A13469B0013449B001A46154BC1
:1004000013440193019B1B68002B09D0019B1B68BF
:10041000DB69019898470346002B01D0012314E0C3
:10042000039B013303930C4A0A4BD31A0B4AA2FBDA
:1004300003231B09039A9A42DBD3002305E0019BA7
:100440001B68DB69019898470346184605B05DF8BC
:1004500004FB00BFF02A0020F02A0020CDCCCCCC39
:1004600029DF704700BF184628DF704700BF1846D5
:1004700000B589B001900091019B1B689B68002B1F
:1004800035D002AB00221A605A609A60DA601A61B5
:100490005A61009B0393019B9B680793019B1B7907
:1004A000002B02D0012B0DD01AE001238DF808306B
:1004B000019B1B690493019BDB680593019B5B69AE
:1004C00006930DE002238DF80830019BDB684FF4A2
:1004D000805202FB03F30493019B5B69069300BF08
:1004E000019B1B689B6802AA1046984700E000BF6A
:1004F00009B05DF804FB00B587B00190019B5A6913
:10050000019B9B69D31AB3F5805F28BF4FF48053DA
:1005100005930422059BB3FBF2F3012B38BF0123A3
:100520000593019B1A69019B9B6913440493019BEA
:10053000DB681A46019B9B6913440393059A039950
:100540000498FFF78DFF0346184607B05DF804FBDB
:1005500000B583B00190019BDA68019B1B691344CD
:100560001846FFF781FF0346184603B05DF804FB09
:1005700008B5034B03491846FFF7E1F800BF08BD73
:100580008C2B0020D833002008B5084B08491846AA
:10059000FFF7BCF80246074B1A60064B1B68002B9E
:1005A00014BF01230023DBB2184608BD8C2B0020AA
:1005B000D8330020D433002000B583B02A4B1B7AF7
:1005C000002B0BD1FFF7E0FF034683F00103DBB202
:1005D000002B03D0244B00225A6042E0224B02221F
:1005E0001A72224B1B681B79002B02D0012B07D0FB
:1005F0000DE01E4B1B681846FFF77DFF019009E0D8
:100600001A4B1B681846FFF7A3FF019002E0032373
:10061000019300BF019B002B02D0112B0CD00FE0E7
:10062000114B1B7C83F00103DBB2002B18D000219F
:10063000022000F06FF813E00B4B01221A7210E059
:100640000A4B1B6803211846FFF712FF064B0022D6
:100650001A72054B00225A60FFF78AFF00BF00E0C4
:1006600000BF03B05DF804FBC0330020D43300208A
:1006700084B001901B4B0022DA60019B1B79002B98
:1006800002D0012B19D028E0019B5A69019B9B697C
:10069000D31AB3F5805F28BF4FF480530393019BB7
:1006A0009A69039B1A44019B9A61019B9A69019B79
:1006B0005B699A420ED1012310E0019B1B695A1C11
:1006C000019B1A61019B1A69019B5B699A4203D1E4
:1006D000012303E000BF00E000BF0023184604B080
:1006E000704700BFC033002082B00190084BDB6828
:1006F0000133074AD360064BDB68082B04D9044B4F
:100700000022DA60012300E00023184602B070479F
:10071000C033002000B585B001900091019B022BF1
:1007200002D0019B032B49D1274B1B7A012B35D0DB
:10073000022B02D0002B43D033E000238DF80F3082
:10074000019B022B02D0032B09D011E01F4B1B6829
:100750001846FFF78DFF03468DF80F3008E01B4B5E
:100760001B681846FFF7C0FF03468DF80F3000BF27
:100770009DF80F30002B13D0134B00221A72134B2D
:100780001A68019B022B01D1002300E00D231946BA
:100790001046FFF76DFEFFF7EBFE01E000BF00E043
:1007A00000BF094B5B7C83F00103DBB2002B02D05E
:1007B000FFF702FF05E00DF071FC02E000BF00E072
:1007C00000BF05B05DF804FBC0330020D433002027
:1007D00082B0034600918DF80730064B01225A740F
:1007E000044B1B7A002B0CBF01230023DBB21846FD
:1007F00002B07047C033002000B583B003460091BB
:100800008DF807309DF80730012B03D09DF8073095
:10081000032B0DD1084B00225A749DF80730012B91
:100820000CBF01230023DAB2034B1A74FFF7C4FE96
:1008300000BF03B05DF804FBC033002000B583B0F7
:1008400001900198FFF7CEF80346184603B05DF813
:1008500004FB00B58BB001900091019B9B8A043B87
:100860000793009A079B1344DA1C079BB2FBF3F330
:100870008DF81B300198FFF711F90590059B002BAF
:1008800001D1002338E0059B00221A71059B01224B
:100890005A71079B9AB2059BDA80059B09939DF8D4
:1008A0001B30013B0493099B019A1A6000230893B3
:1008B0001DE00198FFF7F2F80390039B002B0ED088
:1008C000059B5B790133DAB2059B5A71099B039A48
:1008D0001A60039B019A1A60039B099304E0059830
:1008E00000F00EF8002307E0089B01330893089AF4
:1008F000049B9A42DDD3059B18460BB05DF804FBC0
:1009000000B58BB00190019B0793079B5B798DF835
:100910001B30019B08939DF81B30013B059300237E
:10092000099305E0089B1B680893099B0133099311
:10093000099A059B9A42F5D3089B1B680493019B77
:100940000893002309930BE0089B1B680393089905
:100950000498FFF7EDF8039B0893099B0133099373
:100960009DF81B20099B9A42EED800BF0BB05DF8A2
:1009700004FB00B585B00190019B0393039B0433F6
:1009800001211846FEF795FF00BF05B05DF804FB96
:1009900000B587B00190019B0593059B04330121AD
:1009A0001846FEF79EFF0346039303AB0493049B94
:1009B0001B78002B02D10198FFF7A2FF00BF07B000
:1009C0005DF804FB00B58DB0039002910192009395
:1009D000039B0693069BDB880593039B0B93009B6D
:1009E0001A1D059BB2FBF3F30A93009B0433059A8F
:1009F000B3FBF2F2059901FB02F29B1A0993009AEC
:100A0000019B1A44059B1344DA1C059BB2FBF3F3CC
:100A10008DF81330069B5B799DF813209A420AD912
:100A20002749BA200AF080FE05E00B9B1B680B9358
:100A30000A9B013B0A930A9B002BF6D100230893E3
:100A4000059A099BD31A0793079A019B934228BFE3
:100A5000134607932DE09DF83830002B0BD0029AF7
:100A6000089BD0180B9A099B13440433079A194624
:100A70000DF0E8FC0AE00B9A099B1344181D029A3A
:100A8000089B1344079A19460DF0DCFC00230993D8
:100A90000B9B1B680B93019A079BD31A0193089A2F
:100AA000079B13440893059A019B934228BF134662
:100AB0000793019B002BCED100BF0DB05DF804FB66
:100AC000F0F2030000B587B0059004910392029301
